:020000022000DC
:106000000000012099980200C19802008D710200E1
:10601000C5980200C7980200C9980200000000005D
:10602000000000000000000000000000CB9802000B
:10603000CD98020000000000CF980200D198020025
:10604000E97D0200D3980200A1820200018A0200C9
:1060500095850200D398020015810200E9830200B1
:10606000D1890200E1890200D3980200D39802008E
:10607000D3980200D3980200D3980200D39802006C
:10608000D3980200D96C0200D3980200D398020082
:10609000756D0200D39802004D930200D398020060
:1060A000D3980200D3980200D3980200D39802003C
:1060B000A1830200D398020000000000000000004D
:1060C000D3980200B1830200C1830200D39802007A
:1060D000D3980200D3980200D39802000000000079
:1060E00000000000000000000000000000000000B0
:1060F00000000000000000000000000000000000A0
:10610000000000000000000000000000000000008F
:10611000000000000000000000000000000000007F
:10612000000000000000000000000000000000006F
:10613000000000000000000000000000000000005F
:10614000000000000000000000000000000000004F
:10615000000000000000000000000000000000003F
:10616000000000000000000000000000000000002F
:10617000000000000000000000000000000000001F
:10618000000000000000000000000000000000000F
:1061900000000000000000000000000000000000FF
:1061A00000000000000000000000000000000000EF
:1061B00000000000000000000000000000000000DF
:1061C00000000000000000000000000000000000CF
:1061D00000000000000000000000000000000000BF
:1061E00000000000000000000000000000000000AF
:1061F000000000000000000000000000000000009F
:1062000010B5054C237833B9044B13B10448AFF3F0
:1062100000800123237010BD88A200200000000030
:10622000A41D030008B5034B1BB103490348AFF39A
:10623000008008BD000000008CA20020A41D030007
:10624000154B002B08BF134B9D46A3F5803A002148
:106250008B460F461348144A121A03F05FFC0F4B8B
:10626000002B00D098470E4B002B00D09847002001
:10627000002104000D000D48002802D00C4806F053
:10628000C1FB03F069FB2000290000F0D7FA03F0FE
:106290003FFB00BF000008000000012000000000DC
:1062A0000000000088A200201CB4002005CA0200E3
:1062B000D5DB020038B5044638B1044D45F0010580
:1062C0004FF47A40A847013CFAD138BD20070300BB
:1062D00010B50849084B0B604FF0005300248B6049
:1062E00003230B732246234604484C7301F048F9FC
:1062F000204610BDB0980020021A1B19A807030001
:10630000F0B5002385B007460E46144602B113804F
:106310000C4D0D4800226946CDE90033CDE9025607
:1063200002F078FA00239E4202DC304605B0F0BD50
:10633000EA5CFA541CB1EA5C21880A4422800133E9
:10634000F1E700BF5CB10020AC0703001FB50A4AAB
:106350000C4600239C420BDCCDE900246946002258
:106360000648CDE9022202F055FA204604B010BDDD
:10637000C15CD1540133EDE75CB10020AC070300F0
:10638000F7B5284F00242646254647F0010700228E
:1063900002210DF10600FFF7B3FF002831DB230ACD
:1063A000BDF806404CF2AF1103EB04238C429BB2C4
:1063B00007D11D4B01221A7000201C4B187003B02E
:1063C000F0BD4CF2AE12944203D1174B002018706E
:1063D000F3E78B4209D1144A01231370144A240AAB
:1063E0001470124A00201370E9E7934209D10E4B52
:1063F000002018700E4B240A1C700C4B01221A70DE
:10640000DDE7032D07D9032E08D84FF4C860B8473D
:106410000136F6B200250135EDB2B8E74FF0FF3096
:10642000CDE700BF2007030068B300205DB2002065
:106430005CB2002037B5FFF7A3FF00282ADB234B0F
:10644000234C1A7842B3234D2978C1F1040100226C
:10645000C9B22046FFF754FF00281BDB2B781C48ED
:10646000012B1EBF1C4A21781170C3F10102C3F138
:106470000203A15C194AE45A11700DF10602FFF7FC
:106480003FFF002806DBBDF80630A34214BF6FF0C3
:106490000200002003B030BD02212046FFF730FF8C
:1064A0000028F7DB0B4B0A481B78012B1EBF0A4A5A
:1064B00021781170C3F101030022E15C074B1970D0
:1064C000FFF71EFF00EAE07000B2E3E768B30020C8
:1064D0005EB200205DB200205CB200205BB2002002
:1064E0000748AE230370C1234370064B1B788370AB
:1064F000054B1978C1700431C9B2FFF727BF00BF3F
:106500005EB200205CB200205BB2002038B50F4CB8
:106510000F4D002323700E232B70FFF7E1FFFFF7D1
:1065200089FF78B92B780F2B05D10A4B0A4A94F9C9
:1065300000001A6038BD032B14BF4FF0FF306FF01E
:106540000100F7E74FF0FF30F4E700BF5BB2002037
:106550005CB2002054B100205EB2002010B5104B98
:10656000104C01221A70104B1B6800221A700C2369
:106570002370FFF7B5FFFFF75DFF50B923780D2BB0
:1065800007D10A4B0A4A198811805A88094B1A8088
:1065900010BD094803F00CFB4FF0FF30F8E700BFD7
:1065A0005BB200205CB20020AC9800205EB20020FC
:1065B0005AB100204EB10020260703000E4A0023E6
:1065C00010B513600D4A13800D4A1380FFF780FE4B
:1065D000002808DB41F28834FFF798FF002803DB2E
:1065E000FFF7BCFF002010BD0120FFF763FE013C58
:1065F000F2D16FF00300F6E754B100205AB1002049
:106600004EB1002038B50F4B0F4D1C682070186834
:106610000E4C41701B689A700323237014232B7057
:10662000FFF75EFFFFF706FF48B92B78012B06D175
:106630002378042B03D1064B186840B238BD4FF0C5
:10664000FF30FBE7AC9800205CB200205BB200207A
:106650005EB20020F8B5194C194D1A4E0023237074
:10666000194B0746186801701B685A7002232B707B
:1066700020233370FFF734FFFFF7DCFED8B93378FF
:10668000212B09D1114B124A1A6028780E23B0FB36
:10669000F3F0207040B20BE0032B0CD10C4B1878B8
:1066A000FE2806D1002F14BF4FF0FF306FF001001D
:1066B000F8BDFA28EED14FF0FF30F9E7A8A200208C
:1066C0005BB200205CB20020AC980020A4A20020A5
:1066D0005EB2002008B50020FFF770FF0C4BD3ED31
:1066E000007A0C4B1B8807EE103AB6EE006AB8EE43
:1066F000477A76EE676A084B66EE876A77EE867AA7
:10670000C3ED006A67EE877A044BC3ED007A08BDDB
:10671000A89800205AB1002050B1002064B3002096
:10672000F7EE007AB4EEE70AF1EE10FA08B504D8F5
:10673000B5EEC00AF1EE10FA05DA114B114A124813
:106740002B2103F0C7F8B6EE007A20EE070A0F4BB4
:1067500083ED000A0E4B1B8807EE903A77EE406AF5
:10676000F8EE677A0B4B66EEA76A30EE070AC3EDC8
:10677000006A20EE270A084B83ED000A08BD00BF1F
:1067800083070300FC06030098070300A898002075
:106790005AB1002050B1002064B30020012110B58F
:1067A0000A220846FFF756FF1E4B1F4C1B681F4866
:1067B0005988218003F0FCF91D4B1B78013B022B0B
:1067C00006D90021FF220846FFF71CFF032010BD59
:1067D000238807EE903A174BF8EEE77A93ED007AAC
:1067E000F4EEC77AF1EE10FA06D500221146FF202A
:1067F000FFF708FF0120EAE70F4B93ED007AF4EE74
:10680000C77AF1EE10FA4FF0000205DD1146FF20C5
:10681000FFF7F8FE0220DAE7FF211046FFF7F2FE4D
:106820000020D4E7A4A200204CB10020A30703005D
:10683000A8A2002050B1002064B3002008B5FFF7E3
:1068400049FF9FED0E0A0E4C0E4D0F4EFFF768FFED
:10685000FFF7A4FF2070032806D8DFE800F0090B3B
:10686000020D0A4803F0A4F96420FFF723FDEFE7C7
:106870000748F7E73046F5E72846F3E7CDCCCC3DAF
:1068800058B100206C0703006007030042070300B3
:106890004F07030038B5054D044645F001054FF498
:1068A0007A40A847013CFAD138BD00BF7008030008
:1068B0007FB505460E46144672B601F017F900F092
:1068C00063FF0028FBD13E4803F072F941F2010357
:1068D0009D4264D006D8012D12D03146394803F0CC
:1068E00067F910E044F201039D425AD044F20203DA
:1068F0009D42F2D122886168334803F059F902E0E1
:10690000324803F055F901F011FB08B901F0D8FA4B
:106910000023ADF80C308DF80E3003A901231920A7
:106920008DF80D3001F00CFB03A9182001F008FBD5
:1069300003A9172001F004FB192001F0BDFB18206A
:1069400001F0BAFB172001F0B7FB4FF4FA70FFF724
:10695000A1FF192001F082FB182001F07FFB172016
:1069600001F07CFB3220FFF795FF192001F0A4FB1A
:10697000182001F0A1FB172001F09EFB4FF4FA70E4
:10698000FFF788FF192001F069FB182001F066FB72
:10699000172001F063FBFA20FFF77CFFCCE70C48DF
:1069A000AFE7A568284601F0C9F92368019600936E
:1069B000024663680748294603F0FAF8A3E700BFD8
:1069C000B80703005508030010080300D1070300AF
:1069D000EE0703002B08030007B501F0A7FA08B97A
:1069E00001F06EFA0023ADF804308DF8063001A9ED
:1069F000012319208DF8053001F0A2FA01A9182011
:106A000001F09EFA01A9172001F09AFA192001F06D
:106A100053FB182001F050FB172001F04DFB4FF401
:106A2000FA70FFF737FF192001F018FB182001F06A
:106A300015FB172001F012FB3220FFF72BFF192066
:106A400001F03AFB182001F037FB172001F034FB6E
:106A50004FF4FA70FFF71EFF192001F0FFFA18201B
:106A600001F0FCFA172001F0F9FAFA20FFF712FF03
:106A7000CCE70369C1688B429DBF8268D21802F1DE
:106A8000FF3203F1FF3394BF501A581A70472DE9B3
:106A9000F041D0E902670446F61B406896428846FA
:106AA0001546384405D902F09FFF3D44E560BDE836
:106AB000F0813246AD1B02F097FF2A4608EB060133
:106AC000606802F091FFF1E72DE9F843C5680646DA
:106AD000894617464FF000083469B3687068A542CC
:106AE00028BFE418013C621B5C1BBC4228BF3C462B
:106AF000944228BF144649462844224602F074FFB7
:106B0000B3682544AB4208BF00253F1BA044A14405
:106B1000F560E1D14046BDE8F883000010B5114CA6
:106B2000114AA2610223C4E90433104BE361A26459
:106B30004FF400730E4A2362E264002310220D49D1
:106B4000A362E01D6362E362A3656365E36522659A
:106B500003F00AF90849204603F006F92023A3713F
:106B600010BD00BF6CB3002076080300D8A400203D
:106B7000C8A400207F08030083080300F8B5184C60
:106B8000182300FB033503FB00402544C46A012C95
:106B90000F46164611D003D3022C1BD000240AE066
:106BA0002846FFF766FF864205D832463946284612
:106BB000FFF76DFF34462046F8BD2846FFF759FF22
:106BC0008642344628BF0446224639462846FFF707
:106BD0005EFFF0E72846BDE8F840FFF775BF00BF4D
:106BE0006CB3002073B50D4B1B7804460D4616465A
:106BF0000BB9FFF793FF02A8002300F8013D00F056
:106C00006DFA324629462046FFF7B8FF04469DF844
:106C1000070000F093FA204602B070BD6CB300206C
:106C200010B511461C461A460020FFF7DBFF204630
:106C300010BD00B583B002900091019244F20100B2
:106C400071466A46FFF734FE03B000BD094A537827
:106C500091780133DBB2994208BF00231178994241
:106C60001FBF03705078182303FB002014BF0430AB
:106C700000207047D8A6002073B5054602A800245E
:106C800000F8014D0E4600F029FA0DF10600FFF75D
:106C9000DDFF90B106700A4B9DF8062045605A70E2
:106CA0009DF8070000F04AFA24B9064B4FF4801211
:106CB000C3F80021204602B070BD0424F0E700BFF5
:106CC000D8A6002000E100E0024B4FF43C6043F006
:106CD0000103184790080300F8B51F491F4B002512
:106CE000C1F84051C1F84451C1F84851C1F84C5164
:106CF000C1F80051C1F804511B684BB3D1F80445E9
:106D000017490968641A24F07F442F461A68A24282
:106D100009D8A41A15441A7CDE691AB11F74D3E984
:106D200005209047AEB90F4B0F4A197813788B4264
:106D300005D10133DBB2022B08BF00231370127898
:106D40000A4B43F822500A4B4FF48012C3F800213B
:106D5000F8BD3346DAE700BF00100140F8A7002075
:106D6000F4A70020F0A70020F1A70020E8A700204A
:106D700000E100E02DE9F74F9C4A9D49137809781E
:106D80009C4D99423CD00133DBB2022B08BF00235B
:106D9000137099491278994B0F6853F822003B18E9
:106DA00023F07F4300220B602B681646144694465E
:106DB00013B942B12B6006E0196881420ED902B1C5
:106DC0002B60091A19604FF001082B68DFF834A214
:106DD00000930027BEB9DFF834B260E0401A0C44DB
:106DE000D968C3F800C0D3F81CE031B13A1922F0D9
:106DF0007F42C3E90121DE611E4601227346D7E7C7
:106E00000026B046E1E73446F6697B4A63681268BB
:106E1000DFF8FCC1A068991A21F07F41614500F2BA
:106E2000A58001442160012222742A680023C4E95C
:106E30000133E361002A40F0A2802C60CAE75A1CAB
:106E40009BF80210D2B291428BF8002004BF0022BE
:106E50008BF80020182202FB03B32A6819799C687A
:106E6000022974D003297ED0012918D1217CB1B91F
:106E7000DA6862601A69A2605A69E2609B69A3617C
:106E80005F4B1B78002BC0D06160BEE79C4200F0D6
:106E900090809946DB69002BF8D1002323749BF87E
:106EA00000309BF801209A42C9D12B682FB9009A73
:106EB000934202D1B8F1000F43D0002B41D0D3F858
:106EC00000A0504D4C4BD5F804751C68DFF8448188
:106ED0003E1B98F8003026F07F4603369BB94FF4EE
:106EE0008033C5F84433C5F80433474B4FF40032C0
:106EF0004FF00109C3F880211A60C5F80090FFF730
:106F0000E3FE88F80090B2452CBF5444A41924F045
:106F10007F44C5F84045D5F80435DB1B23F07F439B
:106F2000E41B033324F07F44A3420AD9D5F8043587
:106F3000C5F84035FFF7C8FE334B4FF40032C3F8B5
:106F400000212F4B00221A7003B0BDE8F08F1346CA
:106F50009146A0E71174D2690123002AFAD1002BCF
:106F60009DD02A609BE700231946F6E7D31A23F049
:106F70007F43834234BFC31A0023236053E7216851
:106F80001368994213D8591A1160E26155E7091A3A
:106F9000D8691A4638B1034618688842F7D3401AB0
:106FA0001860184613462160E061DC6112E7134661
:106FB000F2E74C450DD1D3692B6053B90E480192CD
:106FC0000121CAF8081003600D4B1970FFF77CFE11
:106FD000019AE1692368C9F81C1011B108680344DB
:106FE0000B602B689A4218BF012756E7F0A70020D4
:106FF000F1A70020F8A70020F4A70020E8A70020B0
:10700000E4A700200010014000E100E0D8A6002025
:10701000FEFF7F00E5A700202DE9F7431D4FBB7859
:1070200005460E4690469BB390B304292ED943697A
:1070300073B3437C02A80024012B00F8014D0CBF60
:107040008946A14600F04AF80DF10600FFF7FEFD63
:10705000D0B101230370104B4560D3F80435C0E96B
:107060000498C0E902369DF806307B709DF8070051
:1070700000F064F824B9094B4FF48012C3F80021E2
:10708000204603B0BDE8F0830424EFE70724F7E7C8
:107090000824F5E7D8A600200010014000E100E038
:1070A000064A92783AB130B1426922B100220274A4
:1070B0000221FFF7E1BD0820704700BFD8A60020DD
:1070C000EFF30583C3F308032BB9EFF31480C04338
:1070D00000F00100704701207047000070B50446C1
:1070E000FFF7EEFF012803D01049432002F05CFABD
:1070F000EFF3108672B60E4A9068012398B9936038
:107100000C4B0D4DD3F8801029401160C3F880500E
:10711000D3F8841051604FF0FF32C3F88420207000
:1071200006B962B670BD2370FAE700BF9608030087
:10713000E4B3002000E100E0FC06FFBD10B504460A
:10714000FFF7BEFF012803D00949512002F02CFAB5
:10715000084B9A685AB154B9EFF3108172B6064AD7
:1071600018681060586850609C6001B962B610BD24
:1071700096080300E4B3002000E100E0024B1B6826
:107180000021986802F028BDCC9800201EF0040F62
:107190001CBFEFF309800AE0EFF308800549064AB7
:1071A000884201D8904202D88D464FF00000034B30
:1071B000184700000000012000E00020C17102001B
:1071C0002DE9F347054600F091FC00F0DDFA0028B8
:1071D000FBD12F4B2F4C9F6A2F4BE41AE408240459
:1071E00044F00104002D4ED0AA692C49204600F03D
:1071F0004FFCEB680193AB6800932949D5E9002364
:10720000204600F065FCEB6900932649D5E904238C
:10721000204600F051FC1E4BDB6A980703D522493B
:10722000204600F031FCDFF89490DFF894A00026AF
:107230004FF0010808FA06F33B4206D059F8262021
:107240001AB15146204600F023FC01361A2EF1D126
:10725000390605D50E4B15495A6B204600F018FC2F
:107260003A0405D50A4B12499A6B204600F010FCEF
:10727000104B1B68DB0700D500BE2846FFF7ACFBB0
:1072800002B0BDE8F0870C49204600F0FDFBC2E7E4
:1072900000ED00E0201E0300B81D0300EB08030012
:1072A000000903003509030090090300DF0903000A
:1072B000FF090300F0ED00E05D0903001C0A030074
:1072C000D409030050E8002F0B4640E8003C9CF036
:1072D000000FF7D11046704750E8003F43EA010223
:1072E00040E8002C9CF0000FF6D11046704750E8A3
:1072F000002F02EA010340E8003C9CF0000FF6D1A9
:107300001046704750E8003F03EB010240E8002CB4
:107310009CF0000FF6D11046704750E8003FA3EBF9
:10732000010240E8002C9CF0000FF6D11046704797
:107330000121FFF7D1BF0021FFF7D9BF37B50546BF
:1073400020B914494FF4927002F02EF902A80024DB
:1073500000F8014DFFF7C2FE2A68696813688B4286
:1073600010D9591E116013F8014C2A8AEB6802FBF0
:1073700004342A68AB6811685B1A1179DBB2994250
:1073800038BF13719DF80700FFF7D8FE204603B001
:1073900030BD00BF440F030037B50C46054620B989
:1073A000104940F2471002F0FFF824B90D494FF49C
:1073B000A47002F0F9F802A8002300F8013DFFF7DD
:1073C0008DFE2A681368591C1160EA68A41A2A8A7B
:1073D000B4FBF2F41C709DF80700FFF7AFFE03B09A
:1073E00030BD00BF440F030038B5084C04F108035A
:1073F0000546002818BF1C4623682BB11A68226076
:107400005B6828469847F7E738BD00BF04A800200E
:1074100020B9054B01225A70FFF7E6BF012802D1BF
:10742000014A9070F8E77047FCA7002020B9034B91
:1074300001225A70FFF7D8BF704700BFFCA7002099
:1074400038B50B4C237883B90A486360A360236185
:10745000E36000F07DFC054601F05EFF08B900F036
:107460008DFC01232370284638BD8525FBE700BF2E
:10747000FCA700201174020013B5154C237823B922
:1074800014494FF4857002F08FF8E36823B911496D
:1074900040F20B1002F088F802A8002300F8013D2A
:1074A000FFF71CFEE368013BE360E36853B901F0BA
:1074B00033FF18B10749792002F076F800F07CFC20
:1074C0000023A3709DF80700FFF738FE02B010BD3F
:1074D000FCA70020940F0300012813B509D003D3A3
:1074E00003281BD002B010BD134B0122C3F880202B
:1074F000F8E702A80023114C00F8013DFFF7EEFD6C
:1075000023780BB9FFF79CFFE3689DF80700013370
:10751000E3600123A370FFF711FEE3E7074B1B783D
:1075200023B9074940F2452002F03EF800F026FC5E
:10753000FFF7A2FFD6E700BF00E100E0FCA70020B4
:10754000940F03007FB503788DF8043043680293ED
:1075500083688DF80C30C368049303698DF8143088
:10756000054A064B01A853F8213052F821109847DC
:1075700007B05DF804FB00BF10A800201CA8002085
:10758000F0B50646944616F8047B194A42F827C01F
:10759000184A42F82730184B0C460FCB85B06D4681
:1075A00085E80F0023788DF8003063788DF801307E
:1075B000A3788DF80230E3788DF8033023798DF8C5
:1075C000053063798DF80630A3680293237B8DF82C
:1075D0000C30BCF1000F637B8DF80D30074A3B4641
:1075E00008BF00222946304601F006F805B0F0BD7C
:1075F0001CA8002010A80020EC0F03004575020015
:10760000037813F0040216D003F00303012B03D018
:10761000022B09D0012070470A6800880232C0F3AB
:10762000831002440A60F5E70B684288023303EBDB
:1076300092130B60EEE71046704700002DE9F04F03
:1076400089B00646871C08A8484C009200230D46C6
:1076500000F8113DFFF742FD23682B60D4E90123B8
:107660001344226801339B1A04F21C4804F5836B0F
:1076700004F21449BB421AD3009A0023002A6DD0A9
:10768000012262F3010343F0040366F389132168C6
:10769000A2689DF80F000A4003320F4444F82230DC
:1076A0002760FFF74BFD012009B0BDE8F08F0121F5
:1076B0004046FFF727FE5846FFF73AFE0DF1200A35
:1076C0004846FFF735FE60684AF8100DA568284067
:1076D000033004EB80005146FFF792FF0246049806
:1076E000002AF4D105EA000304EB8303811CDB6864
:1076F00005930130054004EB850503F00303012BDE
:107700000491ED6823D0022B08D0194901924FF45F
:10771000BF7001F049FF019A154607E0BDF8163029
:107720009B0903332D0C01EB930304934846FFF7A9
:1077300002FE08B1049B636029464046FFF7E2FD64
:10774000D4E901231344226801339B1A92E7BDF860
:107750001430C3F383132D0C0B44E6E7022262F3CB
:10776000010343F0040366F39F5390E7F8A8002059
:1077700009100300034BD3E90030C31A58425841A3
:10778000704700BFF8A800202DE9F04387B0FFF74D
:10779000F1FF0646002840F0FC807F4DC5F8180434
:1077A000BFF34F8F6868AC6806AF47F8100D2040F4
:1077B000033005EB80003946FFF722FF029B18B12A
:1077C000D5F81824002A5FD004EA0302991C01337B
:1077D00005EB8202234005EB8303D268DB68049348
:1077E00002F00303022B0392029162D1BDF80E3026
:1077F0006A484FEA9318B8F1500FC14628BF4FF0BE
:10780000500969F38F1309F10801ADF80E3000F04B
:10781000EBF90746002800F0A78000F014FA03A94E
:1078200000230822384600F021FA029924EA0106D2
:107830000136B600B14535D95FFA89F97EB3F6B2A3
:10784000A9EB0609214003315FFA89F4B146544E91
:1078500005EB810108234A46384600F007FA36B1A5
:1078600009F1080322463146384600F0FFF9029B31
:1078700008F1030803EB98030293D5F81834002BA2
:107880004BD1D5F810445BE02A689A4204D86A606C
:10789000304607B0BDE8F08304EA030088E74049BA
:1078A0003446D7E72140033108234A4605EB8101DE
:1078B000DAE7012B58D1BDF80C303848C3F38311F7
:1078C000062928BF062161F3891302318900ADF82A
:1078D0000C3000F089F90746002845D000F0B3F9D4
:1078E0000023082203A9384600F0C0F90026BDF89D
:1078F0000C20C2F38312B31C96424FEA8303BCD21E
:1079000002994A1C21400331029205EB81010422B5
:10791000384600F0ABF90136E9E7384600F097F950
:10792000FFF728FF80F00100C6B2B1E7E3685B799A
:1079300023B1236839461B6820469847E3681C68D2
:10794000002CF3D1384600F082F906A800F8114D5A
:10795000FFF7C4FBD5F818340BB9029B6B609DF898
:107960000700FFF7EBFBDBE7D5F8104454B90D4BEC
:107970000D480E49C01AC008000440F0020000F093
:1079800083F8CDE7236820469B689847E3681C6826
:10799000ECE700267CE700BFF8A80020501E03009B
:1079A00004A90020B81D0300101E0300601003008E
:1079B0002DE9F74F2F4C80460F46914601A9012231
:1079C00018469B46D4F808A0FFF738FE00283DD0A3
:1079D000019D0026A91C5E4506EB010240D1002155
:1079E0002548FFF76FFC80F3100B244B244A4FEA25
:1079F00018499B1AB9EBD30F04D3224940F2A310C4
:107A000001F0D2FD6B1C03EA0A0304EB830349EA8D
:107A10000B42DA6005EA0A030333012114F823203C
:107A200068F3C50204F8232034F8232066F3891292
:107A300024F8232054F8232067F39F2244F82320BE
:107A400061F301026FF3820204F8232094F82034DA
:107A50001BB1FFF799FE0028FBD103B0BDE8F08F02
:107A60000AEA020204EB820259F82630D36001369A
:107A7000B1E700BFF8A8002014AD0020501E03009D
:107A8000B81D03000910030000231A46FFF790BF3A
:107A900013B502AC012344F8042D2246FFF788FFFA
:107AA00002B010BD07B5CDE9002302236A46FFF7F7
:107AB0007FFF03B05DF804FB1FB5CDE90123069BF2
:107AC000039301AA0323FFF773FF05B05DF804FBDE
:107AD0001FB5CDE90023069B0293079B03936A46DB
:107AE0000423FFF765FF05B05DF804FB38B5094ACC
:107AF0000123D2F8104482F820341D4604B938BD61
:107B0000E3685D71236820465B689847E3681C68FA
:107B1000F4E700BFF8A800202DE9F74F99469DF83B
:107B20003030019388461746054618B92249B620D9
:107B300001F03AFDEA8895F805B00BFB02FBABF1CA
:107B4000040BCB4503D81C49C42001F02DFD3E6831
:107B5000B5F806A006EB09025A4509F1040188BFF1
:107B6000ABEB0906B1FBFAF43E600AFB141144B911
:107B7000AAEB0107B74228BF37462EB903B0BDE8CC
:107B8000F08F2D68013CF2E7019A043108EB040301
:107B9000681872B101463A461846F61B01F024FFF8
:107BA000B2453C442D6857464FF0000128BF374688
:107BB000E3E73A461946F0E775100300F8B5467951
:107BC0000146721E0546002393422D6803D300240C
:107BD000A64202D8F8BD0133F6E70F682846FFF742
:107BE000DBFB01343946F3E72DE9F843CD1C068A67
:107BF0000746FFF7A3FB043E35440446B5FBF6F504
:107C0000F0B14FF48073EDB28380C680013D076010
:107C100081464FF00008A84512D23846FFF78EFB88
:107C2000064648B163790133637108F10108C9F868
:107C3000000007608146EEE72046FFF7BFFF3446AD
:107C40002046BDE8F88301210430FFF75BBB10B587
:107C5000012104460430FFF760FB10F0FF0F04D150
:107C60002046BDE81040FFF7A9BF10BD30B585B074
:107C7000144604AA002542F8044D0095FFF74CFF76
:107C8000039BA34203D00349F62001F08DFC05B00D
:107C900030BD00BF7510030038B50D46044618B955
:107CA0000849502001F080FC1DB90649512001F01F
:107CB0007BFC25602B6863606A68934204BF0023E5
:107CC000636038BDCE10030010B5044618B90B49E7
:107CD000632001F069FC23681BB90849642001F0A6
:107CE00063FC636843B1226891680B446360526827
:107CF000934204BF0023636010BD00BFCE10030099
:107D00000D4930B5A1F594720225914201D80020A9
:107D10000EE08B1ADB1093FBF5F302EBC30452F871
:107D20003330834205D802D204F10802EDE76068DF
:107D300030BD2146E9E700BF7412030008B5FFF724
:107D4000DFFF024B002808BF184608BD37110300AB
:107D500010B5044618B90749A02001F025FC064BD0
:107D6000187920B901221C601A71587110BD852044
:107D7000FCE700BF2E1603001CAD002008B50B4B1E
:107D80001B791BB90A49B92001F00EFC094B1A688E
:107D9000D2075FBFE02283F8002301221A604FF070
:107DA00080430122C3F8182508BD00BF1CAD002088
:107DB0002E16030000E100E008B5084B1B791BB943
:107DC0000749F32001F0F0FB064B01221A604FF047
:107DD0008042D2F81834DB03FBD408BD1CAD002070
:107DE0002E1603000C00004007B5154B1A687AB137
:107DF00000221A601B680093009B4FF08043012211
:107E0000C3F808230F4B587910B95A711B6898476B
:107E10000D4B1A6882B100221A601B680193019B06
:107E20004FF080430222C3F80823064B1B68012051
:107E300003B05DF804EB184703B05DF804FB00BF26
:107E4000000100401CAD00200401004000F1804012
:107E500000F5C040002382B0036003680193019BDA
:107E600002B07047054B4FF0FF32072843F820203F
:107E700084BF1B1883F84820704700BF24AD002042
:107E800002494FF4F37001F08FBB00BF811603006D
:107E90001F2838B504460D4601D9FFF7F1FFA000B1
:107EA00000F1A040D0F8003723F44033C0F8003789
:107EB000D0F8003743EA0543C0F8003738BD00006A
:107EC00010B5164C94F8583033BBFF21E21801333B
:107ED000202B82F83010F9D10021C8B2FFF7C2FF81
:107EE00001310C29F9D1042200210D4801F016FEC0
:107EF0000C4BE02283F8062340221A604FF4BE7038
:107F0000FFF7A4FF084B4FF00042C3F804230123FE
:107F100084F85830002010BD0820FCE724AD002074
:107F200078AD002000E100E000600040034B93F8D2
:107F30005800003018BF0120704700BF24AD00205A
:107F40001F2870B504460D4604D941494FF4987076
:107F500001F02AFB3F4E96F85830012B04D03C49E3
:107F600040F2311001F020FB25B939494FF49970E6
:107F700001F01AFB331993F93020013265D1AA7848
:107F8000002A54D0002356F8231001314FEA83020F
:107F900048D1311902F1804281F83030002102F5D8
:107FA000C04246F82310D2F810052B78697820F4E7
:107FB00098101B04090520F4F85001F4801103F413
:107FC0004033C2F810050B432102D2F8100501F42A
:107FD000F8510B430343C2F810356B78012B4FF077
:107FE000010528D11F2C01D9FFF74AFF4FF0A0430C
:107FF000A540C3F808551F2C01D9FFF741FF04F530
:10800000E0724FF0A043032143F82210E208124926
:10801000012304F0070403FA04F48B5C1C438C5422
:10802000002003E00133082BADD1042070BDFE22F7
:1080300083F83020D1E71F2C01D9FFF721FF4FF043
:10804000A043A540C3F80C55D5E70820EEE700BFD4
:10805000C416030024AD002078AD00201F2838B5D9
:10806000054604D912494FF4BE7001F09DFA114C37
:10807000621992F93020013204D10D4940F27D108D
:1080800001F092FA631993F83030072B04D80849AD
:108090004FF4BF7001F088FA1F2D01D9FFF7F0FEF1
:1080A000012303FA05F54FF0A043C3F8085538BD86
:1080B000C416030024AD00201F2838B5054604D996
:1080C00012494FF4C37001F06FFA114C621992F922
:1080D0003020013204D10D4940F2871001F064FADA
:1080E000631993F83030072B04D808494FF4C47053
:1080F00001F05AFA1F2D01D9FFF7C2FE012303FA3E
:1081000005F54FF0A043C3F80C5538BDC416030065
:1081100024AD00202DE9F04F87B000245B4A5C4E6F
:108120005C4D039401211368A2F5C040012B80B27D
:1081300006D1D6F804330B4202D0FFF787FE0C437A
:108140000432AA424FEA4101EDD1534B1B68012B87
:108150000AD14FF4BE70FFF779FE4FF0A04344F010
:108160000044D3F81035039314F0FF0F1AD04B4F8F
:1081700000250126344210D0AB0003F1804303F503
:10818000C043D3F81005D3F8101557F82530C0F3C5
:108190000420C1F3014103B198470135082D4FEA8E
:1081A0004606E7D1002C6EDA00224FF0FF33CDE90E
:1081B00004233A4F4FF0000A56464FF0A04907EB10
:1081C0000A0393F95040631C46D0E4B2012224F024
:1081D000C00504F0070B02FA0BFBEB0806AAD11846
:1081E00011F8042C12EA0B0F36D07A19A40992F96F
:1081F000302057F82280B8F1000F0AD1032C2BD180
:108200000DF1100C1CF8030040EA0B000CF8030001
:1082100001E0032CF4D01F2D03D90191FFF730FEAC
:10822000019911F80C1C05F5E07311EA0B0F59F8D0
:108230002330C3F3014320D0022B0DD1032C05D1F1
:1082400021462846FFF724FE0136F6B2B8F1000FAA
:1082500002D021462846C0470AF1010ABAF1040FAC
:10826000ADD186B14FF0A043039AD3F810359A42AE
:1082700009D00393049B05939CE7032BECD1032CBB
:10828000E4D10221DDE707B0BDE8F08F00610040D6
:1082900000600040206100407C61004024AD00206F
:1082A00010B5054C22681AB90449512001F07CF937
:1082B0002368BDE81040184780AD00201D1703005B
:1082C00037B50D4630B90F49772001F06DF9002020
:1082D00003B030BD0C4B9842F9D102A8002300F83E
:1082E000013DFEF7FBFE094B1C7914B901221D600C
:1082F0001A719DF80700FEF721FF002CE7D011202E
:10830000E6E700BF1D1703000020004080AD0020FD
:108310000023435082B043580193019B02B0704741
:1083200070B5D0F8103105460C4653B14FF4887142
:10833000FFF7EEFF63795A0703D523680BB10120DD
:108340009847D5F814315BB14FF48A712846FFF78E
:10835000DFFF63791B0703D523680BB10220984721
:10836000D5F81C315BB128464FF48E71FFF7D0FF72
:10837000607910F0100002D1236803B19847D5F856
:10838000043163B14FF482712846FFF7C1FF012326
:10839000237123681BB10320BDE87040184770BDEE
:1083A00001490248FFF7BCBF88AD002000C0014072
:1083B00001490248FFF7B4BF90AD00200010024011
:1083C00001490248FFF7ACBF98AD002000200240F1
:1083D00000F1804000F5E040002382B003600368B4
:1083E0000193019B02B07047F0B5514B514C1B6893
:1083F00085B0DBB14FF4827094F82E20FFF7E8FFD0
:1084000012B194F82F30A3B1636802932389ADF8B9
:108410000C30E36800218DF80410002B44D1237444
:10842000236801A89847002384F82F3094F82E3051
:1084300003B3414B1B68EBB14FF48070FFF7C8FFEB
:1084400094F82D20638B91B28B4238D95B1A218925
:108450009BB26383CB1A616801EB4301374BC3F8CE
:108460002C16C3F830264FF48270FFF7B1FF344B5F
:1084700001221A60334B1B685BB14FF48870FFF721
:10848000A7FF002304A82374022300F80C3D2368EF
:1084900098472D4B1B6813B34FF48A70FFF798FF72
:1084A0000023237405B0F0BD208B608363602081BE
:1084B000E160002AB4D1214B01221A60B0E7D2D189
:1084C000E368012184F82F103BB1002161831B492F
:1084D000C1F82C36C1F83026C5E76383C3E7666967
:1084E0004FF000470125002EDCD0B6FA86F227FABD
:1084F00002F34632920026EA030602F1804303F5B6
:10850000E0431B68002BEED01046FFF761FFA2F599
:108510008C72D30882F00402C2F380028DF8083016
:108520008DF804508DF80920236801A89847DAE7F0
:1085300004710040A0AD00200071004000700040B8
:1085400004700040107100401471004002494FF463
:10855000F37001F029B800BF811603001F2810B581
:10856000044601D9FFF7F2FF012303FA04F44FF0A8
:10857000A043C3F80C4510BD1F2810B5044601D90F
:10858000FFF7E4FF012303FA04F44FF0A043C3F81C
:10859000084510BD13B54FF04023D3F818310BB385
:1085A000114B124C00221A601B680193019B236837
:1085B00023B90F494FF4277000F0F6FFE07FFF2842
:1085C00003D0A37F5BB1FFF7C9FF0023637723725A
:1085D000D4E90031074802B0BDE810401847FFF762
:1085E000CBFFF2E702B010BD18410040D0AD002033
:1085F0007A170300D8AD00202DE9F74F8146CDE969
:1086000000230C4619B97D49AD2000F0CDFF99F843
:1086100004607B4F242303FB06FB07EB0B0A9AF84D
:108620001C10002940F0E480D9F800507549284614
:10863000FFF746FE8046002840F0DD80009B47F8AB
:108640000B30019BCAF80430237B2078012B00F209
:10865000BD80FFF783FF94F800A0BAF11F0F01D986
:10866000FFF774FF0AF5E07A4FF0A043012243F8C8
:108670002A2094F801A0BAF1FF0F00F0AA8050461A
:10868000FFF76CFFBAF11F0FD34601D9FFF75EFF6A
:108690000AF5E07A4FF0A043032243F82A20A3789A
:1086A000FF2B00F099801F2B9A4603D90093FFF708
:1086B0004DFF009B03F5E0734FF0A042042142F808
:1086C0002310242303FB0673A27883F82020E2788A
:1086D000DA77E078FF2817D02379002B7FD0FFF7D7
:1086E0003DFFE3781F2B03D90093FFF72FFF009B7B
:1086F00003F5E0734FF0A042032142F82310242336
:1087000003FB067322799A772378C5F80835C5F8F4
:108710000CB5C5F810A5A368C5F82435637B227B8A
:10872000003318BF0123022A5CD0032A5DD0012A3E
:1087300001D143F00203C5F85435A379C5F8C0351B
:1087400024237343FB5813B14022C5F804230722A6
:10875000C5F800257BB3D9F8003064794FEA133AA5
:10876000A31E012B4FFA8AF506D9631F022B03D9EA
:1087700025496B2000F018FF002DACBF05F16043C8
:10878000224B4FEA4414B8BF0AF00F0AE4B2AABF62
:1087900003F5614303F80A4083F80043D9F8003039
:1087A0001B0B5AB2012103F01F0301FA03F3520914
:1087B000174941F82230242303FB06760023737700
:1087C00001233377404603B0BDE8F08FFFF7D4FEB6
:1087D00041E74FF0FF3B62E74FF0FF3A71E7FFF7E9
:1087E000CBFE7EE743F00403A5E743F00603A2E7D0
:1087F0004FF00808E6E74FF01108E3E77A170300A7
:10880000D0AD002095850200C617030014ED00E0EE
:1088100000E100E02DE9F341584F0679242303FBE2
:10882000067380461B7F0D46144623B9544940F217
:10883000322000F0B9FE2B6833B96B6823B1504980
:1088400040F2332000F0B0FEAB6833B9EB6823B1DF
:108850004B494FF40D7000F0A7FE98F804302BB987
:10886000EB68FF2B02D86B68FF2B04D9444940F218
:10887000372000F099FE24237343FA18517F002912
:1088800079D1FB5823B114F0140F04BF012353779F
:1088900095E80F004FF0240C0CFB067C0CF10C0E3D
:1088A0008EE80F009CF81F00FF2804D09CF81E30B3
:1088B000C3B1FFF761FE2A6822B102F06043B3F151
:1088C000005F06D1AB6883B103F06043B3F1005F92
:1088D0000BD0242303FB067600237377102002B00D
:1088E000BDE8F081FFF73AFEE5E7D8F800306968A7
:1088F000C3F84425C3F84815D5E90212C3F8341566
:10890000C3F838250022C3F81821D3F818210192A2
:10891000019A14F0010218BF0122C3F8502514F087
:10892000020218BF0122C3F8402522075CBF0122C2
:108930001A6124227243BA5892B9D3F81821002A36
:10894000FBD0242303FB0676F07FFF2803D0B47FFF
:108950001CB1FFF703FE0020C1E7FFF70DFEFAE7A9
:1089600014F004004FF0400202D0C3F80823F2E7ED
:10897000C3F80423B3E71120B1E700BFD0AD002056
:108980007A1703002DE9F743002406460F4600F549
:10899000A0754FF48038A14604F150002B68800088
:1089A00080B26BB1D6F8043308FA04F21A4207D049
:1089B000C5F800902B680193019BD7E900319847D7
:1089C0000134042C05F10405E6D103B0BDE8F083C1
:1089D00001490248FFF7D6BFF4AD002000800040F7
:1089E00001490248FFF7CEBF00AE002000900040D2
:1089F0000023435082B043580193019B02B070475B
:108A0000F0B5504C236887B023B94F4940F2452058
:108A100000F0CAFD4D4AD2F824311546A3B14FF4F7
:108A200092711046FFF7E4FFD2F8043163B9A368EE
:108A3000C2F808330223A360A368C2F804330123F9
:108A40001362536107B0F0BDD5F80431002B49D053
:108A50003F4F3E484FF48271FFF7CAFF0FCF01AE80
:108A60000FC63B68336094F82E307BB1237B012B1B
:108A70000CBFD5F83C25D5F84C250292022B334B80
:108A80000CBFD3F83C35D3F84C3503934FF4B07199
:108A90002E48FFF7ADFF4FF4AE712C48FFF7A8FF4B
:108AA00094F8303013B194F82E303BB1274B0022AC
:108AB000C3F80022A260274AC3F80823234AD2F849
:108AC000C434C2F8C4349A0736D501238DF8003077
:108AD00094F830300BB984F82F30D4E9003168466F
:108AE0009847AFE74FF4A4711848FFF781FF237B45
:108AF00083B9174F0FCF01AE0FC63B68336094F8B0
:108B00003030002BDAD1C5F80032A360114BC5F824
:108B10000833D3E74FF40073C5F8003240F2022364
:108B2000A36003F1CE73C5F80833A368C5F8043316
:108B30000123AB602B6285E713F0040318BF022307
:108B4000C4E700BF0CAE0020151803000030004041
:108B500018AE002002029C0170B5C0B14AB116885F
:108B60000024B44203D305196D789D4208D0A14278
:108B700001D800200BE0055D01352C44A4B2F0E7DC
:108B8000A142F6D9A31C1380005D013880B270BDEC
:108B900037B502AC002324F8023D134622460546B1
:108BA000FFF7DAFF10B1BDF80600284403B030BD6E
:108BB00072DF704773DF704738B5012204460D46F7
:108BC000B0F83812D0F83402FFF7E2FF00B10570B8
:108BD00004F13C0204F50D7104F15400BDE8384085
:108BE000FFF7E6BFF8B5077804460D46002F00F002
:108BF000058100F24A26A17007220021304600F0CC
:108C00008DFFE38813B1A378012B04D0E3794BB136
:108C1000A378022B06D1636BA3B1012284F8512201
:108C200008209847334604F5147113F8012F12B940
:108C30009942FAD117466B1E032B53D8DFE803F095
:108C4000050B0F1284F85132ECE7A3791BB194F8AD
:108C5000243003B95FB9E3790BB1002F44D1237AF3
:108C6000002B43D1637A002B0CBF00250425636BD6
:108C7000A570002B3CD0033D012D39D86279002A24
:108C800036D094F85222002A32D184F8542201229C
:108C900084F853220720984704F13C05182200214C
:108CA000284600F03BFFE36A94F824200121581E77
:108CB000884288BF0B4684F83C1084F8513032B1AA
:108CC000884296BFA36A84F8521084F85230A17883
:108CD000002384F8503004291BD8DFE801F0770D19
:108CE000223559000025C2E70225C0E70325BEE76B
:108CF000002384F85332CFE7C4F84432C4E9106348
:108D00000223012284F83C30802384F83120A4F827
:108D10004830A378002B5CD1636B002B6AD1002014
:108D200067E0022384F8313062B1072384F83C30D5
:108D30002369A4F848300023C4F84432E368266469
:108D40006364E6E70323F1E763696364A369A4F856
:108D5000483012B1062384F83C306379B3B194F8FB
:108D600052329BB994F8543283B1022384F85030C4
:108D700004212046FFF720FF0028CAD1052384F8EC
:108D8000313004F50D73C4F84432C2E70323F6E72B
:108D9000E3696364236AA4F8483012B1062384F8B7
:108DA0003C30637983B194F852326BB994F8543201
:108DB00053B1022384F8503004212046FFF7FCFE13
:108DC0000028A6D10623DAE70423D8E784F8313057
:108DD0009FE72A46D4F8441204F15400FFF7E8FE56
:108DE00038B994F8301094F85400FFF7E3FE0028E7
:108DF00092D0F8BD94F83100984790E70820F8E742
:108E000010B50388112B0C460AD0262B1FD0102B2F
:108E100005D1C37B012B02D18388A1F8483210BD54
:108E2000002381F852328288B1F848329A42F6D152
:108E30000B79002BF3D101212046FFF7D3FE002848
:108E4000EDD0A36B002BEAD0BDE810401847037AA1
:108E5000013B012BE3D889780523013191FBF3F322
:108E600003EB8303C91AC9B2E6E77047034B1A88BC
:108E700082420CBF18460020704700BF5CAE002045
:108E8000024B9B6903B11847704700BF40AE0020FA
:108E900013B50B46497A0F4C024669B9D4E9011063
:108EA0001C7A002C18BF01465868FEF7B5F808B1C7
:108EB000FFF7E6FF02B010BD002119726369002BB5
:108EC000F8D00121ADF806008DF8041001A89847EC
:108ED000F0E700BF40AE002030B583880588B3F5C9
:108EE000FA7F24BF6FF4F9729C184A8838BF0024B7
:108EF00095420CD84088904209D38A88A24206D372
:108F000003F2F310904234BF0020012030BD002056
:108F1000FCE7000070B50388112B014648D002D849
:108F2000102B1ED070BD122B52D0502BFAD12F4BCC
:108F3000C288DB899A42F5D1038A022BF2D1868856
:108F40003046FFF793FF05460028EBD001F11200F1
:108F500000F050F830BB6868FEF7A2F80028E1D0B6
:108F600009E0C37B012BDDD14FF6FF70FFF77EFFD9
:108F7000054620B90420BDE87040FFF781BF8E8808
:108F80001B4A0680002303721368C5F80A300A30B2
:108F9000536843601031FFF79FFF144B6872DB8901
:108FA000002BBFD129463046BDE87040FFF770BFA7
:108FB0008088FFF75BFF04460028B3D04068FEF7C7
:108FC0006FF808B1FFF75CFF4FF6FF732380A9E746
:108FD00086883046FFF74AFF05460028A2D00831B0
:108FE0000A30FFF779FF6872DCE700BF40AE00206F
:108FF00070AE0020007800F00100704790DF7047ED
:10900000A5DF7047B5DF70477FB50023ADF80810C6
:10901000ADF80A106A4602A9064603930093ADF81C
:109020000430FFF7EBFF0546F8B1114B114CE41A81
:10903000E408FEF783FE240444F0010403463246AC
:109040000D492046FEF72EFDBDF80020BDF8023088
:1090500002B91BB109492046FEF724FDBDF80420E2
:109060001AB107492046FEF713FD284604B070BD2B
:10907000B81D0300281E030071180300BB1803006D
:10908000FA18030013B5034680880C46A0B91A8865
:10909000232A00F0AF8011D8102A25D0112A54D0ED
:1090A000A37A4BB1E1880020FFF7AAFF002840F027
:1090B000A7800123A072E37202B010BD3A2A4ED0FD
:1090C000552A68D0242AEBD11A7A0B694A73002BEF
:1090D000E6D04DF67A21ADF80400ADF80010ADF8F9
:1090E00002008DF8042081E00A790A73DB7B012BF2
:1090F00013D0022B14D0E18823898B4205D20020A3
:10910000FFF77EFF70B90123E372217B637B8B4203
:10911000C6D20020FFF778FFC2E70B88E380EAE7BA
:109120004B88FBE7112802D10123A372EDE7FEF77C
:1091300005FE3C4A3C4B3D499B1ADB081B0402469A
:1091400043F00100FEF7A4FCDFE7F723CB801723F1
:109150000B8141F6FB338872C8728B81A0E75B8973
:10916000CA88934228BF1346172B0A6938BF1723B2
:109170000B8162B1C97A51B140F67721ADF8001088
:10918000ADF80200ADF80430694620469047002350
:10919000E372A37284E7DB88C988A072172B38BFFB
:1091A00017238B4228BF0B462381FFF72BFF60B1AB
:1091B000FEF7C4FD1B4A1C4B1D499B1ADB081B0410
:1091C000024643F00100FEF763FCE27A002A7FF4D6
:1091D00067AF2369002B3FF463AF40F67721ADF80A
:1091E00002202289ADF80010ADF80420694620461F
:1091F000984755E7197A237B994228BF194689E792
:1092000011283FF459AFFEF799FD064A064B07496E
:109210009B1ADB081B04024643F00100FEF738FCF2
:109220004AE700BFB81D0300281E030050190300C1
:1092300081190300B0DF704766DF704710B5034641
:1092400000214088FFF7F8FF024608B91A7210BDE6
:10925000112801D10122F9E75B68BDE810401847E9
:1092600028B10378DE2B04D14180002070470E2006
:10927000704708207047F0B5054685B00C46F1B13F
:10928000E8B10B78DE2B1AD182884B889A4204D140
:109290000B7A13B10846FFF7D1FF2B88112B32D080
:1092A000512B0ED0012B0AD12B7A012B07D1A98883
:1092B0006288914203D123722046FFF7BFFF05B0B9
:1092C000F0BDAE886388B342F9D1AF79022FF6D1F1
:1092D000AD7B2B1F022BF2D800211022684600F034
:1092E0001DFC052D14BF4FF4C073002369463046A2
:1092F0008DF80070ADF80430FFF79CFF0028DED039
:1093000063689847DBE76388AA889A4204BF4FF6F0
:10931000FF736380D3E70000014B1878704700BFEC
:1093200078AE002007B508496846FEF7B5FC019BFA
:1093300013B903B05DF804FBD3E9002090476846F9
:10934000FEF7C2FCF3E700BFC0190300FFF7EABF56
:1093500061DF704730B5134DADF5017D4FF4FA7400
:109360000DF1020103A8ADF80240FFF7F1FF70B95B
:10937000294601A8FEF790FC029B002BF0D003A821
:10938000D3E90021904701A8FEF79EFCF4E70528E9
:1093900004D0054A40F23911FDF74BFC0DF5017D73
:1093A00030BD00BF281A0300D4190300024B1B78FC
:1093B0000BB1FFF7CFBF704779AE002076DF704763
:1093C0007FDF704786DF70478ADF70478FDF704727
:1093D000B1DF704733DF704737B503881D2B044674
:1093E00000F0AC801DD8132B7CD00AD8102B3DD0B8
:1093F000112B5DD0604B13B12046AFF3008003B05A
:1094000030BD142B00F08C801B2BF3D1037A012B81
:10941000F0D1FFF7DFFF0028ECD0584A4FF4CC71B1
:109420006DE0502B52D00ED8212B00F096803B2BB4
:10943000E0D113218088FFF7C1FF0028DAD04F4A1E
:109440004FF4D0715BE0522B5CD045D3562BD1D179
:109450008379002BCED14A4B13211888FFF7AEFF3A
:109460000028C7D0454A40F2A71148E0444D818802
:1094700044482980FFF7F4FE20B1404A4FF49D7123
:10948000FDF7D7FB00231A4619462888FFF7A0FFEF
:1094900020B13A4A4FF4A171FDF7CBFB3A4800F0F6
:1094A00087FB3A4B002BA5D02046AFF30080A1E705
:1094B000334B37484FF6FF721A8000F079FB354B7B
:1094C000002B97D02046AFF3008093E7324B002B60
:1094D00090D0AFF300808DE7304B002B8AD0AFF3F4
:1094E000008087E7264800231A4685210088FFF779
:1094F00067FF00283FF47EAF204A40F28111FDF75C
:1095000098FB77E71E4800231A4619460088FFF7A4
:109510005FFF00283FF46EAF184A40F28711EEE774
:10952000174800231A4619460088FFF74BFF00280A
:109530003FF460AF114A40F29111E0E7184B0BB1D4
:10954000AFF3008017490020FFF73EFF00283FF4EB
:1095500051AF0A4A40F2C711D1E702A9002321F80E
:10956000043D8088FFF732FF00283FF443AF034AF1
:1095700040F2D111C3E700BF00000000651A0300EC
:10958000F0B30020E8B00020941A030000000000AF
:10959000A41A03000000000000000000000000000A
:1095A00000000000C098002038B50D46044604486D
:1095B00000F0FEFA2A4621460248FDF73AFB38BD84
:1095C000401A0300EFBEADDE0C4B1B78062B10D10A
:1095D0000B4B1B681A070CD10A4B186800F0F003FC
:1095E000302B08D000F0E000A0F140035842584171
:1095F0007047002070470120704700BFE00F00F067
:10960000E40F00F0E80F00F0094B1B78062B0CD19B
:10961000084B1B681A0708D1074B186800F0F000C8
:10962000A0F130035842584170470020704700BFF6
:10963000E00F00F0E40F00F0E80F00F008B5FFF7CE
:10964000C3FF28B17D4B7E4A1B68C3F3042313601C
:10965000FFF7DAFF10B17B4B7B4A1A60FFF7B4FFCC
:1096600028B17A4B7A4A1B68C3F342331360FFF781
:10967000CBFF20B1774AD36823F08073D360FFF724
:10968000A3FF40B14FF080430022C3F80C21C3F880
:109690001021C3F83825FFF7B7FF10B16E4B032236
:1096A0001A60FFF7B1FF40B16C4B05221A6001222E
:1096B0009A6700229A603F225A60694B1B78062BFA
:1096C00050D1684B1B6819074CD1674B1B6803F0DE
:1096D000F003502B46D14FF08052644BD2F8041463
:1096E000C3F82015D2F80814C3F82415D2F80C14C6
:1096F000C3F82815D2F81014C3F82C15D2F8141496
:10970000C3F83015D2F81814C3F83415D2F81C1465
:10971000C3F84015D2F82014C3F84415D2F8241425
:10972000C3F84815D2F82814C3F84C15D2F82C14F5
:10973000C3F85015D2F83014C3F85415D2F83414C5
:10974000C3F86015D2F83814C3F86415D2F83C1485
:10975000C3F86815D2F84014C3F86C15D2F8442445
:10976000C3F87025FFF730FF28B1414B414A1B6811
:1097700003F04F031360FFF727FF48B14FF080431A
:10978000D3F80024D20744BF6FF00102C3F80024CD
:10979000394B1B68062B08D1384B1B68062B01BFC1
:1097A000374A136843F480631360364AD2F888302E
:1097B00043F47003C2F88830BFF34F8FBFF36F8F4D
:1097C0004FF01023D3F80022002A03DBD3F8043231
:1097D000002B2FDA2C4B0122C3F80425D3F80024E8
:1097E000002AFBD04FF010221521C2F80012D3F846
:1097F0000024002AFBD04FF010231522C3F80422C6
:10980000214B1A46D3F800140029FBD00021C3F8DD
:109810000415D2F80034002BFBD0BFF34F8F194949
:109820001A4BCA6802F4E0621343CB60BFF34F8F58
:1098300000BFFDE7164B174A1A6008BD240300104D
:109840004035014074C007400DF0ADBA440200102D
:109850003C050040F0ED00E0A0050040105600403F
:10986000E00F00F0E40F00F0E80F00F000C000404F
:1098700058020010E40E00403001001034010010C6
:109880003C17004000ED00E000E001400400FA0554
:10989000C89800200090D0030649074A074B9B1A3E
:1098A00003DD043BC858D050FBDCFFF7C7FEFCF7D4
:1098B000C7FC0000CC1E0300A898002088A200204E
:1098C000FEE7FEE7FEE7FEE7FEE7FEE7FEE7FEE770
:1098D000FEE7FEE700B50A4C2668054685B01C4643
:1098E000F06852B1074B0091CDE9013206492B4691
:1098F000224600F01DF803F07DF8044B1A46F2E70B
:10990000CC980020B81A0300C81A0300C41A030038
:1099100008B50021044602F0F9FF044B1868C36B38
:1099200003B19847204606F0C7F800BFF81A0300B5
:109930000EB410B583B005AB064C53F8042B01935D
:109940000146206800F030FB03B0BDE8104003B0D2
:10995000704700BFCC98002070B50D4E0D4D761BA2
:10996000B61006D00024013455F8043B9847A642AF
:10997000F9D1094E094D761B06F0B4FEB61006D09B
:109980000024013455F8043B9847A642F9D170BD34
:1099900078A2002078A2002084A2002078A20020D3
:1099A000044B054A1B685B6B002B08BF134693F8FA
:1099B00028017047CC980020F89C002082B049B163
:1099C0005AB16BB113780B601278101C18BF0120CC
:1099D00002B0704701A9002AF3D1104602B07047C7
:1099E0006FF00100F4E700BF844641EA000313F082
:1099F00003036DD1403A41D351F8043B40F8043B96
:109A000051F8043B40F8043B51F8043B40F8043B58
:109A100051F8043B40F8043B51F8043B40F8043B48
:109A200051F8043B40F8043B51F8043B40F8043B38
:109A300051F8043B40F8043B51F8043B40F8043B28
:109A400051F8043B40F8043B51F8043B40F8043B18
:109A500051F8043B40F8043B51F8043B40F8043B08
:109A600051F8043B40F8043B51F8043B40F8043BF8
:109A700051F8043B40F8043B403ABDD2303211D398
:109A800051F8043B40F8043B51F8043B40F8043BD8
:109A900051F8043B40F8043B51F8043B40F8043BC8
:109AA000103AEDD20C3205D351F8043B40F8043B98
:109AB000043AF9D2043208D0D2071CBF11F8013B96
:109AC00000F8013B01D30B8803806046704700BF5C
:109AD000082A13D38B078DD010F003038AD0C3F16B
:109AE0000403D21ADB071CBF11F8013B00F8013B4D
:109AF00080D331F8023B20F8023B7BE7043AD9D30C
:109B0000013A11F8013B00F8013BF9D20B780370E0
:109B10004B7843708B78837060467047F0B486074B
:109B200043D0541E002A3ED0CAB2034602E014F1CC
:109B3000FF3438D303F8012B9D07F8D1032C2BD920
:109B4000CDB245EA05250F2C45EA054516D9A4F105
:109B500010073F0903F1200606EB071603F1100278
:109B600042E9045542E902551032B242F8D104F0FC
:109B70000F040137032C03EB07130DD91E462246B1
:109B8000043A032A46F8045BFAD8221F22F00302A3
:109B90000432134404F003042CB1C9B21C4403F88A
:109BA000011B9C42FBD1F0BC704714460346C5E73D
:109BB0000FB400B5074983B004AB086853F8042B11
:109BC0008168019301F0A4F803B05DF804EB04B0E0
:109BD000704700BFCC98002000290CBF0222002251
:109BE0004FF4806300F000B82DE9F0435D4C256828
:109BF00083B00446884616461F4615B1AB6B002B52
:109C00007ED0022E05D0012E00F2A980002FC0F2D6
:109C1000A680636EDA0735D52146284603F046FF55
:109C2000216B41B104F14003994202D0284604F06F
:109C3000BDF800232363B4F90C3000221806A2619A
:109C4000626061D423F44A6323F00303022EA381EC
:109C50001FD10025616E002004F1430243F002038E
:109C6000A060C9074FF00100A3812260C4E904206D
:109C700004D49B0502D4A06D04F048FB284603B031
:109C8000BDE8F083A3899B05C6D4A06D04F03CFB1E
:109C9000C2E701AB6A462146284604F039FBA38996
:109CA0001843A081002F36D1009F384604F0A8FB4E
:109CB0008046002842D0A38943F08003A381AB6B88
:109CC0007BB3009AB4F90C30C4F80080BA421CBFD0
:109CD00043F40063A381012E04BF43F00103A38179
:109CE0009BB213F00802C4E904871ED1A260656E1E
:109CF00015F00105BDD00025284603B0BDE8F0836E
:109D0000284603F02FFF7CE72169284604F04EF82F
:109D1000B4F90C3096E7B8F1000FC6D0AB6B002B4E
:109D2000CFD1284603F01EFFCBE7DA0704D57F42E8
:109D30000022A761A260DAE7A760D8E7DDF800900B
:109D4000B94504D1B4F90C304FF0FF3582E74846ED
:109D500004F056FB80460028F4D04F46ABE74FF0A6
:109D6000FF358BE7CC98002080EA0102844612F090
:109D7000030F4FD111F0030F32D14DF8044D11F004
:109D8000040F51F8043B0BD0A3F101329A4312F0B7
:109D9000803F04BF4CF8043B51F8043B16D100BF90
:109DA00051F8044BA3F101329A4312F0803FA4F121
:109DB00001320BD14CF8043BA24312F0803F04BFA8
:109DC00051F8043B4CF8044BEAD023460CF8013B15
:109DD00013F0FF0F4FEA3323F8D15DF8044B7047BF
:109DE00011F0010F06D011F8012B0CF8012B002AFD
:109DF00008BF704711F0020FBFD031F8022B12F0EC
:109E0000FF0F16BF2CF8022B8CF8002012F47F4FA6
:109E1000B3D1704711F8012B0CF8012B002AF9D1AE
:109E2000704700BF000000000000000000000000BC
:109E30000000000000000000000000000000000022
:109E400090F800F06DE9024520F007016FF0000C7A
:109E500010F0070491F820F040F049804FF0000422
:109E60006FF00700D1E9002391F840F000F10800FD
:109E700082FA4CF2A4FA8CF283FA4CF3A2FA8CF335
:109E80004BBBD1E9022382FA4CF200F10800A4FA9C
:109E90008CF283FA4CF3A2FA8CF3E3B9D1E90423F0
:109EA00082FA4CF200F10800A4FA8CF283FA4CF327
:109EB000A2FA8CF37BB9D1E9062301F1200182FAE1
:109EC0004CF200F10800A4FA8CF283FA4CF3A2FAE7
:109ED0008CF3002BC6D0002A04BF04301A4612BAF5
:109EE000B2FA82F2FDE8024500EBD2007047D1E9F8
:109EF000002304F00305C4F100004FEAC50514F087
:109F0000040F91F840F00CFA05F562EA05021CBF57
:109F100063EA050362464FF00004A9E72DE9F84F14
:109F20004B6E9C0492462DD59368126843B30E463F
:109F3000074602F1080959E9025B5FEA9B0815D060
:109F4000043D002401E0A0450ED0324655F8041F20
:109F5000384603F0A9FE431C04F10104F3D10023A9
:109F6000CAE90133BDE8F88FDAF808302BF0030BAB
:109F7000A3EB0B03CAF8083009F10809002BDAD16A
:109F80000020ECE704F006F80023CAE90133BDE83D
:109F9000F88F00BF93680BB1FFF7C0BF10B418462D
:109FA00053605DF8044B70472DE9F04FBDB01C467F
:109FB00001919046CDE9050318B1836B002B00F0A9
:109FC000CE83019BB3F90C105B6EDB078AB202D41F
:109FD000970540F13B85960408D40198436E41F4FF
:109FE000005223F400538281436692B2150740F178
:109FF000C780019B1B69002B00F0C28002F01A038E
:10A000000A2B00F093830023CDE91133CDE90C3303
:10A010000DF14C090A930B930293CDF84090CB4677
:10A0200098F80030002B00F04584252B444602D1DF
:10A030001EE0252B03D014F8013F002BF9D1A4EB2F
:10A0400008058DB1DDE9113201332A44072BCBF825
:10A050000080CBF80450CDE9113200F3A6800BF15B
:10A06000080B029B2B4402932378002B00F02284E0
:10A07000002304934FF000021F4663788DF83B20C5
:10A0800004F101084FF0FF3A2B2508F10108A3F174
:10A0900020025A2A00F26683DFE812F0DB02640332
:10A0A0006403D602640364036403FC026403640370
:10A0B000F002EB026403E602200364031B03360193
:10A0C00036013601360136013601360136013601D8
:10A0D0006403640364036403640364036403640348
:10A0E00064034501A6026403640364036403640318
:10A0F000640364036403640364036000640364032F
:10A1000064038A026403760264036403380264030E
:10A110006403640364036403640364036403640307
:10A1200064034501E900640364036403C902E900B0
:10A130005B006403BC0264036302620054025B00C0
:10A1400064038A025D00940064036403CB0064032B
:10A150005D0047F0200798F8003096E747F01007B9
:10A16000BC0640F1D582069B073323F00703D3E9F1
:10A17000004503F10802069227F4806300222FE0D5
:10A18000019D0598294602F051FBA0B1019A536E3A
:10A19000D80703D49389990540F1AD844FF0FF337C
:10A1A000029302983DB0BDE8F08F002A40F01D8474
:10A1B0001192CB4655E7AA8902F01A030A2B7FF4C5
:10A1C00022AFB3E23B469D06069A40F1E381073297
:10A1D00022F0070202F10801D2E9004506910122AE
:10A1E0004FF000018DF83B10BAF1FF3F3CA9009100
:10A1F00000F0C88354EA050123F080075CD1BAF16E
:10A20000000F40F0DA84002A40F0EB8313F00103E2
:10A210003CAE039340F02384039A9DF83B305245B3
:10A22000B8BF52460092002B00F08D8001320092A0
:10A2300089E0C04A0A92BE0640F16D81069A073253
:10A2400022F00702D2E9004502F108010691FE075B
:10A2500009D554EA050206D030228DF83D3047F08A
:10A2600002078DF83C2027F480630222B8E73B46C2
:10A270009E0640F1BE81069A073222F00702D2E91B
:10A2800000010832069204460D46002871F10002D2
:10A2900005DA2D22644265EB45058DF83B203CAA8A
:10A2A000BAF1FF3F009200F0458454EA05014FF0F7
:10A2B000010223F08007A2D0012A00F06783022A5E
:10A2C00000F07B833CA900E03146E20842EA457297
:10A2D000E80804F0070305461446303354EA050243
:10A2E00001F8013C01F1FF36EED1FD0740F1FA82A1
:10A2F000302B00F0F782009A02393023521A06F808
:10A30000013C03920E4687E7A3F13002002118F8C2
:10A31000013B01EB810102EB4101A3F13002092A6B
:10A32000F5D90491B3E6069A4FF0000113688DF851
:10A330003B108DF88C300121131D00910693039181
:10A3400023AE4FF0000A17F00203089302D0009BDF
:10A3500002330093DDE9111217F0840301F1010CBF
:10A360006046079333D1049B009C1C1B002C2EDD00
:10A37000102C714D40F34A84102308E001F1020EC5
:10A380000BF1080B0146103C102C11DD481C10325B
:10A3900007281292CBE900531190EFDD002A40F01C
:10A3A000A582103C102C11464FF0010ECB46EDDC7F
:10A3B0002244BEF1070F1292CBE90054CDF844E0DD
:10A3C00000F3BC820BF1080B0EF1010071469DF801
:10A3D0003B400BF1080C002C00F0ED8101320DF137
:10A3E0003B0401210728CDE91102CBE9004140F3EC
:10A3F000B682002A40F0D181089B002B40F0B58244
:10A4000008460DF1540C1146CB46079B802B00F0FB
:10A41000ED81039BAAEB0304002C2DDD102C474D8E
:10A4200040F3CF834FF0100A06E0881C0BF1080BB5
:10A430001946103C102C11DD4B1C1032072B1292C8
:10A44000CBE9005A1193F0DD002A40F09981103CCD
:10A45000102C4FF001001146CB46EDDC0BF1080348
:10A46000224407281292CBE90054119000F39A82FB
:10A47000013003F1080C9B46039B11901A440728F6
:10A480001292CBE9006340F3F681002A40F0EB81A1
:10A490007C07119231D5049B00995C1A002C2CDDAD
:10A4A000CC46102C1199244D40F3B3831026059F00
:10A4B00006E0881C0CF1080C1946103C102C11DD2C
:10A4C0004B1C1032072B1292CCE900561193F0DD91
:10A4D000002A40F01A82103C102C4FF00100114667
:10A4E000CC46EDDC224407281292CCE900541190AE
:10A4F00040F3C981002A40F0F482029B049A00993B
:10A500008A42ACBF9B185B180293CBE10C4A0A92BB
:10A51000BE063FF593AE0699FD0601F1040200F177
:10A52000B8827C06069940F1B1820C88069200251B
:10A530008DE600BF201B03003C1B03004C1B0300E7
:10A540000C1B03000699AE4B0C680A9347F63002C9
:10A550000431ADF83C2047F00203069100250222A9
:10A560003EE6069AB90652F8043B069200F19E8236
:10A57000FA0600F136837E0600F14D83BD0540F1F9
:10A580003083029A1A704BE547F010039D06069A35
:10A590003FF51DAEDC0602F1040100F171825806A0
:10A5A000069A40F16A82148806910025012217E676
:10A5B000069B1E684FF000028DF83B201C1D002EEC
:10A5C00000F0A082BAF1FF3F00F00F835246002155
:10A5D000304604F0CDF9002800F03983831B039343
:10A5E00006944FF0000A17E647F010039E063FF569
:10A5F00042AE0699DD0601F1040200F138825C06E4
:10A60000069940F13182B1F900400692E5172046E3
:10A6100029463AE698F800306C2B03BF98F80130D1
:10A6200047F0200708F1010847F010072DE598F8DA
:10A630000030682B03BF98F8013047F4007708F129
:10A64000010847F0400720E547F0010798F800307F
:10A650001BE59DF83B2098F80030002A7FF415ADEB
:10A6600020228DF83B2010E598F8003047F00407D1
:10A670000BE58DF83B5098F8003006E5069A98F8FF
:10A68000003011680491002902F10402C0F21F8217
:10A690000692FAE4059E304603F024FE43680C93CC
:10A6A0001846FFF7CDFB0D900446304603F01AFE26
:10A6B00082680B92002C3FF44EAD98F80030002ACF
:10A6C0003FF4E3AC1278002A3FF4DFAC47F4806734
:10A6D000DBE447F0800798F80030D6E498F80030C3
:10A6E0002A2B08F1010100F0C482A3F13002092AEB
:10A6F00088464FF0000A3FF6CAAC18F8013B0AEB57
:10A700008A0A02EB4A0AA3F13002092AF5D9BEE40B
:10A71000069AF80602F1040300F1C3817906069A4D
:10A7200040F1BC8114880693002525E50199B1F913
:10A730000E30002BFFF667AC4B6EDB0704D4970599
:10A7400002D4886D03F0E2FD234642460199059844
:10A7500000F09CFA029002983DB0BDE8F08F03F043
:10A7600001FA2EE4002B00F0A58001228DF88C3038
:10A770004FF0000300928DF83B30039223AEE0E5EA
:10A7800010AA01990598FFF7C9FB002840F09880AE
:10A79000DDE91112CB46481C4BE610AA0199059839
:10A7A000FFF7BCFB002840F08B80DDE911120DF1B2
:10A7B000540C481CCB46089B002B3FF426AE0232BB
:10A7C0000FA902230728CDE91102CBE9001340F3BA
:10A7D000D380002A40F01481079B802B0DF1540C8C
:10A7E0004FF001001146CB467FF413AE049B009C52
:10A7F0001C1B002C7FF70DAE102C024D0CDC2CE244
:10A80000201B03004C1B030001F1020C0BF1080B91
:10A810001946103C102C13DD4B1C10321020072B56
:10A820001292CBF80050CBF804001193ECDD002A13
:10A8300077D1103C102C4FF0010C1146CB46EBDCCD
:10A840000BF108032244BCF1070F1292CBE900542C
:10A85000CDF844C000F3E3800CF1010061469B4653
:10A8600003F1080CD5E510AA01990598FFF756FBEE
:10A8700030BB129ACC46780705D5049B00995C1A28
:10A88000002C3FF70EAE029B049900988142ACBFAA
:10A890005B181B1802932AB110AA01990598FFF7BB
:10A8A0003DFB68B90023119398F80030CB46002B8C
:10A8B0007FF4BBAB129B002B40F0D281002311939D
:10A8C000019B5A6E9B89D10702D49A0540F10381FE
:10A8D0005B063FF563AC02983DB0BDE8F08F039F87
:10A8E000DDF81C80009B9B1B039395E410AA019943
:10A8F00005980993FFF712FB0028E1D1DDE9111259
:10A90000CB4601F1010E099B3DE510AA019938469D
:10A91000FFF704FB0028D3D1DDE91112CC46481C17
:10A92000CBE510AA01990598FFF7F8FA0028C7D1DE
:10A93000DDE91112CB4601F1010C6AE7002A40F073
:10A9400042819DF83B10002900F0B78001210DF1F4
:10A950003B040A461491084613940DF1540C014629
:10A96000E34601300CF1080C25E70FAB0222CDE9DC
:10A97000133208460DF1540C0146E34601300CF148
:10A98000080C42E5012A1F467FF499AC002D08BF50
:10A990000A2C80F0D5803CAE3034012306F8014DFE
:10A9A000039339E4002A42D1039A14920123CDE99A
:10A9B000122611930DF1540C5DE70A983CAE230961
:10A9C00004F00F0143EA05732A091C461546435C4F
:10A9D00006F8013D54EA0503F1D1009B9B1B03934C
:10A9E0001AE4CDF80CA03CAE16E410AA0199059823
:10A9F000FFF794FA00287FF463AFCB46FFF731BB33
:10AA000010AA01990598FFF789FA00287FF458AF3A
:10AA1000DDE911120DF1540C481CCB46F5E4002A77
:10AA200079D10DF1540C01201146CB46F1E410AA66
:10AA300001990598FFF772FA00287FF441AFDDE92C
:10AA400011020DF1540C0130CB4615E5019DA86DA6
:10AA500003F05AFCB5F90C108AB2FFF7BCBA3023E8
:10AA600006F8013DFFF7D8BB980500F1D8800C68C7
:10AA70000692E5172046294607E49F0500F1DC8091
:10AA80001468069101220025FFF7AABBB80500F162
:10AA9000D9800C6806920025FFF7D9BBBE0500F1EE
:10AAA000C680146806930025FFF766BB029A10461D
:10AAB000D117C3E90001FFF7B3BA089B002B40F0A0
:10AAC0009D8011460DF1540C0120CB46A1E4494272
:10AAD00004910692CAE5019CA06D03F017FCA389BE
:10AAE000F6E610AA01990598FFF718FA00287FF4F6
:10AAF000E7AE129AC7E6906D03F008FC4FF0FF3303
:10AB00000293E8E65346062B28BF062303930694D8
:10AB100000935D4E15E410AA01990598FFF7FEF920
:10AB200000287FF4CDAEDDE911120DF1540C481C64
:10AB3000CB466EE4002D08BF0A2C1F46FFF42BAF56
:10AB400007F4806300220397CDF81C803CAE1746C3
:10AB500098460BE00023204629460A2205F042FCD5
:10AB600004460D4654EA05033FF4B9AE0A22002319
:10AB70002046294605F036FC303206F8012C013714
:10AB8000013EB8F1000FE5D00B9B1B78BB42E1D131
:10AB9000FF2FDFD0002D08BF0A2CDBD30D9B0C99B3
:10ABA000F61A1A46304604F02FFD0B9B5F78002FF3
:10ABB000D0D001330B930027CCE7012A7FF47FAB81
:10ABC000E9E663464CE410AA01990598FFF7A6F957
:10ABD00000287FF475AEDDE91112CB46481CFFF763
:10ABE000F6BB029A1A60FFF71BBA30460694FFF7CD
:10ABF00027F94FF0000A0390FFF70EBB0FAB0222BC
:10AC0000CDE9133201200DF1540CB5E6E646FFF70D
:10AC1000CFBB481C66E4029A1A80FFF701BA91F98B
:10AC200000400692E51720462946FFF72EBB147810
:10AC300006930025FFF7A0BA14780691002501229B
:10AC4000FFF7CEBA0C7806920025FFF700BBCDF8CF
:10AC50000CA006948246FFF7DFBA63468446F1E50E
:10AC60000598019910AAFFF759F900283FF426AE7C
:10AC700026E6069898F80130026842EAE27A021D58
:10AC800088460692FFF701BA341B03002DE9F04114
:10AC90000C46ADF58D6D8989666EE589199621F0B2
:10ACA00002010646E069ADF80C1017464FF48061CA
:10ACB000626AADF80E5098461AAD0023079016A8A8
:10ACC00009920693009504950291059103F018FBF3
:10ACD00043463A4669463046FFF766F9051E07DBEC
:10ACE0003046694602F0E2FE002818BF4FF0FF35FB
:10ACF000BDF80C305B0603D5A38943F04003A38164
:10AD0000169803F0FFFA28460DF58D6DBDE8F08129
:10AD10002DE9F04FD7B01C468946174605460390EB
:10AD200003F0E0FA036816931846FFF789F80894D1
:10AD300015901DB1AB6B002B00F00781D9F86410A2
:10AD4000B9F90C20C80793B202D4990540F11F81CC
:10AD50009E040AD4D9F8641042F4005321F400513F
:10AD6000A9F80C30C9F864109BB21D0740F1B280FD
:10AD7000D9F81020002A00F0AD8003F01A020A2A48
:10AD800000F0C98000239FED867B1093CDE92B3323
:10AD90001793CDE919331B93189305932DAB2A9381
:10ADA0009B463B78CDF81C908DED127B002B00F07C
:10ADB0005982252B3C4602D11DE0252B03D014F8E7
:10ADC000013F002BF9D1E51B8DB1DDE92B320133B9
:10ADD0002A44072BCBF80070CBF80450CDE92B3276
:10ADE00000F3CA800BF1080B059B2B4405932378D5
:10ADF000002B00F0378200236678069398468DF882
:10AE00008B3004F1010A4FF0FF392B250AF1010ABA
:10AE1000A6F120035A2B00F22A84DFE813F0AA03DC
:10AE2000280428049C02280428042804A7022804D3
:10AE30002804C602D2022804D702DC022804F60243
:10AE40006D026D026D026D026D026D026D026D028A
:10AE50006D0228042804280428042804280428044F
:10AE6000FB0228043C03F303FB02FB02FB02280461
:10AE7000280428042804EE03280428049A0028043F
:10AE80002804280450032804790328042804900384
:10AE90002804280428042804280428042804280452
:10AEA000FB0228043C03C500FB02FB02FB02D103AA
:10AEB000C50070002804B5032804C2039C00DE030B
:10AEC00070002804500372002C02280428047C021D
:10AED000280472004946039801F0A8FCA0B1D9F8F3
:10AEE0006430D80704D4B9F80C30990540F1B78321
:10AEF0004FF0FF330593059857B0BDE8F08F48F049
:10AF000020089AF8006081E7B9F80C3003F01A02C3
:10AF10000A2A7FF437AFB9F90E20002AFFF632AFC4
:10AF2000D9F86420D20705D49B0503D4D9F858007A
:10AF300003F0ECF923463A464946039801F026FC13
:10AF40000590059857B0BDE8F08F039802F00AFE0F
:10AF5000F4E648F0100818F0200F00F06C83089C0D
:10AF6000073424F00703D3E9004503F108020892EF
:10AF700028F4806300228CE12AAA07990398FFF73E
:10AF800009F8002841F076830DF1B40B2CE7D9F8CD
:10AF9000580003F0B9F9B9F90C2093B2D8E600BF14
:10AFA000000000000000000043469F0640F12F8390
:10AFB000089C073424F00704D4E9000104F10802D6
:10AFC000089204460D46002871F1000205DA2D2290
:10AFD000644265EB45058DF88B2056AAB9F1FF3F19
:10AFE000049200F0B284012254EA050123F08008A3
:10AFF00040F05981B9F1000F40F01986002A40F065
:10B00000088513F0010356AF099302D0302307F8E7
:10B01000013D00230A930F9314931193099B9DF80C
:10B020008B204B45B8BF4B46049312B1049B0133B0
:10B03000049318F002030B9302D0049B0233049391
:10B0400018F084032C9C0E933FD1069B04995D1A43
:10B05000002D3ADD102D2B9A29DD594620462096E9
:10B060001023039C079EBB4604E0103D102D01F108
:10B07000080118DD0132BA4F1030072ACDE92B2024
:10B08000C1E90073F1DD2AAA314620460C93FEF790
:10B0900081FF002840F03D84103D102DDDE92B207C
:10B0A0002DA90C9BE6DC209E5F4604468B460132B0
:10B0B000AB4B2C44072ACDE92B24CBE9003500F318
:10B0C000FF849DF88B200BF1080B72B12B9A013293
:10B0D00001340DF18B000121072ACDE92B24CBE9A6
:10B0E000000100F318840BF1080B0B9B6BB12B9B39
:10B0F0000133023423A90222072BCDE92B34CBE9FB
:10B10000001200F315840BF1080B0E9B802B00F04E
:10B110003183099BA9EB0305002D37DD102D2B9AF8
:10B12000904B28DD59462046BB464FF01009374664
:10B130001C46079E04E0103D102D01F1080115DDAD
:10B1400001321030072ACDE92B20C1E90049F2DD98
:10B150002AAA31460398FEF71DFF002840F0D98344
:10B16000103D102DDDE92B202DA9E9DC3E462346BC
:10B170005F4604468B4601322C44072ACDE92B2436
:10B18000CBE9003500F3EF830BF1080B18F4807F57
:10B1900040F080822B9B099ACBF800700133144455
:10B1A000072B2C94CBF804202B9300F392830BF104
:10B1B000080B18F0040F3BD0069B049A9D1A002D33
:10B1C00036DD102D2B9B21DD1026039FDDF81C8022
:10B1D00004E0103D102D0BF1080B17DD0133604A20
:10B1E0001034072BCDE92B34CBE90026F1DD2AAA58
:10B1F00041463846FEF7CEFE002840F06C85103DF3
:10B20000102DDDE92B340DF1B40BE7DC0133544A8A
:10B210002C44072BCDE92B34CBE9002508DD2AAAE5
:10B2200007990398FEF7B6FE002840F0E9822C9CAF
:10B230000499DDE905328A42ACBF9B185B1805937F
:10B24000002C40F0D58200232B930A9B1BB10A9956
:10B25000039802F0ABFD0DF1B40B57463B78002B81
:10B260007FF4A7AD2C9BDDF81C90002B41F0E7800C
:10B2700000232B93CBE243469A0640F14E81089C73
:10B28000073424F0070202F10801D2E900450891D1
:10B29000012200218DF88B10B9F1FF3F56A90491CE
:10B2A0007FF4A2AE9846012A00F05083022A00F0F3
:10B2B0001B8356A900E03946E20842EA4572E808D5
:10B2C00004F0070305461446303354EA050201F83A
:10B2D000013C01F1FF37EED118F0010F00F01483AB
:10B2E000302B00F01183049A02393023521A07F8E8
:10B2F000013C09920F468CE6A6F1300300221AF8B1
:10B30000016B02EB820203EB4202A6F13003092B30
:10B31000F5D906927CE5144B179318F0200F00F036
:10B320001481089C073424F00703D3E9004503F196
:10B330000802089218F0010F09D054EA050306D05C
:10B3400030238DF88D6048F002088DF88C3028F499
:10B35000806302229DE748F001089AF8006055E5F5
:10B36000701B0300801B0300201B0300039E30465C
:10B3700002F0B8FF436818931846FEF761FD1B9072
:10B380000446304602F0AEFF83681A93002C3FF467
:10B39000B8AD9AF80060002B3FF438AD1B78002B55
:10B3A0003FF434AD48F4806830E5089B9AF80060BB
:10B3B0001A680692002A03F10403C0F297860893E4
:10B3C00024E58DF88B509AF800601FE59AF800602C
:10B3D00048F004081AE59AF800602A2E0AF10102E2
:10B3E00001F0B081A6F13003092B92464FF000091D
:10B3F0003FF60EAD1AF8016B09EB890903EB490919
:10B40000A6F13003092BF5D902E548F080089AF837
:10B410000060FBE4089C073424F0070494ED007BF3
:10B4200052EC171B22F000431D938DED1C7A08345B
:10B43000DDE91C014FF0FF32BA4B08948DED127B11
:10B4400004F092FF002840F06F844FF0FF32B54BBC
:10B45000DDE91C0104F06AFF002840F06584002249
:10B460000023DDE9120104F057FF002840F05B855E
:10B470009DF88B20AC4FAD4B0020032104910A9026
:10B4800028F08008472ED8BF1F46099181460F90AB
:10B4900014901190C9E50898002301688DF88B304D
:10B4A0001A468DF8F4100123011D04930A92914667
:10B4B0000F9214921192CDE908133DAFB9E5089BA4
:10B4C0001F6800258DF88B501C1D002F00F0398659
:10B4D000B9F1FF3F00F011874A462946384603F08C
:10B4E00047FA0A90002800F0E7850A9BDB1B0993C6
:10B4F000A94623EAE37308940493CDF82890CDF885
:10B500003C90CDF85090CDF844909DF88B208CE580
:10B5100048F010039A063FF5B2AE089ADF0602F132
:10B52000040100F17E835D06089A00F1E4849C0525
:10B5300040F177831478089100250122A9E67C4B1D
:10B54000179318F0200F7FF4ECAE089A18F0100F44
:10B5500002F1040340F0548318F0400F089A40F0C1
:10B56000D08418F4007F00F04B83147808930025F2
:10B57000E0E69DF88B309AF80060002B7FF446AC33
:10B5800020238DF88B3041E49AF800606C2E03BFC5
:10B590009AF8016048F020080AF1010A48F0100802
:10B5A00034E4089A18F0200F52F8043B089200F097
:10B5B000A183059A1046D117C3E9000157464DE60D
:10B5C0009AF80060682E03BF9AF8016048F400788A
:10B5D0000AF1010A48F0400818E40899554B0C6834
:10B5E000179347F630020431ADF88C2048F002037F
:10B5F00008910025022278264BE648F008089AF8C0
:10B60000006003E448F010039F063FF5D1AC0899B1
:10B61000DD0601F1040200F1FD825C06089900F1EB
:10B620007584980540F1F68291F900400892E5177B
:10B6300020462946C7E4089A18F0100F02F10403C7
:10B6400040F0E38218F0400F089A40F0678418F445
:10B65000007F00F0DA8214780893002588E4D9F896
:10B66000580002F053FE4FF0FF33059343E4002EE1
:10B670003FF4F8AD002301211A4604918DF8F460DF
:10B680008DF88B300A9399460F9314931193099177
:10B690003DAFCEE4652E40F3CA8000220023DDE9F1
:10B6A000120104F02FFE002800F069812B9B224A32
:10B6B000CBF80020013301340122072BCDE92B34D4
:10B6C000CBF8042000F306840BF1080B249B109A9E
:10B6D0002C9C934203DB18F0010F3FF46AAD2B9BC7
:10B6E000169ACBF80020159ACBF8042001331444A5
:10B6F000072BCDE92B3400F317850BF1080B109BBA
:10B700005D1E002D7FF755AD102D2B9A0B4B40F38E
:10B71000E782194610262346039FDDF81C900C464D
:10B7200014E000BFFFFFEF7F601B03005C1B030002
:10B730000C1B0300201B03006C1B0300801B030079
:10B740000BF1080B103D102D40F3C782013210336E
:10B75000072ACDE92B23CBE90046F1DD2AAA494689
:10B760003846FEF717FC00284CD1DDE92B230DF1FC
:10B77000B40BE7E7069B049A9D1A002D7FF7C9AC2E
:10B78000102D2B9ABC4B27DD59462046BB461C4644
:10B790003746079E04E0103D102D01F1080116DD2B
:10B7A000013210301023072ACDE92B200C604B60AA
:10B7B000F1DD2AAA31460398FEF7ECFB002840F0A1
:10B7C000A880103D102DDDE92B202DA9E8DC3E4698
:10B7D00023465F4604468B4601322C44072ACDE9B6
:10B7E0002B24CBE9003500F392820BF1080B90E497
:10B7F0002AAA07990398FEF7CDFB00283FF423AD52
:10B80000DDF81C900A9911B1039802F0CFFAD9F82B
:10B810006420B9F80C30D00702D4990540F1D081EA
:10B820005A063FF565AB059857B0BDE8F08F109A02
:10B830002B9B012A04F1010403F101050BF1080619
:10B8400040F31C810123072DCBF80070CDE92B5468
:10B85000CBF8043000F3BB81159B169A691C1C447D
:10B8600007290B91CDE92B14C6E9002300F3BB8116
:10B8700008360B9A531C1D460995109D0E93002205
:10B880000023DDE9120105F1FF3906F1080B04F090
:10B8900039FD002840F0C280099DC6F804900137A8
:10B8A0004C44072D37602C942B9500F3F9800B9AAC
:10B8B00006F1100302325E4609929B46199A7260A5
:10B8C0001444099A2C9426AB072A2B9233607FF7F5
:10B8D00070AC2AAA07990398FEF75CFB00288FD169
:10B8E0002C9C0DF1B40B64E4179856AF230904F0B7
:10B8F0000F0143EA05732A091C461546435C07F805
:10B90000013D54EA0503F1D1049BDB1B0993FFF7CA
:10B9100080BBB14676E72AAA07990398FEF73AFB5F
:10B9200000287FF46DAF2C9C0DF1B40BFFF7DDBB4D
:10B930002AAA07990398FEF72DFB00287FF460AF31
:10B940002C9C0DF1B40BFFF7E0BB9846002D08BF0F
:10B950000A2C80F0708156AF3034012307F8014D76
:10B960000993FFF756BB2AAA07990398FEF712FB23
:10B9700000287FF445AF2C9C0DF1B40B06E4249B0A
:10B98000002B40F37382DDE910239342A8BF1346D6
:10B99000002B1D460DDD2B9BCBF8007001332C4492
:10B9A000072B2C94CBF804502B9300F3C1820BF19E
:10B9B000080B119B002DA8BF5B1B002B1D4640F3FD
:10B9C0009980102D2B9A2C4B40F3DB83184621468F
:10B9D0005B461026BB46DDF80C90079C074604E04A
:10B9E0000833103D102D40F3C78301321031072A70
:10B9F000CDE92B21C3E90076F2DD2AAA214648468B
:10BA0000FEF7C8FA002840F0A584DDE92B212DAB14
:10BA1000E7E7CDF8249056AFFFF7FBBAB9F1000F76
:10BA20007FF74CAFB9F1100F134B40F3598619460D
:10BA3000224633461027DDF80CB0079C0E9D0E46BB
:10BA400007E00833A9F11009B9F1100F40F353834F
:10BA500001351032072DCDE92B52C3E90067F0DD27
:10BA60002AAA21465846FEF795FA002840F072842B
:10BA7000DDE92B522DABE5E7801B030018F0010F29
:10BA80007FF4E0AE0122072DCBF80070CDE92B54F6
:10BA9000CBF8042004DC023309930BF1100B0DE703
:10BAA0002AAA07990398FEF775FA00287FF4A8AE32
:10BAB000DDE92B34013309930DF1BC0B2DAEFDE60E
:10BAC0002AAA07990398FEF765FA00287FF498AE32
:10BAD0009DF88B202C9C0DF1B40BFFF7F6BA2AAA27
