:020000022000DC
:1060000000000120419B0200699B020035740200E0
:106010006D9B02006F9B0200719B0200000000005C
:10602000000000000000000000000000739B020060
:10603000759B020000000000779B0200799B020024
:10604000918002007B9B020049850200A98C02001E
:106050003D8802007B9B0200BD8302009186020006
:10606000798C0200898C02007B9B02007B9B0200E2
:106070007B9B02007B9B02007B9B02007B9B0200C0
:106080007B9B0200816F02007B9B02007B9B0200D6
:106090001D7002007B9B0200F59502007B9B0200B5
:1060A0007B9B02007B9B02007B9B02007B9B020090
:1060B000498602007B9B02000000000000000000F7
:1060C0007B9B020059860200698602007B9B0200CE
:1060D0007B9B02007B9B02007B9B02000000000078
:1060E00000000000000000000000000000000000B0
:1060F00000000000000000000000000000000000A0
:10610000000000000000000000000000000000008F
:10611000000000000000000000000000000000007F
:10612000000000000000000000000000000000006F
:10613000000000000000000000000000000000005F
:10614000000000000000000000000000000000004F
:10615000000000000000000000000000000000003F
:10616000000000000000000000000000000000002F
:10617000000000000000000000000000000000001F
:10618000000000000000000000000000000000000F
:1061900000000000000000000000000000000000FF
:1061A00000000000000000000000000000000000EF
:1061B00000000000000000000000000000000000DF
:1061C00000000000000000000000000000000000CF
:1061D00000000000000000000000000000000000BF
:1061E00000000000000000000000000000000000AF
:1061F000000000000000000000000000000000009F
:1062000010B5054C237833B9044B13B10448AFF3F0
:1062100000800123237010BDA0A200200000000018
:10622000A41C030008B5034B1BB103490348AFF39B
:10623000008008BD00000000A4A20020A41C0300F0
:10624000154B002B08BF134B9D46A3F5803A002148
:106250008B460F461348144A121A04F065FE0F4B82
:10626000002B00D098470E4B002B00D09847002001
:10627000002104000D000D48002802D00C4806F053
:10628000EDFF04F04BFA2000290000F013F803F0B2
:1062900075FC00BF000008000000012000000000A5
:1062A00000000000A0A2002014B200205DD2020075
:1062B000D1E102002DE9F04FADF5017D00F000F9CC
:1062C000012200238DF80D208DF80C208DF80B2075
:1062D00002A802228DF80E308DF810308DF80920BA
:1062E0008DF8083000F0EEF86248634D04F088FE47
:1062F0004FF4FA6445F001054FF47A40A847013C99
:10630000FAD105A800F02AF99DF80E109DF81A2080
:10631000914224D19DF810009DF81C3098421ED166
:106320009DF80D009DF81930984218D19DF80C0089
:106330009DF81830984212D19DF80B009DF8173047
:1063400098420CD19DF809009DF81530984206D16D
:106350009DF808009DF81430984200F08880474866
:1063600004F04EFE9DF81C209DF81010444804F0E7
:1063700047FE9DF819209DF80D10424804F040FE9C
:106380009DF818209DF80C103F4804F039FE9DF848
:1063900017209DF80B103D4804F032FE9DF81520A3
:1063A0009DF809103A4804F02BFE9DF814209DF842
:1063B0000810384804F024FE3748384FDFF8F080E2
:1063C00004F01EFE08AB0C934FF47A71344804F0CD
:1063D00017FE4FF47A744FF47A40A847013CFAD183
:1063E000384604F00DFE0CA800F0FBF80446002827
:1063F000EAD10C99DFF8BC900B7B0093D1E9012323
:1064000040460968DFF8B0A0DFF8B0B004F0F8FD4E
:10641000244804F0F5FD0EAE9DF83830A342D3DDDC
:106420002146484604F0ECFDF6E90223504604F00C
:10643000E7FD9DF80831A3420CDD0CAB03EB041122
:10644000584691F8E8300093D1E93823D1F8DC10B0
:1064500004F0D6FD0CAB1A1903EB840392F8C420A8
:10646000D3F88810104804F0CBFD0134D4E70F486E
:10647000A3E700BF6602030060020300820203007C
:10648000B0020300DE0203000C0303003A03030022
:106490006803030096030300C4030300F903030029
:1064A000A70503001D0403004E040300DD030300E1
:1064B0000D04030034040300390403004004030006
:1064C00000F010BAF0B5ADF5037D40F20523ADF84C
:1064D000083083794778002B437914BF8026002643
:1064E000002B837814BF40250025002B037914BFAF
:1064F0002024002407F00307002BC3783E4414BF78
:10650000102100213544002B03782C44214414BF72
:1065100008220022002B0A4414BF04230023134442
:106520008DF80A30C379002B037A14BF04220022AD
:10653000042103F0030313448DF8051002A80DF1A4
:1065400005018DF80B3000F0DBF903220DF1060197
:1065500042A800F0D7F90DF5037DF0BD10B5ADF5FB
:10656000027D02238DF8053008230DF10501044654
:106570000DEB0300ADF8083000F0C2F907220DF171
:10658000060142A800F0BEF948BB9DF80E31C3F3E6
:106590004012E272C3F30012A272C3F3C00262722D
:1065A000C3F3800203F0030323729DF80D31E271FF
:1065B000DA09A271C3F380126271C3F34012A270B0
:1065C000C3F300122271C3F3C002E270C3F380026E
:1065D00003F00303227063700DF5027D10BD0120EE
:1065E000FAE72DE9F047ADF5027D02238DF805307D
:1065F0000DF105010C23064642AC02A8ADF80830A7
:1066000000F07EF9FF220DF10601204600F07AF934
:1066100020B101200DF5027DBDE8F087BDF8063000
:10662000142BF6D9E378412B26D1A179637932680E
:1066300003EB0123E17903EB0143217A03EB0163CF
:106640001360A17A637A326803EB0123E17A03EBEA
:106650000143217B03EB01635360A17B637B3268C1
:1066600003EB0123E17B03EB0143217C03EB01639B
:1066700093603368627C1A73A37C482B3DD1217DE3
:106680003172002315220D2786F8D83006F1880EC6
:1066900006F1C40C06F1100317FB01279742D5B28F
:1066A000B8D000214FF000084FF000096E18F6B284
:1066B0004FEAC10AA65D06FA0AF618EB060801F1D0
:1066C000010149EBE6790829F0D1E3E802890835B0
:1066D0000021EDB20E4605F10108655D8D400831DF
:1066E00020292E445FFA88F5F5D1A1184EF8046BE5
:1066F000097B0CF8011B0D32D0E7492B89D194F8A6
:1067000014A086F808A086F8D8A00AEB8A0A4FEAF7
:106710008A0A0AF1150A06F1880506F1C40C334607
:1067200006F1100E5FFA8AFA152252453FF472AF55
:10673000561CF6B20027A65D4FEA16694FEA0628F6
:10674000A65C16EB080647EB0907EEE80267911C0A
:106750000026C9B2374601F10108615CB140083634
:10676000202E0F445FFA88F1F5D1911DD61DF6B2A7
:10677000C9B245F8047BA719615C0CF8011B97F8B6
:106780000180A15DBE7801EB082101EB0641FE7896
:1067900001EB066102F10B06F6B2A719C3F8DC1093
:1067A00097F80180A15DBE7801EB082101EB06415D
:1067B000FE7801EB066102F10F06F6B2A719C3F8E5
:1067C000E01097F80180A15DBE7801EB082101EB94
:1067D0000641FE7801EB0661C3F8E41002F11301F3
:1067E000C9B21432615C83F8E810D2B210339CE76E
:1067F00038B5044638B1044D45F001054FF47A40F0
:10680000A847013CFAD138BD600403000FB482B040
:1068100003AB019302B004B07047000010B5064C02
:10682000206840B90549064804F0EAFB05490348D9
:1068300003F036FC206010BDBCA20020A898002008
:10684000660403007B0403000FB413B504AB53F8D4
:10685000044B0193FFF7E2FF019A214606F0BEFBCD
:10686000FFF7DCFF03F0DAFA02B0BDE8104004B035
:10687000704700000749084840F60D330B800C2391
:106880008B70064B8B6000231A460B734B7300F022
:10689000CBBF00BFB0980020C098002000127A0043
:1068A000002070471FB5C9B20090019100226946CF
:1068B0000348CDE9022202F001F905B05DF804FBBE
:1068C000C49800201FB5C9B2002202900391044869
:1068D0006946CDE9002202F0F1F805B05DF804FB4D
:1068E000C498002008B5FFF7DBFF01460348FFF717
:1068F0008DFFBDE8084000F053B800BFEF0403006F
:10690000FFF7D0BF00F07AB810B50278402A05D062
:1069100009490A48FFF77AFF012010BD4478012C8D
:1069200003D0224604490648F4E7827812B10249AE
:106930000448EFE71046F0E77D04030085040300F8
:10694000A9040300CF040300F7B5FF2302AD8DF8BF
:106950000630012305F8013DFFF7A2FF01460D486F
:106960000D4E0E4FFFF752FF0424013C01D103B03E
:10697000F0BD29460DF10600FFF794FF3068FFF7E0
:1069800037FFFFF78DFF326801463846FFF75CFF9F
:10699000EBE700BF78050300D49800209F050300B3
:1069A00038B5FFF77DFF0128044605DD01460D4897
:1069B000BDE83840FFF72ABF0B4D2B5C13B10146F1
:1069C0000A48F5E7FFF756FF094B4FF47A721A6051
:1069D000084B0A221A60FFF7B7FF01232B55214607
:1069E0000548E5E710050300C0A2002028050300C4
:1069F000D0980020D49800204E0503002DE9F04FD8
:106A0000434E85B08846834691463768FFF748FF76
:106A1000404B1B5C0446014623B93F48FFF7F6FE96
:106A2000012570E0B9F1020F01D83C48F6E73C4877
:106A30003C4DFFF709FF0122002103A804F074FA7E
:106A40004FF0010A9DF80C20C2B9002F06DC15D0CA
:106A5000326835482146FFF7D9FEE1E72868FFF79D
:106A6000C7FE2A6831482146BF1AFFF7EDFE04A988
:106A700003A801F801ADFFF725FFE3E70023294D47
:106A8000A8F8003021462A48FFF7DEFE2868FFF705
:106A9000AFFED5F800A0254852462146FFF7D4FEA8
:106AA00003A95846FFF70EFFB8F800209DF80C30F8
:106AB0001344A8F800302B680A205843FFF798FECB
:106AC0002A681A482146FFF7BFFE5846FFF71CFF09
:106AD00005460028A4D1B8F800203368A7EB0A07C0
:106AE0004A45A3EB07030AD0B9F1FF0F07D0009383
:106AF000214613460F484A46FFF788FE90E7214695
:106B00000D48FFF7A1FE284605B0BDE8F08F00BF95
:106B1000D0980020C0A20020B6050300EF050300B6
:106B200024060300D4980020390603009F050300C3
:106B3000850603009A060300E906030038B5054DF3
:106B4000044645F001054FF47A40A847013CFAD1CC
:106B500038BD00BFD00703007FB505460E4614467A
:106B600072B601F017F900F063FF0028FBD13E4830
:106B700004F046FA41F201039D4264D006D8012D8B
:106B800012D03146394804F03BFA10E044F20103D8
:106B90009D425AD044F202039D42F2D1228861689C
:106BA000334804F02DFA02E0324804F029FA01F0EB
:106BB00011FB08B901F0D8FA0023ADF80C308DF8BC
:106BC0000E3003A9012319208DF80D3001F00CFBC4
:106BD00003A9182001F008FB03A9172001F004FB0A
:106BE000192001F0BDFB182001F0BAFB172001F0BD
:106BF000B7FB4FF4FA70FFF7A1FF192001F082FBF9
:106C0000182001F07FFB172001F07CFB3220FFF7FA
:106C100095FF192001F0A4FB182001F0A1FB17201B
:106C200001F09EFB4FF4FA70FFF788FF192001F086
:106C300069FB182001F066FB172001F063FBFA20C6
:106C4000FFF77CFFCCE70C48AFE7A568284601F0CA
:106C5000C9F92368019600930246636807482946EC
:106C600004F0CEF9A3E700BF13070300B007030049
:106C70006B0703002C070300490703008607030086
:106C800007B501F0A7FA08B901F06EFA0023ADF8D4
:106C900004308DF8063001A9012319208DF8053044
:106CA00001F0A2FA01A9182001F09EFA01A917200B
:106CB00001F09AFA192001F053FB182001F050FB63
:106CC000172001F04DFB4FF4FA70FFF737FF192042
:106CD00001F018FB182001F015FB172001F012FB42
:106CE0003220FFF72BFF192001F03AFB182001F0AA
:106CF00037FB172001F034FB4FF4FA70FFF71EFF4B
:106D0000192001F0FFFA182001F0FCFA172001F019
:106D1000F9FAFA20FFF712FFCCE70369C1688B424A
:106D20009DBF8268D21802F1FF3203F1FF3394BF96
:106D3000501A581A70472DE9F041D0E9026704460D
:106D4000F61B4068964288461546384405D904F03B
:106D500051F83D44E560BDE8F0813246AD1B04F0DA
:106D600049F82A4608EB0601606804F043F8F1E7A9
:106D70002DE9F843C5680646894617464FF00008D6
:106D80003469B3687068A54228BFE418013C621BEF
:106D90005C1BBC4228BF3C46944228BF144649466F
:106DA0002844224604F026F8B3682544AB4208BFC5
:106DB00000253F1BA044A144F560E1D14046BDE859
:106DC000F883000010B5114C114AA2610223C4E9F6
:106DD0000433104BE361A2644FF400730E4A236244
:106DE000E264002310220D49A362E01D6362E362A6
:106DF000A3656365E365226504F0CAFA0849204685
:106E000004F0C6FA2023A37110BD00BF64B10020B6
:106E1000D6070300F0A40020E0A40020DF07030051
:106E2000E3070300F8B5184C182300FB033503FBF8
:106E300000402544C46A012C0F46164611D003D3E6
:106E4000022C1BD000240AE02846FFF766FF86428A
:106E500005D8324639462846FFF76DFF34462046AE
:106E6000F8BD2846FFF759FF8642344628BF04463E
:106E7000224639462846FFF75EFFF0E72846BDE880
:106E8000F840FFF775BF00BF64B1002073B50D4B2C
:106E90001B7804460D4616460BB9FFF793FF02A870
:106EA000002300F8013D00F06DFA324629462046E5
:106EB000FFF7B8FF04469DF8070000F093FA20465C
:106EC00002B070BD64B1002010B511461C461A46D0
:106ED0000020FFF7DBFF204610BD00B583B0029015
:106EE0000091019244F2010071466A46FFF734FEB8
:106EF00003B000BD094A537891780133DBB299425F
:106F000008BF0023117899421FBF037050781823DF
:106F100003FB002014BF043000207047F0A60020BF
:106F200073B5054602A8002400F8014D0E4600F096
:106F300029FA0DF10600FFF7DDFF90B106700A4B4C
:106F40009DF8062045605A709DF8070000F04AFA47
:106F500024B9064B4FF48012C3F80021204602B03A
:106F600070BD0424F0E700BFF0A6002000E100E0BF
:106F7000024B4FF43C6043F001031847F007030055
:106F8000F8B51F491F4B0025C1F84051C1F84451C5
:106F9000C1F84851C1F84C51C1F80051C1F8045131
:106FA0001B684BB3D1F8044517490968641A24F0EB
:106FB0007F442F461A68A24209D8A41A15441A7CA5
:106FC000DE691AB11F74D3E905209047AEB90F4BA3
:106FD0000F4A197813788B4205D10133DBB2022BAB
:106FE00008BF0023137012780A4B43F822500A4B53
:106FF0004FF48012C3F80021F8BD3346DAE700BF32
:107000000010014010A800200CA8002008A80020B3
:1070100009A8002000A8002000E100E02DE9F74FBA
:107020009C4A9D49137809789C4D99423CD0013384
:10703000DBB2022B08BF0023137099491278994BD9
:107040000F6853F822003B1823F07F4300220B60A7
:107050002B6816461446944613B942B12B6006E0DD
:10706000196881420ED902B12B60091A19604FF0DC
:1070700001082B68DFF834A200930027BEB9DFF8BF
:1070800034B260E0401A0C44D968C3F800C0D3F8A9
:107090001CE031B13A1922F07F42C3E90121DE61DF
:1070A0001E4601227346D7E70026B046E1E7344684
:1070B000F6697B4A63681268DFF8FCC1A068991A18
:1070C00021F07F41614500F2A58001442160012249
:1070D00022742A680023C4E90133E361002A40F0E6
:1070E000A2802C60CAE75A1C9BF80210D2B29142CF
:1070F0008BF8002004BF00228BF80020182202FB2E
:1071000003B32A6819799C68022974D003297ED0B8
:10711000012918D1217CB1B9DA6862601A69A260CC
:107120005A69E2609B69A3615F4B1B78002BC0D05A
:107130006160BEE79C4200F090809946DB69002BBD
:10714000F8D1002323749BF800309BF801209A4269
:10715000C9D12B682FB9009A934202D1B8F1000F20
:1071600043D0002B41D0D3F800A0504D4C4BD5F864
:1071700004751C68DFF844813E1B98F8003026F047
:107180007F4603369BB94FF48033C5F84433C5F8C6
:107190000433474B4FF400324FF00109C3F880210C
:1071A0001A60C5F80090FFF7E3FE88F80090B2453A
:1071B0002CBF5444A41924F07F44C5F84045D5F8A9
:1071C0000435DB1B23F07F43E41B033324F07F44AF
:1071D000A3420AD9D5F80435C5F84035FFF7C8FEF3
:1071E000334B4FF40032C3F800212F4B00221A70AA
:1071F00003B0BDE8F08F13469146A0E71174D26941
:107200000123002AFAD1002B9DD02A609BE700239E
:107210001946F6E7D31A23F07F43834234BFC31ADB
:107220000023236053E721681368994213D8591A41
:107230001160E26155E7091AD8691A4638B1034668
:1072400018688842F7D3401A186018461346216020
:10725000E061DC6112E71346F2E74C450DD1D369DA
:107260002B6053B90E4801920121CAF8081003603F
:107270000D4B1970FFF77CFE019AE1692368C9F88C
:107280001C1011B1086803440B602B689A4218BFA8
:10729000012756E708A8002009A8002010A8002010
:1072A0000CA8002000A80020FCA70020001001402E
:1072B00000E100E0F0A60020FEFF7F00FDA7002017
:1072C0002DE9F7431D4FBB7805460E4690469BB30C
:1072D00090B304292ED9436973B3437C02A80024D8
:1072E000012B00F8014D0CBF8946A14600F04AF879
:1072F0000DF10600FFF7FEFDD0B101230370104B26
:107300004560D3F80435C0E90498C0E902369DF819
:1073100006307B709DF8070000F064F824B9094B33
:107320004FF48012C3F80021204603B0BDE8F0837B
:107330000424EFE70724F7E70824F5E7F0A6002088
:107340000010014000E100E0064A92783AB130B105
:10735000426922B1002202740221FFF7E1BD082038
:10736000704700BFF0A60020EFF30583C3F30803C6
:107370002BB9EFF31480C04300F0010070470120E7
:107380007047000070B50446FFF7EEFF012803D0F8
:107390001049432002F05CFAEFF3108672B60E4AF1
:1073A0009068012398B993600C4B0D4DD3F8801071
:1073B00029401160C3F88050D3F8841051604FF019
:1073C000FF32C3F88420207006B962B670BD237006
:1073D000FAE700BFF6070300DCB1002000E100E09F
:1073E000FC06FFBD10B50446FFF7BEFF012803D021
:1073F0000949512002F02CFA084B9A685AB154B945
:10740000EFF3108172B6064A186810605868506031
:107410009C6001B962B610BDF6070300DCB1002024
:1074200000E100E0024B1B680021986803F0A4BE55
:10743000E49800201EF0040F1CBFEFF309800AE05F
:10744000EFF308800549064A884201D8904202D8E5
:107450008D464FF00000034B18470000000001204C
:1074600000E00020697402002DE9F347054600F0B2
:1074700091FC00F0DDFA0028FBD12F4B2F4C9F6AC6
:107480002F4BE41AE408240444F00104002D4ED0EC
:10749000AA692C49204600F04FFCEB680193AB68C9
:1074A00000932949D5E90023204600F065FCEB69EB
:1074B00000932649D5E90423204600F051FC1E4BD9
:1074C000DB6A980703D52249204600F031FCDFF83B
:1074D0009490DFF894A000264FF0010808FA06F314
:1074E0003B4206D059F826201AB15146204600F0FA
:1074F00023FC01361A2EF1D1390605D50E4B15495C
:107500005A6B204600F018FC3A0405D50A4B124984
:107510009A6B204600F010FC104B1B68DB0700D56F
:1075200000BE2846FFF7ACFB02B0BDE8F0870C496F
:10753000204600F0FDFBC2E700ED00E0201D030047
:10754000B81C03004B080300600803009508030003
:10755000F00803003F0903005F090300F0ED00E0BD
:10756000BD0803007C0903003409030050E8002F24
:107570000B4640E8003C9CF0000FF7D110467047E6
:1075800050E8003F43EA010240E8002C9CF0000F65
:10759000F6D11046704750E8002F02EA010340E898
:1075A000003C9CF0000FF6D11046704750E8003FB9
:1075B00003EB010240E8002C9CF0000FF6D11046CE
:1075C000704750E8003FA3EB010240E8002C9CF01C
:1075D000000FF6D1104670470121FFF7D1BF0021FF
:1075E000FFF7D9BF37B5054620B914494FF492705B
:1075F00002F02EF902A8002400F8014DFFF7C2FEA8
:107600002A68696813688B4210D9591E116013F8F3
:10761000014C2A8AEB6802FB04342A68AB681168C3
:107620005B1A1179DBB2994238BF13719DF80700DC
:10763000FFF7D8FE204603B030BD00BFA40E030004
:1076400037B50C46054620B9104940F2471002F004
:10765000FFF824B90D494FF4A47002F0F9F802A81C
:10766000002300F8013DFFF78DFE2A681368591CBE
:107670001160EA68A41A2A8AB4FBF2F41C709DF81F
:107680000700FFF7AFFE03B030BD00BFA40E03003C
:1076900038B5084C04F108030546002818BF1C46FD
:1076A00023682BB11A6822605B6828469847F7E781
:1076B00038BD00BF1CA8002020B9054B01225A701C
:1076C000FFF7E6BF012802D1014A9070F8E7704742
:1076D00014A8002020B9034B01225A70FFF7D8BF2D
:1076E000704700BF14A8002038B50B4C237883B92D
:1076F0000A486360A3602361E36000F07DFC0546F7
:1077000001F05EFF08B900F08DFC012323702846CC
:1077100038BD8525FBE700BF14A80020B97602001C
:1077200013B5154C237823B914494FF4857002F032
:107730008FF8E36823B9114940F20B1002F088F882
:1077400002A8002300F8013DFFF71CFEE368013B9F
:10775000E360E36853B901F033FF18B107497920BA
:1077600002F076F800F07CFC0023A3709DF807007F
:10777000FFF738FE02B010BD14A80020F40E03007D
:10778000012813B509D003D303281BD002B010BDC4
:10779000134B0122C3F88020F8E702A80023114C04
:1077A00000F8013DFFF7EEFD23780BB9FFF79CFFD2
:1077B000E3689DF807000133E3600123A370FFF73E
:1077C00011FEE3E7074B1B7823B9074940F2452038
:1077D00002F03EF800F026FCFFF7A2FFD6E700BF5C
:1077E00000E100E014A80020F40E03007FB5037848
:1077F0008DF804304368029383688DF80C30C368B9
:10780000049303698DF81430054A064B01A853F818
:10781000213052F82110984707B05DF804FB00BFF3
:1078200028A8002034A80020F0B50646944616F893
:10783000047B194A42F827C0184A42F82730184BEF
:107840000C460FCB85B06D4685E80F0023788DF888
:10785000003063788DF80130A3788DF80230E3783A
:107860008DF8033023798DF8053063798DF8063073
:10787000A3680293237B8DF80C30BCF1000F637B6F
:107880008DF80D30074A3B4608BF00222946304696
:1078900001F006F805B0F0BD34A8002028A80020AB
:1078A0004C0F0300ED770200037813F0040216D0AA
:1078B00003F00303012B03D0022B09D001207047F2
:1078C0000A6800880232C0F3831002440A60F5E7B8
:1078D0000B684288023303EB92130B60EEE710460D
:1078E000704700002DE9F04F89B00646871C08A8B4
:1078F000484C009200230D4600F8113DFFF742FD71
:1079000023682B60D4E901231344226801339B1AB6
:1079100004F21C4804F5836B04F21449BB421AD3E9
:10792000009A0023002A6DD0012262F3010343F084
:10793000040366F389132168A2689DF80F000A40CA
:1079400003320F4444F822302760FFF74BFD01203B
:1079500009B0BDE8F08F01214046FFF727FE5846E9
:10796000FFF73AFE0DF1200A4846FFF735FE606842
:107970004AF8100DA5682840033004EB80005146FA
:10798000FFF792FF02460498002AF4D105EA0003AB
:1079900004EB8303811CDB6805930130054004EB95
:1079A000850503F00303012B0491ED6823D0022B1E
:1079B00008D0194901924FF4BF7001F049FF019AB4
:1079C000154607E0BDF816309B0903332D0C01EB7B
:1079D000930304934846FFF702FE08B1049B6360DB
:1079E00029464046FFF7E2FDD4E90123134422680B
:1079F00001339B1A92E7BDF81430C3F383132D0CA7
:107A00000B44E6E7022262F3010343F0040366F34A
:107A10009F5390E710A90020690F0300034BD3E99F
:107A20000030C31A58425841704700BF10A90020C7
:107A30002DE9F04387B0FFF7F1FF0646002840F03C
:107A4000FC807F4DC5F81804BFF34F8F6868AC68A1
:107A500006AF47F8100D2040033005EB8000394693
:107A6000FFF722FF029B18B1D5F81824002A5FD037
:107A700004EA0302991C013305EB8202234005EB63
:107A80008303D268DB68049302F00303022B0392A2
:107A9000029162D1BDF80E306A484FEA9318B8F1EE
:107AA000500FC14628BF4FF0500969F38F1309F1F9
:107AB0000801ADF80E3000F0EBF90746002800F0A1
:107AC000A78000F014FA03A900230822384600F02A
:107AD00021FA029924EA01060136B600B14535D9EA
:107AE0005FFA89F97EB3F6B2A9EB060921400331AA
:107AF0005FFA89F4B146544E05EB810108234A46EA
:107B0000384600F007FA36B109F10803224631463B
:107B1000384600F0FFF9029B08F1030803EB9803D5
:107B20000293D5F81834002B4BD1D5F810445BE004
:107B30002A689A4204D86A60304607B0BDE8F083EC
:107B400004EA030088E740493446D7E7214003317F
:107B500008234A4605EB8101DAE7012B58D1BDF82D
:107B60000C303848C3F38311062928BF062161F37E
:107B7000891302318900ADF80C3000F089F907460D
:107B8000002845D000F0B3F90023082203A93846A5
:107B900000F0C0F90026BDF80C20C2F38312B31C1C
:107BA00096424FEA8303BCD202994A1C214003311A
:107BB000029205EB81010422384600F0ABF9013650
:107BC000E9E7384600F097F9FFF728FF80F0010059
:107BD000C6B2B1E7E3685B7923B1236839461B6815
:107BE00020469847E3681C68002CF3D1384600F023
:107BF00082F906A800F8114DFFF7C4FBD5F8183438
:107C00000BB9029B6B609DF80700FFF7EBFBDBE70E
:107C1000D5F8104454B90D4B0D480E49C01AC00890
:107C2000000440F0020000F083F8CDE7236820460E
:107C30009B689847E3681C68ECE700267CE700BF78
:107C400010A90020501D03001CA90020B81C03002F
:107C5000101D0300C00F03002DE9F74F2F4C804685
:107C60000F46914601A9012218469B46D4F808A068
:107C7000FFF738FE00283DD0019D0026A91C5E4577
:107C800006EB010240D100212548FFF76FFC80F38D
:107C9000100B244B244A4FEA18499B1AB9EBD30F17
:107CA00004D3224940F2A31001F0D2FD6B1C03EA79
:107CB0000A0304EB830349EA0B42DA6005EA0A038C
:107CC0000333012114F8232068F3C50204F82320AC
:107CD00034F8232066F3891224F8232054F8232053
:107CE00067F39F2244F8232061F301026FF38202BD
:107CF00004F8232094F820341BB1FFF799FE0028E4
:107D0000FBD103B0BDE8F08F0AEA020204EB820265
:107D100059F82630D3600136B1E700BF10A9002022
:107D20002CAD0020501D0300B81C0300690F030098
:107D300000231A46FFF790BF13B502AC012344F8A5
:107D4000042D2246FFF788FF02B010BD07B5CDE92C
:107D5000002302236A46FFF77FFF03B05DF804FBB0
:107D60001FB5CDE90123069B039301AA0323FFF767
:107D700073FF05B05DF804FB1FB5CDE90023069B3A
:107D80000293079B03936A460423FFF765FF05B040
:107D90005DF804FB38B5094A0123D2F8104482F893
:107DA00020341D4604B938BDE3685D712368204660
:107DB0005B689847E3681C68F4E700BF10A90020DF
:107DC0002DE9F74F99469DF83030019388461746C4
:107DD000054618B92249B62001F03AFDEA8895F81F
:107DE00005B00BFB02FBABF1040BCB4503D81C49E0
:107DF000C42001F02DFD3E68B5F806A006EB09028F
:107E00005A4509F1040188BFABEB0906B1FBFAF44E
:107E10003E600AFB141144B9AAEB0107B74228BF20
:107E200037462EB903B0BDE8F08F2D68013CF2E76C
:107E3000019A043108EB0403681872B101463A460E
:107E40001846F61B02F0D6FFB2453C442D68574653
:107E50004FF0000128BF3746E3E73A461946F0E7FE
:107E6000D50F0300F8B546790146721E054600237A
:107E700093422D6803D30024A64202D8F8BD0133F3
:107E8000F6E70F682846FFF7DBFB01343946F3E7D6
:107E90002DE9F843CD1C068A0746FFF7A3FB043EF5
:107EA00035440446B5FBF6F5F0B14FF48073EDB2FE
:107EB0008380C680013D076081464FF00008A845D9
:107EC00012D23846FFF78EFB064648B1637901337C
:107ED000637108F10108C9F8000007608146EEE708
:107EE0002046FFF7BFFF34462046BDE8F883012156
:107EF0000430FFF75BBB10B5012104460430FFF7E7
:107F000060FB10F0FF0F04D12046BDE81040FFF7E2
:107F1000A9BF10BD30B585B0144604AA002542F8AB
:107F2000044D0095FFF74CFF039BA34203D0034988
:107F3000F62001F08DFC05B030BD00BFD50F030069
:107F400038B50D46044618B90849502001F080FCA8
:107F50001DB90649512001F07BFC25602B68636048
:107F60006A68934204BF0023636038BD2E1003008B
:107F700010B5044618B90B49632001F069FC236869
:107F80001BB90849642001F063FC636843B12268AF
:107F900091680B4463605268934204BF002363609E
:107FA00010BD00BF2E1003000D4930B5A1F594722D
:107FB0000225914201D800200EE08B1ADB1093FBC2
:107FC000F5F302EBC30452F83330834205D802D2F2
:107FD00004F10802EDE7606830BD2146E9E700BF23
:107FE000D411030008B5FFF7DFFF024B002808BFDC
:107FF000184608BD9710030010B5044618B9074984
:10800000A02001F025FC064B187920B901221C6044
:108010001A71587110BD8520FCE700BF8E15030052
:1080200034AD002008B50B4B1B791BB90A49B920A8
:1080300001F00EFC094B1A68D2075FBFE02283F8FB
:10804000002301221A604FF080430122C3F8182553
:1080500008BD00BF34AD00208E15030000E100E034
:1080600008B5084B1B791BB90749F32001F0F0FB59
:10807000064B01221A604FF08042D2F81834DB031D
:10808000FBD408BD34AD00208E1503000C00004069
:1080900007B5154B1A687AB100221A601B68009365
:1080A000009B4FF080430122C3F808230F4B5879FF
:1080B00010B95A711B6898470D4B1A6882B100229B
:1080C0001A601B680193019B4FF080430222C3F8A2
:1080D0000823064B1B68012003B05DF804EB18472A
:1080E00003B05DF804FB00BF0001004034AD002088
:1080F0000401004000F1804000F5C040002382B040
:10810000036003680193019B02B07047054B4FF079
:10811000FF32072843F8202084BF1B1883F848202B
:10812000704700BF3CAD002002494FF4F37001F0EE
:108130008FBB00BFE11503001F2838B504460D466C
:1081400001D9FFF7F1FFA00000F1A040D0F80037FF
:1081500023F44033C0F80037D0F8003743EA054332
:10816000C0F8003738BD000010B5164C94F85830F0
:1081700033BBFF21E2180133202B82F83010F9D1F4
:108180000021C8B2FFF7C2FF01310C29F9D1042246
:1081900000210D4802F0C8FE0C4BE02283F80623B4
:1081A00040221A604FF4BE70FFF7A4FF084B4FF057
:1081B0000042C3F80423012384F85830002010BD86
:1081C0000820FCE73CAD002090AD002000E100E07D
:1081D00000600040034B93F85800003018BF0120A6
:1081E000704700BF3CAD00201F2870B504460D4607
:1081F00004D941494FF4987001F02AFB3F4E96F89C
:108200005830012B04D03C4940F2311001F020FBE2
:1082100025B939494FF4997001F01AFB331993F9D4
:108220003020013265D1AA78002A54D0002356F8B4
:10823000231001314FEA830248D1311902F1804203
:1082400081F83030002102F5C04246F82310D2F800
:1082500010052B78697820F498101B04090520F488
:10826000F85001F4801103F44033C2F810050B43B9
:108270002102D2F8100501F4F8510B430343C2F870
:1082800010356B78012B4FF0010528D11F2C01D937
:10829000FFF74AFF4FF0A043A540C3F808551F2C35
:1082A00001D9FFF741FF04F5E0724FF0A04303212D
:1082B00043F82210E2081249012304F0070403FAEC
:1082C00004F48B5C1C438C54002003E00133082B26
:1082D000ADD1042070BDFE2283F83020D1E71F2CE1
:1082E00001D9FFF721FF4FF0A043A540C3F80C557B
:1082F000D5E70820EEE700BF241603003CAD0020C0
:1083000090AD00201F2838B5054604D912494FF416
:10831000BE7001F09DFA114C621992F930200132C1
:1083200004D10D4940F27D1001F092FA631993F8DF
:108330003030072B04D808494FF4BF7001F088FA99
:108340001F2D01D9FFF7F0FE012303FA05F54FF0C9
:10835000A043C3F8085538BD241603003CAD0020E7
:108360001F2838B5054604D912494FF4C37001F0EF
:108370006FFA114C621992F93020013204D10D4983
:1083800040F2871001F064FA631993F83030072B3C
:1083900004D808494FF4C47001F05AFA1F2D01D9CE
:1083A000FFF7C2FE012303FA05F54FF0A043C3F81F
:1083B0000C5538BD241603003CAD00202DE9F04FCC
:1083C00087B000245B4A5C4E5C4D03940121136826
:1083D000A2F5C040012B80B206D1D6F804330B427F
:1083E00002D0FFF787FE0C430432AA424FEA410154
:1083F000EDD1534B1B68012B0AD14FF4BE70FFF730
:1084000079FE4FF0A04344F00044D3F810350393B5
:1084100014F0FF0F1AD04B4F00250126344210D024
:10842000AB0003F1804303F5C043D3F81005D3F844
:10843000101557F82530C0F30420C1F3014103B1F2
:1084400098470135082D4FEA4606E7D1002C6EDA31
:1084500000224FF0FF33CDE904233A4F4FF0000ADA
:1084600056464FF0A04907EB0A0393F95040631CAE
:1084700046D0E4B2012224F0C00504F0070B02FA52
:108480000BFBEB0806AAD11811F8042C12EA0B0F0B
:1084900036D07A19A40992F9302057F82280B8F121
:1084A000000F0AD1032C2BD10DF1100C1CF8030086
:1084B00040EA0B000CF8030001E0032CF4D01F2D60
:1084C00003D90191FFF730FE019911F80C1C05F555
:1084D000E07311EA0B0F59F82330C3F3014320D0A6
:1084E000022B0DD1032C05D121462846FFF724FE8F
:1084F0000136F6B2B8F1000F02D021462846C04737
:108500000AF1010ABAF1040FADD186B14FF0A043D0
:10851000039AD3F810359A4209D00393049B05932C
:108520009CE7032BECD1032CE4D10221DDE707B05B
:10853000BDE8F08F00610040006000402061004015
:108540007C6100403CAD002010B5054C22681AB992
:108550000449512001F07CF92368BDE81040184718
:1085600098AD00207D16030037B50D4630B90F4990
:10857000772001F06DF9002003B030BD0C4B98421C
:10858000F9D102A8002300F8013DFEF7FBFE094BDC
:108590001C7914B901221D601A719DF80700FEF7BD
:1085A00021FF002CE7D01120E6E700BF7D16030075
:1085B0000020004098AD00200023435082B0435873
:1085C0000193019B02B0704770B5D0F81031054699
:1085D0000C4653B14FF48871FFF7EEFF63795A07E9
:1085E00003D523680BB101209847D5F814315BB14E
:1085F0004FF48A712846FFF7DFFF63791B0703D525
:1086000023680BB102209847D5F81C315BB128468E
:108610004FF48E71FFF7D0FF607910F0100002D197
:10862000236803B19847D5F8043163B14FF48271E0
:108630002846FFF7C1FF0123237123681BB10320E4
:10864000BDE87040184770BD01490248FFF7BCBF44
:10865000A0AD002000C0014001490248FFF7B4BFAF
:10866000A8AD00200010024001490248FFF7ACBF4E
:10867000B0AD00200020024000F1804000F5E04055
:10868000002382B0036003680193019B02B070472E
:10869000F0B5514B514C1B6885B0DBB14FF4827083
:1086A00094F82E20FFF7E8FF12B194F82F30A3B111
:1086B000636802932389ADF80C30E36800218DF8DC
:1086C0000410002B44D12374236801A89847002389
:1086D00084F82F3094F82E3003B3414B1B68EBB174
:1086E0004FF48070FFF7C8FF94F82D20638B91B290
:1086F0008B4238D95B1A21899BB26383CB1A61689C
:1087000001EB4301374BC3F82C16C3F830264FF466
:108710008270FFF7B1FF344B01221A60334B1B68A4
:108720005BB14FF48870FFF7A7FF002304A8237400
:10873000022300F80C3D236898472D4B1B6813B3A8
:108740004FF48A70FFF798FF0023237405B0F0BD43
:10875000208B608363602081E160002AB4D1214BCB
:1087600001221A60B0E7D2D1E368012184F82F100A
:108770003BB1002161831B49C1F82C36C1F830267A
:10878000C5E76383C3E766694FF000470125002E04
:10879000DCD0B6FA86F227FA02F34632920026EAD5
:1087A000030602F1804303F5E0431B68002BEED083
:1087B0001046FFF761FFA2F58C72D30882F0040225
:1087C000C2F380028DF808308DF804508DF809202E
:1087D000236801A89847DAE704710040B8AD00208B
:1087E00000710040007000400470004010710040B3
:1087F0001471004002494FF4F37001F029B800BF32
:10880000E11503001F2810B5044601D9FFF7F2FF58
:10881000012303FA04F44FF0A043C3F80C4510BD44
:108820001F2810B5044601D9FFF7E4FF012303FA1E
:1088300004F44FF0A043C3F8084510BD13B54FF042
:108840004023D3F818310BB3114B124C00221A609D
:108850001B680193019B236823B90F494FF42770CC
:1088600000F0F6FFE07FFF2803D0A37F5BB1FFF7A6
:10887000C9FF002363772372D4E90031074802B0AF
:10888000BDE810401847FFF7CBFFF2E702B010BD7C
:1088900018410040E8AD0020DA160300F0AD0020DA
:1088A0002DE9F74F8146CDE900230C4619B97D49E2
:1088B000AD2000F0CDFF99F804607B4F242303FB2B
:1088C00006FB07EB0B0A9AF81C10002940F0E48025
:1088D000D9F8005075492846FFF746FE8046002823
:1088E00040F0DD80009B47F80B30019BCAF8043054
:1088F000237B2078012B00F2BD80FFF783FF94F8E3
:1089000000A0BAF11F0F01D9FFF774FF0AF5E07A52
:108910004FF0A043012243F82A2094F801A0BAF1B5
:10892000FF0F00F0AA805046FFF76CFFBAF11F0F4F
:10893000D34601D9FFF75EFF0AF5E07A4FF0A04376
:10894000032243F82A20A378FF2B00F099801F2BE5
:108950009A4603D90093FFF74DFF009B03F5E073A0
:108960004FF0A042042142F82310242303FB067396
:10897000A27883F82020E278DA77E078FF2817D011
:108980002379002B7FD0FFF73DFFE3781F2B03D91E
:108990000093FFF72FFF009B03F5E0734FF0A04219
:1089A000032142F82310242303FB067322799A77CC
:1089B0002378C5F80835C5F80CB5C5F810A5A36827
:1089C000C5F82435637B227B003318BF0123022ABC
:1089D0005CD0032A5DD0012A01D143F00203C5F81F
:1089E0005435A379C5F8C03524237343FB5813B11C
:1089F0004022C5F804230722C5F800257BB3D9F827
:108A0000003064794FEA133AA31E012B4FFA8AF51E
:108A100006D9631F022B03D925496B2000F018FFEC
:108A2000002DACBF05F16043224B4FEA4414B8BFA0
:108A30000AF00F0AE4B2AABF03F5614303F80A4043
:108A400083F80043D9F800301B0B5AB2012103F020
:108A50001F0301FA03F35209174941F82230242376
:108A600003FB06760023737701233377404603B078
:108A7000BDE8F08FFFF7D4FE41E74FF0FF3B62E720
:108A80004FF0FF3A71E7FFF7CBFE7EE743F00403B8
:108A9000A5E743F00603A2E74FF00808E6E74FF02A
:108AA0001108E3E7DA160300E8AD00203D88020074
:108AB0002617030014ED00E000E100E02DE9F3418A
:108AC000584F0679242303FB067380461B7F0D460F
:108AD000144623B9544940F2322000F0B9FE2B6805
:108AE00033B96B6823B1504940F2332000F0B0FE37
:108AF000AB6833B9EB6823B14B494FF40D7000F00C
:108B0000A7FE98F804302BB9EB68FF2B02D86B68EE
:108B1000FF2B04D9444940F2372000F099FE24236A
:108B20007343FA18517F002979D1FB5823B114F00F
:108B3000140F04BF0123537795E80F004FF0240C66
:108B40000CFB067C0CF10C0E8EE80F009CF81F004D
:108B5000FF2804D09CF81E30C3B1FFF761FE2A68DD
:108B600022B102F06043B3F1005F06D1AB6883B17C
:108B700003F06043B3F1005F0BD0242303FB0676C0
:108B800000237377102002B0BDE8F081FFF73AFEB2
:108B9000E5E7D8F800306968C3F84425C3F84815FC
:108BA000D5E90212C3F83415C3F838250022C3F8FA
:108BB0001821D3F818210192019A14F0010218BF6C
:108BC0000122C3F8502514F0020218BF0122C3F895
:108BD000402522075CBF01221A6124227243BA5841
:108BE00092B9D3F81821002AFBD0242303FB067680
:108BF000F07FFF2803D0B47F1CB1FFF703FE0020F5
:108C0000C1E7FFF70DFEFAE714F004004FF0400251
:108C100002D0C3F80823F2E7C3F80423B3E7112016
:108C2000B1E700BFE8AD0020DA1603002DE9F743F5
:108C3000002406460F4600F5A0754FF48038A14683
:108C400004F150002B68800080B26BB1D6F8043379
:108C500008FA04F21A4207D0C5F800902B68019375
:108C6000019BD7E9003198470134042C05F1040534
:108C7000E6D103B0BDE8F08301490248FFF7D6BF53
:108C80000CAE00200080004001490248FFF7CEBF33
:108C900018AE0020009000400023435082B043589B
:108CA0000193019B02B07047F0B5504C236887B028
:108CB00023B94F4940F2452000F0CAFD4D4AD2F891
:108CC00024311546A3B14FF492711046FFF7E4FF2B
:108CD000D2F8043163B9A368C2F808330223A36051
:108CE000A368C2F8043301231362536107B0F0BDD7
:108CF000D5F80431002B49D03F4F3E484FF48271E4
:108D0000FFF7CAFF0FCF01AE0FC63B68336094F880
:108D10002E307BB1237B012B0CBFD5F83C25D5F839
:108D20004C250292022B334B0CBFD3F83C35D3F8C1
:108D30004C3503934FF4B0712E48FFF7ADFF4FF45D
:108D4000AE712C48FFF7A8FF94F8303013B194F8B7
:108D50002E303BB1274B0022C3F80022A260274AE5
:108D6000C3F80823234AD2F8C434C2F8C4349A079B
:108D700036D501238DF8003094F830300BB984F8E3
:108D80002F30D4E9003168469847AFE74FF4A4711B
:108D90001848FFF781FF237B83B9174F0FCF01AE30
:108DA0000FC63B68336094F83030002BDAD1C5F839
:108DB0000032A360114BC5F80833D3E74FF40073BA
:108DC000C5F8003240F20223A36003F1CE73C5F868
:108DD0000833A368C5F804330123AB602B6285E731
:108DE00013F0040318BF0223C4E700BF24AE002021
:108DF000751703000030004030AE002002029C01D5
:108E000070B5C0B14AB116880024B44203D3051925
:108E10006D789D4208D0A14201D800200BE0055D8D
:108E200001352C44A4B2F0E7A142F6D9A31C13806B
:108E3000005D013880B270BD37B502AC002324F864
:108E4000023D134622460546FFF7DAFF10B1BDF892
:108E50000600284403B030BD72DF704773DF7047EF
:108E600038B5012204460D46B0F83812D0F8340265
:108E7000FFF7E2FF00B1057004F13C0204F50D714B
:108E800004F15400BDE83840FFF7E6BFF8B50778B5
:108E900004460D46002F00F0058100F24A26A1701D
:108EA00007220021304602F03FF8E38813B1A3788F
:108EB000012B04D0E3794BB1A378022B06D1636B6D
:108EC000A3B1012284F8512208209847334604F5C3
:108ED000147113F8012F12B99942FAD117466B1E7B
:108EE000032B53D8DFE803F0050B0F1284F851323F
:108EF000ECE7A3791BB194F8243003B95FB9E379A7
:108F00000BB1002F44D1237A002B43D1637A002B7D
:108F10000CBF00250425636BA570002B3CD0033DDE
:108F2000012D39D86279002A36D094F85222002ACD
:108F300032D184F85422012284F853220720984722
:108F400004F13C0518220021284601F0EDFFE36AF8
:108F500094F824200121581E884288BF0B4684F8CB
:108F60003C1084F8513032B1884296BFA36A84F82D
:108F7000521084F85230A178002384F8503004292C
:108F80001BD8DFE801F0770D223559000025C2E734
:108F90000225C0E70325BEE7002384F85332CFE75C
:108FA000C4F84432C4E910630223012284F83C303F
:108FB000802384F83120A4F84830A378002B5CD1BA
:108FC000636B002B6AD1002067E0022384F8313004
:108FD00062B1072384F83C302369A4F848300023A9
:108FE000C4F84432E36826646364E6E70323F1E7E8
:108FF00063696364A369A4F8483012B1062384F856
:109000003C306379B3B194F852329BB994F854323E
:1090100083B1022384F8503004212046FFF720FF5B
:109020000028CAD1052384F8313004F50D73C4F843
:109030004432C2E70323F6E7E3696364236AA4F8D2
:10904000483012B1062384F83C30637983B194F838
:1090500052326BB994F8543253B1022384F8503031
:1090600004212046FFF7FCFE0028A6D10623DAE7FC
:109070000423D8E784F831309FE72A46D4F8441215
:1090800004F15400FFF7E8FE38B994F8301094F872
:109090005400FFF7E3FE002892D0F8BD94F83100A9
:1090A000984790E70820F8E710B50388112B0C4685
:1090B0000AD0262B1FD0102B05D1C37B012B02D148
:1090C0008388A1F8483210BD002381F8523282888B
:1090D000B1F848329A42F6D10B79002BF3D1012135
:1090E0002046FFF7D3FE0028EDD0A36B002BEAD07B
:1090F000BDE810401847037A013B012BE3D889787B
:109100000523013191FBF3F303EB8303C91AC9B2C1
:10911000E6E77047034B1A8882420CBF18460020CE
:10912000704700BF74AE0020024B9B6903B1184723
:10913000704700BF58AE002013B50B46497A0F4C5C
:10914000024669B9D4E901101C7A002C18BF014607
:109150005868FEF7B5F808B1FFF7E6FF02B010BD9A
:10916000002119726369002BF8D00121ADF80600C7
:109170008DF8041001A89847F0E700BF58AE002012
:1091800030B583880588B3F5FA7F24BF6FF4F97290
:109190009C184A8838BF002495420CD840889042D9
:1091A00009D38A88A24206D303F2F310904234BF57
:1091B0000020012030BD0020FCE7000070B50388CE
:1091C000112B014648D002D8102B1ED070BD122B97
:1091D00052D0502BFAD12F4BC288DB899A42F5D15D
:1091E000038A022BF2D186883046FFF793FF0546AB
:1091F0000028EBD001F1120000F050F830BB686895
:10920000FEF7A2F80028E1D009E0C37B012BDDD1F5
:109210004FF6FF70FFF77EFF054620B90420BDE83A
:109220007040FFF781BF8E881B4A068000230372BF
:109230001368C5F80A300A30536843601031FFF7ED
:109240009FFF144B6872DB89002BBFD12946304643
:10925000BDE87040FFF770BF8088FFF75BFF0446F2
:109260000028B3D04068FEF76FF808B1FFF75CFF45
:109270004FF6FF732380A9E786883046FFF74AFF41
:1092800005460028A2D008310A30FFF779FF68723E
:10929000DCE700BF58AE002088AE0020007800F068
:1092A0000100704790DF7047A5DF7047B5DF70475A
:1092B0007FB50023ADF80810ADF80A106A4602A980
:1092C000064603930093ADF80430FFF7EBFF054625
:1092D000F8B1114B114CE41AE408FEF783FE2404A4
:1092E00044F00104034632460D492046FEF72EFDA8
:1092F000BDF80020BDF8023002B91BB10949204673
:10930000FEF724FDBDF804201AB107492046FEF7F8
:1093100013FD284604B070BDB81C0300281D0300CF
:10932000D11703001B1803005A18030013B5034696
:1093300080880C46A0B91A88232A00F0AF8011D883
:10934000102A25D0112A54D0A37A4BB1E1880020ED
:10935000FFF7AAFF002840F0A7800123A072E37264
:1093600002B010BD3A2A4ED0552A68D0242AEBD13B
:109370001A7A0B694A73002BE6D04DF67A21ADF8C4
:109380000400ADF80010ADF802008DF8042081E073
:109390000A790A73DB7B012B13D0022B14D0E188EE
:1093A00023898B4205D20020FFF77EFF70B901238D
:1093B000E372217B637B8B42C6D20020FFF778FFEC
:1093C000C2E70B88E380EAE74B88FBE7112802D16C
:1093D0000123A372EDE7FEF705FE3C4A3C4B3D49F5
:1093E0009B1ADB081B04024643F00100FEF7A4FCB5
:1093F000DFE7F723CB8017230B8141F6FB3388721D
:10940000C8728B81A0E75B89CA88934228BF134644
:10941000172B0A6938BF17230B8162B1C97A51B182
:1094200040F67721ADF80010ADF80200ADF8043039
:109430006946204690470023E372A37284E7DB88E5
:10944000C988A072172B38BF17238B4228BF0B4641
:109450002381FFF72BFF60B1FEF7C4FD1B4A1C4BB5
:109460001D499B1ADB081B04024643F00100FEF76E
:1094700063FCE27A002A7FF467AF2369002B3FF494
:1094800063AF40F67721ADF802202289ADF80010D5
:10949000ADF8042069462046984755E7197A237BA2
:1094A000994228BF194689E711283FF459AFFEF7C2
:1094B00099FD064A064B07499B1ADB081B04024626
:1094C00043F00100FEF738FC4AE700BFB81C030078
:1094D000281D0300B0180300E1180300B0DF704737
:1094E00066DF704710B5034600214088FFF7F8FF9C
:1094F000024608B91A7210BD112801D10122F9E7FC
:109500005B68BDE81040184728B10378DE2B04D112
:109510004180002070470E20704708207047F0B54A
:10952000054685B00C46F1B1E8B10B78DE2B1AD1B7
:1095300082884B889A4204D10B7A13B10846FFF710
:10954000D1FF2B88112B32D0512B0ED0012B0AD1F9
:109550002B7A012B07D1A9886288914203D123720B
:109560002046FFF7BFFF05B0F0BDAE886388B34269
:10957000F9D1AF79022FF6D1AD7B2B1F022BF2D898
:1095800000211022684601F0CFFC052D14BF4FF4D6
:10959000C0730023694630468DF80070ADF8043082
:1095A000FFF79CFF0028DED063689847DBE76388FD
:1095B000AA889A4204BF4FF6FF736380D3E7000086
:1095C000014B1878704700BF90AE002007B50849DE
:1095D0006846FEF7B5FC019B13B903B05DF804FBC8
:1095E000D3E9002090476846FEF7C2FCF3E700BFCE
:1095F00020190300FFF7EABF61DF704730B5134D54
:10960000ADF5017D4FF4FA740DF1020103A8ADF838
:109610000240FFF7F1FF70B9294601A8FEF790FC60
:10962000029B002BF0D003A8D3E90021904701A8AA
:10963000FEF79EFCF4E7052804D0054A40F23911F4
:10964000FDF74BFC0DF5017D30BD00BF881903000F
:1096500034190300024B1B780BB1FFF7CFBF7047E3
:1096600091AE002076DF70477FDF704786DF70475E
:109670008ADF70478FDF7047B1DF704733DF704795
:1096800037B503881D2B044600F0AC801DD8132B82
:109690007CD00AD8102B3DD0112B5DD0604B13B17C
:1096A0002046AFF3008003B030BD142B00F08C8057
:1096B0001B2BF3D1037A012BF0D1FFF7DFFF00283A
:1096C000ECD0584A4FF4CC716DE0502B52D00ED8EC
:1096D000212B00F096803B2BE0D113218088FFF7EF
:1096E000C1FF0028DAD04F4A4FF4D0715BE0522B13
:1096F0005CD045D3562BD1D18379002BCED14A4BA8
:1097000013211888FFF7AEFF0028C7D0454A40F262
:10971000A71148E0444D818844482980FFF7F4FEB2
:1097200020B1404A4FF49D71FDF7D7FB00231A4644
:1097300019462888FFF7A0FF20B13A4A4FF4A171DB
:10974000FDF7CBFB3A4801F05BFC3A4B002BA5D070
:109750002046AFF30080A1E7334B37484FF6FF7246
:109760001A8001F04DFC354B002B97D02046AFF30B
:10977000008093E7324B002B90D0AFF300808DE751
:10978000304B002B8AD0AFF3008087E726480023B8
:109790001A4685210088FFF767FF00283FF47EAF57
:1097A000204A40F28111FDF798FB77E71E4800231D
:1097B0001A4619460088FFF75FFF00283FF46EAF96
:1097C000184A40F28711EEE7174800231A46194657
:1097D0000088FFF74BFF00283FF460AF114A40F2CA
:1097E0009111E0E7184B0BB1AFF30080174900204F
:1097F000FFF73EFF00283FF451AF0A4A40F2C7117D
:10980000D1E702A9002321F8043D8088FFF732FF49
:1098100000283FF443AF034A40F2D111C3E700BF31
:1098200000000000C5190300E8B1002000B10020CD
:10983000F419030000000000041A030000000000F7
:10984000000000000000000000000000D898002088
:1098500038B50D460446044801F0D2FB2A4621469D
:109860000248FDF73AFB38BDA0190300EFBEADDE9C
:109870000C4B1B78062B10D10B4B1B681A070CD115
:109880000A4B186800F0F003302B08D000F0E0001D
:10989000A0F1400358425841704700207047012012
:1098A000704700BFE00F00F0E40F00F0E80F00F099
:1098B000094B1B78062B0CD1084B1B681A0708D1E3
:1098C000074B186800F0F000A0F1300358425841EF
:1098D00070470020704700BFE00F00F0E40F00F079
:1098E000E80F00F008B5FFF7C3FF28B17D4B7E4AB3
:1098F0001B68C3F304231360FFF7DAFF10B17B4B3F
:109900007B4A1A60FFF7B4FF28B17A4B7A4A1B688A
:10991000C3F342331360FFF7CBFF20B1774AD3681C
:1099200023F08073D360FFF7A3FF40B14FF0804373
:109930000022C3F80C21C3F81021C3F83825FFF723
:10994000B7FF10B16E4B03221A60FFF7B1FF40B1B1
:109950006C4B05221A6001229A6700229A603F220E
:109960005A60694B1B78062B50D1684B1B6819074E
:109970004CD1674B1B6803F0F003502B46D14FF0DE
:109980008052644BD2F80414C3F82015D2F808149E
:10999000C3F82415D2F80C14C3F82815D2F8101403
:1099A000C3F82C15D2F81414C3F83015D2F81814D3
:1099B000C3F83415D2F81C14C3F84015D2F820149B
:1099C000C3F84415D2F82414C3F84815D2F8281463
:1099D000C3F84C15D2F82C14C3F85015D2F8301433
:1099E000C3F85415D2F83414C3F86015D2F83814FB
:1099F000C3F86415D2F83C14C3F86815D2F84014C3
:109A0000C3F86C15D2F84424C3F87025FFF730FF73
:109A100028B1414B414A1B6803F04F031360FFF725
:109A200027FF48B14FF08043D3F80024D20744BF4A
:109A30006FF00102C3F80024394B1B68062B08D1D4
:109A4000384B1B68062B01BF374A136843F4806309
:109A50001360364AD2F8883043F47003C2F8883075
:109A6000BFF34F8FBFF36F8F4FF01023D3F8002257
:109A7000002A03DBD3F80432002B2FDA2C4B01220F
:109A8000C3F80425D3F80024002AFBD04FF010229D
:109A90001521C2F80012D3F80024002AFBD04FF0A1
:109AA00010231522C3F80422214B1A46D3F80014C0
:109AB0000029FBD00021C3F80415D2F80034002B94
:109AC000FBD0BFF34F8F19491A4BCA6802F4E0620A
:109AD0001343CB60BFF34F8F00BFFDE7164B174A10
:109AE0001A6008BD240300104035014074C00740CF
:109AF0000DF0ADBA440200103C050040F0ED00E06E
:109B0000A005004010560040E00F00F0E40F00F008
:109B1000E80F00F000C0004058020010E40E0040C2
:109B200030010010340100103C17004000ED00E04F
:109B300000E001400400FA05E09800200090D00306
:109B40000649074A074B9B1A03DD043BC858D0500F
:109B5000FBDCFFF7C7FEFCF773FB0000CC1D030026
:109B6000A8980020A0A20020FEE7FEE7FEE7FEE79F
:109B7000FEE7FEE7FEE7FEE7FEE7FEE708B50021A9
:109B8000044603F0F7FA044B1868C36B03B1984717
:109B9000204605F03DFD00BF181A030070B50029EE
:109BA00048D005460C4610B1836B002B48D0626E3E
:109BB000B4F90C30D00740D4990530D52146284659
:109BC00000F054F8E36A064633B1E1692846984745
:109BD0000028B8BF4FF0FF36A3891A063CD4216B8A
:109BE00041B104F14003994202D0284600F0B0FA96
:109BF00000232363616C21B1284600F0A9FA0023F9
:109C0000636400F0E1F9636E0022DB07A2811FD5D7
:109C1000A06D00F0B7FD00F0DDF9304670BDA06D1D
:109C200000F0B2FDB4F90C30002BC7D1666E16F00F
:109C3000010616D00026304670BD002BFAD0BDE7D5
:109C400000F044F9626EB4F90C30D007F5D4B3E7F4
:109C5000A06D00F09BFDDBE72169284600F078FA53
:109C6000BDE7A06D00F092FD304670BDB1F90C303B
:109C70009AB22DE9F0410C461107804644D462683F
:109C800043F40063002AA38159DDA56A002D53D057
:109C900000229BB2D8F80060E169C8F8002013F4F4
:109CA000805240F0838001234046A847421C4AD09E
:109CB000A389A56AE1695B0705D56268236B801AF1
:109CC0000BB1E36BC01A024600234046A847471C6D
:109CD00045D0B4F90C302269226023F400630022DD
:109CE000A381DB04626000D52065216BC8F80060A9
:109CF00011B304F14003994202D0404600F028FA23
:109D000000202063BDE8F0812669AEB12568266099
:109D100092070CBF63690023AD1BA3600AE02B46CA
:109D20003246676AE1694046B8470028A5EB00055E
:109D300006442BDD002DF2DC0020BDE8F081E26B53
:109D4000002AA2DCF8E7D8F80030002BB0D01D2B99
:109D500001D0162B2CD1C8F800600020EDE7D8F810
:109D600000101D291AD8154BB4F90C20CB40DB4349
:109D700013F0010314D1256922F40062C4E90053F1
:109D8000D504A281B1D50029AFD1ADE7A38943F0B5
:109D90004003A3814FF0FF30BDE8F081B4F90C20FF
:109DA00042F04002A2814FF0FF30C6E7206D82E70B
:109DB000A38943F04003A381BFE700BF0100402017
:109DC00038B50D46044608B1836BA3B1B5F90C0054
:109DD000B8B16B6EDB0701D481051AD52046294640
:109DE000FFF744FF6B6EDA07044602D4AB899B058C
:109DF0000AD5204638BD00F069F8B5F90C000028F6
:109E0000E7D10446204638BDA86D00F0BFFC2046CF
:109E100038BDA86D00F0B8FCE0E700BF20B1054BED
:109E200001461868FFF7CCBF034B0449186800F0DF
:109E30004BBC00BFE4980020181A0300C19D02002B
:109E400010B5002304468181C281C0E900338360DC
:109E50004366C0E904338361194608225C3001F08F
:109E600063F807480749084A084BE362C4E907401A
:109E7000C4E9091204F15800BDE8104000F080BCAC
:109E800009B302002DB3020069B3020089B30200D6
:109E9000014900F019BC00BF9D9B020070B54A1E2D
:109EA000682505FB02F50E4605F1740100F0E8FC9B
:109EB000044640B100210C30666005F16802216063
:109EC000A06001F031F8204670BD00BF10B5044617
:109ED000124800F059FCA26BD2B904F53B7310484C
:109EE000C4F8E8320321C4F8E022E063C4F8E412C5
:109EF00060680421FFF7A4FF01220921A068FFF791
:109F00009FFF02221221E068FFF79AFF0123A3635B
:109F10000248BDE8104000F039BC00BFF8B1002095
:109F2000919E020070B50646244800F02DFC244B9B
:109F30001D68AB6B83B305F53875D5E90134013B7A
:109F400005D525E0013B5A1C04F1680420D0B4F982
:109F50000C20002AF6D100251A4BE36004F15800CA
:109F6000656600F00DFC154800F010FC2560C4E9A2
:109F70000155C4E90455A5612946082204F15C0095
:109F800000F0D2FFC4E90C55C4E91155204670BD5C
:109F90002C682CB12546D0E72846FFF797FFCAE783
:109FA00004213046FFF77AFF044628600028F1D1EB
:109FB000024800F0EBFB0C233360E7E70CB2002013
:109FC000181A03000100FFFF014800F0DDBB00BFCD
:109FD0000CB20020014800F0D9BB00BF0CB2002039
:109FE000F0B5134683B00F4601AA1946064604F0A1
:109FF00009F9002836D005463046FFF793FF04469E
:10A0000000282FD039464FF4DB73019A304600F018
:10A01000E1FF071E30DB636EDB0715D51C4B1D49C6
:10A020001D4AE781C4E90743C4E909121B4BA58116
:10A03000E905E3620FD4636EDA0702D4A3899B05B6
:10A0400014D5204603B0F0BDA3899805E6D4A06DD1
:10A0500000F09AFBE2E7304602230022214600F09E
:10A060006BF9E8E70024204603B0F0BDA06D00F0D6
:10A070008DFB204603B0F0BD0025FFF7A5FFA581AD
:10A08000A06D00F07FFB2C46FFF7A4FFD9E700BFCF
:10A0900009B302002DB3020069B3020089B30200C4
:10A0A000024B0A4601461868FFF79ABFE498002061
:10A0B000F8B5244F0C46064600F080FFBB685D688B
:10A0C000C4F57E610F3125F00305294421F47F6139
:10A0D00021F00F01A1F58054B4F5805F07DB00216A
:10A0E000304601F037F8BB682B44984204D0304624
:10A0F00000F06AFF0020F8BD6142304601F02AF806
:10A1000001300DD0104BBA6819682D1B45F00105C0
:10A110003046091B5560196000F056FF0120F8BD5C
:10A120000021304601F016F8BA68831A0F2BDEDDE5
:10A13000064C0549246843F00103001B5360086086
:10A14000D5E700BF7C9E00202CB1002084A2002017
:10A15000002953D0F8B50C46064600F02FFF54F8FE
:10A1600004CC714F2CF00101A4F108056B18B868FC
:10A170005A68984222F0030253D01CF0010F5A6033
:10A1800003EB02003BD154F808CC4068A5EB0C056A
:10A1900007F1080EAC687445614400F0010075D009
:10A1A000D5F80CC0C4F80CC0CCF8084060B341F03E
:10A1B00001036B606950B1F5007F50D34B0A042B4B
:10A1C00070D88B0903F13904E40003F1380238191F
:10A1D0003B590838984278D05A6822F003028A42E4
:10A1E00071D99B689842F7D1C368C5E902039D60A5
:10A1F000C5603046BDE8F84000F0E6BE70474068F4
:10A2000000F001000028D2D19868484C1144A042C7
:10A2100041F0010262D0DB68C36098606A606950F7
:10A22000C9E71CF0010F0A4407D154F8083CED1AA5
:10A230001A44D5E90213CB6099603D4B1B6842F08C
:10A24000010193426960BD6004D83A4B30461968F9
:10A25000FFF72EFF3046BDE8F84000F0B5BEC90854
:10A2600078684A1C012389108B40034307EBC20125
:10A2700057F832007B600839C5E9020147F83250CF
:10A28000C5603046BDE8F84000F09EBE002845D1CC
:10A290000A44D3E9021342F00100CB609960686080
:10A2A000AA50D7E7142B08D9542B1ED80B0B03F157
:10A2B0006F04E40003F16E0289E703F15C04E4003B
:10A2C00003F15B0283E718468EE793107968012259
:10A2D00002FA03F30B437B60034686E7C7E90455A4
:10A2E000C5E902006A606950B4E7B3F5AA7F06D8F1
:10A2F000CB0B03F17804E40003F1770267E740F247
:10A300005452934206D88B0C03F17D04E40003F110
:10A310007C025CE74FF47E747E2258E741F0010234
:10A320006A60196096E700BF7C9E0020849E002032
:10A3300088A200205CB1002000F000B82DE9F04FA9
:10A340000C4697B091461F46064618B1836B002B0A
:10A3500000F08F80626EA389D20702D49D0540F180
:10A36000A18003F48473B3F5847F00F09680D4F861
:10A370002880B8F1000F7FD0012F13D0022F00F0FA
:10A380008780002F00F08480636E1622D907326028
:10A3900002D4A3899A0577D54FF0FF35284617B028
:10A3A000BDE8F08F21463046FFF70AFDA38913F47C
:10A3B000805240F03181E1693B463046C047411C44
:10A3C000054600F0DC80A38922695F0740F1E88040
:10A3D0006368216BED1A09B1E06B2D1AA9444FF0A7
:10A3E000010A0027002A00F0E580B4F90C3040F69D
:10A3F0001A019AB20A4208D1520566D4944A90458D
:10A4000000F0FB8043F40063A38121463046FFF750
:10A41000D7FC002840F0BF803B464A46E169304601
:10A42000C047013000F0B780216B41B104F1400317
:10A43000994202D03046FFF78BFE00232363A389A5
:10A440002269226023F402630021A3816160082253
:10A4500004F15C0000F068FD656E15F0010503D1A4
:10A46000A3899B0540F193800025284617B0BDE8DD
:10A47000F08FFFF72BFD6DE7636E1D22D80732606A
:10A480008AD4A3899A0587D4A06D00F07FF983E769
:10A490004FF0000A22695546A4E721463046FFF7EF
:10A4A0008FFC64E7A06D00F06FF9A38959E7019A6A
:10A4B000B4F90C3002F47042B2F5004FA2D143F46B
:10A4C00080634FF48062A381E264002F40F08880B3
:10A4D000CB46BAF1000F72D1A389DB047ED4524679
:10A4E0000123E1693046C047451C8ED06368216B6B
:10A4F000C51A1A46002968D0E06B2D1AA26BD4F851
:10A5000010C01D44A2EB0C02AD1A0244AB4580F210
:10A510008580E56CE1696D4205EA0B052A4600235A
:10A520003046C04701303FF470AF2369216B236090
:10A530000023636041B104F14003994202D03046E8
:10A54000FFF706FE00232363A389BBEB050B23F073
:10A550002003A38110D02146304600F06FFD002873
:10A560007FF453AF63685B45FFF44FAF2268A3EB02
:10A570000B035A44C4E900230822002168E7636EF4
:10A58000DA073FF509AFA3899B053FF505AFA06D3D
:10A5900000F0FCF802E7636ED9077FF5FAAEFBE640
:10A5A00018077FF51BAF2368002B3FF417AF9B1AEA
:10A5B0001D4413E72146304600F018F915E7216BDA
:10A5C00011B16368E06B99E762682068D4F810C045
:10A5D000A0EB0C002D1A0244002197E7206D85E7BF
:10A5E0006A46B4F90E10304600F034F800287FF4C3
:10A5F0000CAF049B09EB030B6BE7B4F90E100029B9
:10A60000FFF600AF6A46304600F024F800283FF419
:10A610004EAFB4F90C30F5E6256DD5E6AB185B45C9
:10A620007FF677AFABEB05050CEB0503521BC4E9D6
:10A63000003241B104F14003994202D03046FFF7A5
:10A6400087FD00232363A38923F02003A38193E7DD
:10A6500069B3020038B50B46074C0546114618464B
:10A660000023236004F09EFF431C00D038BD236804
:10A67000002BFBD02B6038BD10B200202DE9F0413B
:10A6800010F538771BD088460026D7E90154013DE4
:10A690000FD4A389012B05F1FF35204605D9B4F964
:10A6A0000E30013301D0C04706436B1C04F168042F
:10A6B000EFD13F68002FE8D13046BDE8F0813E463B
:10A6C0003046BDE8F08100BF2DE9F84310F538773A
:10A6D0001FD0884606464FF00009D7E90154013DD6
:10A6E00011D4A389012B05F1FF352146304606D947
:10A6F000B4F90E30013302D0C04749EA00096B1C9F
:10A7000004F16804EDD13F68002FE6D14846BDE86A
:10A71000F883B9464846BDE8F88300BF70B50D4ED2
:10A720000D4D761BB61006D00024013455F8043BBD
:10A730009847A642F9D1094E094D761B05F07EFDDA
:10A74000B61006D00024013455F8043B9847A642C1
:10A75000F9D170BD90A2002090A200209CA2002000
:10A7600090A20020044B054A1B685B6B002B08BFBE
:10A77000134693F828017047E4980020109D0020AC
:10A78000704700BF704700BF704700BF704700BFF1
:10A7900070B50C46B1F90E10002996B015461E464C
:10A7A0000FDAA289002312F08000336004D14FF445
:10A7B00080632B6016B070BD402218462A6016B028
:10A7C00070BD6A46FFF746FF0028EADB019B03F4F1
:10A7D0007043A3F50053B3FA83F35B094FF480622F
:10A7E0004FF4006033602A6016B070BD8A8992070A
:10A7F0000B4606D501F1430201211A60C3E9042189
:10A80000704770B582B001AB6A460C460546FFF74B
:10A81000BFFF00990646284600F032F8B4F90C3024
:10A82000D8B11649E963019A0099206043F080038A
:10A83000A381C4E904011AB93343A38102B070BDF6
:10A840002846B4F90E1003F017FDA0B1A38923F038
:10A85000030343F001031BB2EEE79A05EED423F0A5
:10A86000030304F1430243F002030121A3812260A8
:10A87000C4E90421E2E7B4F90C30DDE7919E02005F
:10A880002DE9F04F01F10B05162D83B0064623D8B4
:10A89000102900F2B98000F091FB10251823022046
:10A8A000C54F3B44A3F108025C68944200F0668106
:10A8B000636823F003032344D4E902515A68E96032
:10A8C00042F001028D6030465A6000F07DFB083492
:10A8D000204603B0BDE8F08F35F0070500F1948005
:10A8E000A94200F2918000F069FBB5F5FC7FC0F051
:10A8F00083816B0A00F08F80042B00F24681AB0944
:10A9000003F1390003F1380CC300AB4F3B44A3F112
:10A9100008015C68A14206D10CE0002A80F21D818A
:10A92000E468A14206D0636823F003035A1B0F2A90
:10A93000F3DD60463C69DFF894C2644571D063681A
:10A9400023F003035A1B0F2A00F34481002AC7E9AE
:10A9500004CC80F22681B3F5007F80F06981DB08AA
:10A96000591C7A6857F83180C4F808804FF0010EFE
:10A970009B100EFA03F307EBC10E1343AEF108026E
:10A98000E2607B6047F83140C8F80C408210012437
:10A9900094409C424BD81C4206D120F00300640036
:10A9A0001C4200F10400FAD007EBC009CE468046F5
:10A9B000DEF80C309E4507D122E1002A80F2298181
:10A9C000DB689E4500F01C81596821F003014A1B99
:10A9D0000F2AF2DDD3E9028E5C1945F001055D60B6
:10A9E00042F00105C8F80CE03046CEF80880C7E90F
:10A9F0000444C4E902CC65605A50019300F0E4FAC3
:10AA0000019B03F1080463E700240C232046336014
:10AA100003B0BDE8F08F4FF4007340204FF03F0CBF
:10AA200073E77B688210012494409C42B3D9BC68D0
:10AA3000636823F00309A94503D3A9EB05030F2B92
:10AA40007BDC5E4BDFF888A11A68DAF8003001334E
:10AA500005EB020800F0488108F5805808F10F085E
:10AA600028F47F6828F00F084146304600F072FB5A
:10AA7000B0F1FF3F834600F0048104EB0900584524
:10AA800000F2FD804E4A13684344136000F04D818C
:10AA9000DAF8001001311BBFABEB00001B18CAF83D
:10AAA00000B013601BF0070300F03481C3F108010C
:10AAB000C3F580538B440833D844C8F30B08A3EB89
:10AAC000080841463046019200F044FB431C019ABD
:10AAD00000F04681A0EB0B01414441F001011368F5
:10AAE000C7F808B04344BC42CBF80410136015D03B
:10AAF000B9F10F0F40F230816068A9F10C0121F02B
:10AB0000070100F0010004EB010C08434FF0050EB3
:10AB10000F296060CCE901EE00F23A81294A2A4807
:10AB20001168BC688B42016888BF136062688B4201
:10AB300022F0030288BF0360A7E0621943F001031B
:10AB400045F0010565603046BA60536000F03CFA9C
:10AB50000834204603B0BDE8F08F2344E1685A680A
:10AB6000A56842F00102E96030468D605A6000F04D
:10AB70002BFA0834204603B0BDE8F08FDC68A3420E
:10AB800008BF02303FF4D6AE92E6142B71D9542B95
:10AB900000F2AD802B0B03F16F0003F16E0CC300CC
:10ABA000B3E6234430465A6842F001025A60083442
:10ABB00000F00AFA8CE600BF7C9E00205CB1002009
:10ABC0002CB1002054B1002058B10020849E0020F8
:10ABD00084A20020611945F0010E42F00105C4F87D
:10ABE00004E03046C7E90411C1E902CC4D60E250EF
:10ABF00000F0EAF908346BE6E80805F108034FE6CF
:10AC000008F1010818F0030F0EF1080E7FF4D0AE22
:10AC100052E019441C464A68DB6854F8085F42F069
:10AC200001024A603046EB609D6000F0CDF94FE6CE
:10AC30005A0A042A35D9142A6FD802F15C01C900D6
:10AC40005B3207EB010E7958AEF1080E8E4558D0F5
:10AC50004A6822F003029A4202D989688E45F7D1E8
:10AC6000D1F80CE07B68C4E9021ECEF80840CC6045
:10AC70008CE603F15C0003F15B0CC30045E6BC42CB
:10AC800072D0BC68626822F003029542A2EB050311
:10AC900002D80F2B3FF751AF304600F095F9002452
:10ACA00016E69A0902F13901C9003832C9E7D9F824
:10ACB0000090994540F0838010F0030FA9F108033C
:10ACC00000F1FF30F3D17B6823EA04037B6064006A
:10ACD0009C423FF6ACAE1CB9A9E6640008F104083A
:10ACE0001C42FAD040465FE608F11008BCE6B3F516
:10ACF000AA7F26D8EB0B03F1780003F1770CC30091
:10AD000003E67B6892104FF0010808FA02F2134341
:10AD10007B60A8E74FF48053CEE6542A29D81A0B5B
:10AD200002F16F01C9006E328BE7C0F30B010029FD
:10AD30007FF4AEAE09EB0802B96842F001024A6046
:10AD4000ECE640F2545293421CD8AB0C03F17D0068
:10AD500003F17C0CC300D8E50123CBF804309BE75A
:10AD600001214FF00008BAE6164A13684344136005
:10AD70008EE6B2F5AA7F14D8DA0B02F17801C90089
:10AD800077325EE74FF47E737F204FF07E0CBCE598
:10AD900004F1080130460192FFF7DAF9019A1368CD
:10ADA000BCE640F254518A4205D89A0C02F17D016A
:10ADB000C9007C3245E74FF47E717E2241E77B6813
:10ADC00085E700BF2CB1002082B049B15AB16BB108
:10ADD00013780B601278101C18BF012002B0704766
:10ADE00001A9002AF3D1104602B070476FF00100AC
:10ADF000F4E700BF844641EA000313F003036DD17A
:10AE0000403A41D351F8043B40F8043B51F8043B2D
:10AE100040F8043B51F8043B40F8043B51F8043B34
:10AE200040F8043B51F8043B40F8043B51F8043B24
:10AE300040F8043B51F8043B40F8043B51F8043B14
:10AE400040F8043B51F8043B40F8043B51F8043B04
:10AE500040F8043B51F8043B40F8043B51F8043BF4
:10AE600040F8043B51F8043B40F8043B51F8043BE4
:10AE700040F8043B51F8043B40F8043B51F8043BD4
:10AE800040F8043B403ABDD2303211D351F8043B74
:10AE900040F8043B51F8043B40F8043B51F8043BB4
:10AEA00040F8043B51F8043B40F8043B103AEDD223
:10AEB0000C3205D351F8043B40F8043B043AF9D274
:10AEC000043208D0D2071CBF11F8013B00F8013B47
:10AED00001D30B8803806046704700BF082A13D354
:10AEE0008B078DD010F003038AD0C3F10403D21A6C
:10AEF000DB071CBF11F8013B00F8013B80D331F8A0
:10AF0000023B20F8023B7BE7043AD9D3013A11F81F
:10AF1000013B00F8013BF9D20B7803704B7843708A
:10AF20008B78837060467047F0B4860743D0541E18
:10AF3000002A3ED0CAB2034602E014F1FF3438D3EF
:10AF400003F8012B9D07F8D1032C2BD9CDB245EA8C
:10AF500005250F2C45EA054516D9A4F110073F0930
:10AF600003F1200606EB071603F1100242E904552F
:10AF700042E902551032B242F8D104F00F04013711
:10AF8000032C03EB07130DD91E462246043A032A6D
:10AF900046F8045BFAD8221F22F00302043213445D
:10AFA00004F003042CB1C9B21C4403F8011B9C42F9
:10AFB000FBD1F0BC704714460346C5E70148FFF7D4
:10AFC000E3BB00BFFCB100200148FFF7DFBB00BFBF
:10AFD000FCB1002070B50D46084C114606461A46D5
:10AFE00028460023236004F0F5FA431C00D070BD0E
:10AFF0002368002BFBD0336070BD00BF10B200206F
:10B000000FB400B5074983B004AB086853F8042BAC
:10B010008168019300F0A4FA03B05DF804EB04B07A
:10B02000704700BFE4980020838903F00903092BCF
:10B0300001D000207047FEF7F1BE00BFF8B50C4606
:10B04000054610B1836B002B40D0B4F90C309AB296
:10B05000970407D4626E43F4005322F400526266F0
:10B06000A3819AB200219606616038D450071AD4A1
:10B07000D10662D512074ED443F00403A38123699D
:10B08000002B55D0B4F90C70BEB2B3072AD1226997
:10B09000226028466369256AE169A8470028606044
:10B0A00017DD0020F8BD216B0029E8D004F1400332
:10B0B000994202D02846FFF74BF8E36B636000200B
:10B0C0002063002BDBD0A36B2360F8BDFEF7FEFEF0
:10B0D000BBE7B4F90C3016D143F02003A3814FF045
:10B0E000FF30F8BD194B1A4918680123A38106F0F7
:10B0F0000906FFF7C3FA092EA781C8D121462846C1
:10B10000FEF7B4FDC3E743F040030022A381626071
:10B110004FF0FF30F8BD21462846FEF751FE0028CB
:10B12000DDD1B4F90C30A060A06123F00803A3E7DF
:10B1300021462846FFF75AFBA4E743F040030922C3
:10B140002A604FF0FF30A381F8BD00BF181A03003A
:10B1500029B0020038B5074C002305460846236095
:10B1600004F048FA431C00D038BD2368002BFBD004
:10B170002B6038BD10B2002000290CBF0222002233
:10B180004FF4806300F000B82DE9F0435D4C256872
:10B1900083B00446884616461F4615B1AB6B002B9C
:10B1A0007ED0022E05D0012E00F2A980002FC0F221
:10B1B000A680636EDA0735D521462846FEF700FEE5
:10B1C000216B41B104F14003994202D02846FEF7B9
:10B1D000BFFF00232363B4F90C3000221806A261DC
:10B1E000626061D423F44A6323F00303022EA38137
:10B1F0001FD10025616E002004F1430243F00203D9
:10B20000A060C9074FF00100A3812260C4E90420B7
:10B2100004D49B0502D4A06DFFF7B8FA284603B00A
:10B22000BDE8F083A3899B05C6D4A06DFFF7ACFAF7
:10B23000C2E701AB6A4621462846FFF7A9FAA3896F
:10B240001843A081002F36D1009F384603F04AF8FA
:10B250008046002842D0A38943F08003A381AB6BD2
:10B260007BB3009AB4F90C30C4F80080BA421CBF1A
:10B2700043F40063A381012E04BF43F00103A381C3
:10B280009BB213F00802C4E904871ED1A260656E68
:10B2900015F00105BDD00025284603B0BDE8F083B8
:10B2A0002846FEF713FE7CE721692846FEF750FF8B
:10B2B000B4F90C3096E7B8F1000FC6D0AB6B002B99
:10B2C000CFD12846FEF702FECBE7DA0704D57F424E
:10B2D0000022A761A260DAE7A760D8E7DDF8009056
:10B2E000B94504D1B4F90C304FF0FF3582E7484638
:10B2F00002F0F8FF80460028F4D04F46ABE74FF04D
:10B30000FF358BE7E498002010B50C46B1F90E101C
:10B3100003F058FB002803DB236D0344236510BDB5
:10B32000A38923F48053A38110BD00BF2DE9F04110
:10B330001646B1F90C201F46D3050C460546B1F957
:10B340000E1007D50022022302F0B6FFB4F90C203C
:10B35000B4F90E1022F48052A2813B4632462846B0
:10B36000BDE8F041FBF7B0BD10B50C46B1F90E10C9
:10B3700002F0A2FFA389421C0EBF23F4805343F4C2
:10B3800080532065A38110BDB1F90E1001F06CBF90
:10B3900080EA0102844612F0030F4FD111F0030F2F
:10B3A00032D14DF8044D11F0040F51F8043B0BD08D
:10B3B000A3F101329A4312F0803F04BF4CF8043BE2
:10B3C00051F8043B16D100BF51F8044BA3F10132F0
:10B3D0009A4312F0803FA4F101320BD14CF8043BA8
:10B3E000A24312F0803F04BF51F8043B4CF8044BD9
:10B3F000EAD023460CF8013B13F0FF0F4FEA33234A
:10B40000F8D15DF8044B704711F0010F06D011F828
:10B41000012B0CF8012B002A08BF704711F0020F16
:10B42000BFD031F8022B12F0FF0F16BF2CF8022B01
:10B430008CF8002012F47F4FB3D1704711F8012B24
:10B440000CF8012B002AF9D1704700BF0000000062
:10B4500000000000000000000000000000000000EC
:10B4600000000000000000000000000000000000DC
:10B4700000000000000000000000000000000000CC
:10B4800090F800F06DE9024520F007016FF0000C24
:10B4900010F0070491F820F040F049804FF00004CC
:10B4A0006FF00700D1E9002391F840F000F10800A7
:10B4B00082FA4CF2A4FA8CF283FA4CF3A2FA8CF3DF
:10B4C0004BBBD1E9022382FA4CF200F10800A4FA46
:10B4D0008CF283FA4CF3A2FA8CF3E3B9D1E904239A
:10B4E00082FA4CF200F10800A4FA8CF283FA4CF3D1
:10B4F000A2FA8CF37BB9D1E9062301F1200182FA8B
:10B500004CF200F10800A4FA8CF283FA4CF3A2FA90
:10B510008CF3002BC6D0002A04BF04301A4612BA9E
:10B52000B2FA82F2FDE8024500EBD2007047D1E9A1
:10B53000002304F00305C4F100004FEAC50514F030
:10B54000040F91F840F00CFA05F562EA05021CBF01
:10B5500063EA050362464FF00004A9E7000000001B
:10B560002DE9F04FD7B01C46894617460546039093
:10B5700002F094FE036816931846FFF781FF0894C3
:10B5800015901DB1AB6B002B00F00781D9F864104A
:10B59000B9F90C20C80793B202D4990540F11F8174
:10B5A0009E040AD4D9F8641042F4005321F40051E7
:10B5B000A9F80C30C9F864109BB21D0740F1B280A5
:10B5C000D9F81020002A00F0AD8003F01A020A2AF0
:10B5D00000F0C98000239FED867B1093CDE92B33CB
:10B5E0001793CDE919331B93189305932DAB2A9329
:10B5F0009B463B78CDF81C908DED127B002B00F024
:10B600005982252B3C4602D11DE0252B03D014F88E
:10B61000013F002BF9D1E51B8DB1DDE92B32013360
:10B620002A44072BCBF80070CBF80450CDE92B321D
:10B6300000F3CA800BF1080B059B2B44059323787C
:10B64000002B00F0378200236678069398468DF829
:10B650008B3004F1010A4FF0FF392B250AF1010A62
:10B66000A6F120035A2B00F22A84DFE813F0AA0384
:10B67000280428049C02280428042804A70228047B
:10B680002804C602D2022804D702DC022804F602EB
:10B690006D026D026D026D026D026D026D026D0232
:10B6A0006D022804280428042804280428042804F7
:10B6B000FB0228043C03F303FB02FB02FB02280409
:10B6C000280428042804EE03280428049A002804E7
:10B6D000280428045003280479032804280490032C
:10B6E00028042804280428042804280428042804FA
:10B6F000FB0228043C03C500FB02FB02FB02D10352
:10B70000C50070002804B5032804C2039C00DE03B2
:10B7100070002804500372002C02280428047C02C4
:10B72000280472004946039801F0B4FCA0B1D9F88E
:10B730006430D80704D4B9F80C30990540F1B783C8
:10B740004FF0FF330593059857B0BDE8F08F48F0F0
:10B7500020089AF8006081E7B9F80C3003F01A026B
:10B760000A2A7FF437AFB9F90E20002AFFF632AF6C
:10B77000D9F86420D20705D49B0503D4D9F8580022
:10B78000FFF704F823463A464946039801F032FC95
:10B790000590059857B0BDE8F08F0398FEF796FB2B
:10B7A000F4E648F0100818F0200F00F06C83089CB5
:10B7B000073424F00703D3E9004503F10802089297
:10B7C00028F4806300228CE12AAA0799039803F0E9
:10B7D000B1F9002841F076830DF1B40B2CE7D9F8CC
:10B7E0005800FEF7D1FFB9F90C2093B2D8E600BF9C
:10B7F000000000000000000043469F0640F12F8338
:10B80000089C073424F00704D4E9000104F108027D
:10B81000089204460D46002871F1000205DA2D2237
:10B82000644265EB45058DF88B2056AAB9F1FF3FC0
:10B83000049200F0B284012254EA050123F080084A
:10B8400040F05981B9F1000F40F01986002A40F00C
:10B85000088513F0010356AF099302D0302307F88F
:10B86000013D00230A930F9314931193099B9DF8B4
:10B870008B204B45B8BF4B46049312B1049B013358
:10B88000049318F002030B9302D0049B0233049339
:10B8900018F084032C9C0E933FD1069B04995D1AEB
:10B8A000002D3ADD102D2B9A29DD59462046209691
:10B8B0001023039C079EBB4604E0103D102D01F1B0
:10B8C000080118DD0132BA4F1030072ACDE92B20CC
:10B8D000C1E90073F1DD2AAA314620460C9303F03A
:10B8E00029F9002840F03D84103D102DDDE92B2082
:10B8F0002DA90C9BE6DC209E5F4604468B46013258
:10B90000AB4B2C44072ACDE92B24CBE9003500F3BF
:10B91000FF849DF88B200BF1080B72B12B9A01323A
:10B9200001340DF18B000121072ACDE92B24CBE94D
:10B93000000100F318840BF1080B0B9B6BB12B9BE0
:10B940000133023423A90222072BCDE92B34CBE9A2
:10B95000001200F315840BF1080B0E9B802B00F0F6
:10B960003183099BA9EB0305002D37DD102D2B9AA0
:10B97000904B28DD59462046BB464FF0100937460C
:10B980001C46079E04E0103D102D01F1080115DD55
:10B9900001321030072ACDE92B20C1E90049F2DD40
:10B9A0002AAA3146039803F0C5F8002840F0D9834D
:10B9B000103D102DDDE92B202DA9E9DC3E46234664
:10B9C0005F4604468B4601322C44072ACDE92B24DE
:10B9D000CBE9003500F3EF830BF1080B18F4807FFF
:10B9E00040F080822B9B099ACBF8007001331444FD
:10B9F000072B2C94CBF804202B9300F392830BF1AC
:10BA0000080B18F0040F3BD0069B049A9D1A002DDA
:10BA100036DD102D2B9B21DD1026039FDDF81C80C9
:10BA200004E0103D102D0BF1080B17DD0133604AC7
:10BA30001034072BCDE92B34CBE90026F1DD2AAAFF
:10BA40004146384603F076F8002840F06C85103DFA
:10BA5000102DDDE92B340DF1B40BE7DC0133544A32
:10BA60002C44072BCDE92B34CBE9002508DD2AAA8D
:10BA70000799039803F05EF8002840F0E9822C9CB7
:10BA80000499DDE905328A42ACBF9B185B18059327
:10BA9000002C40F0D58200232B930A9B1BB10A99FE
:10BAA0000398FEF755FB0DF1B40B57463B78002B7E
:10BAB0007FF4A7AD2C9BDDF81C90002B41F0E780B4
:10BAC00000232B93CBE243469A0640F14E81089C1B
:10BAD000073424F0070202F10801D2E90045089179
