:020000022000DC
:1060000000000120C1C50200E9C50200D5700200F0
:10601000EDC50200EFC50200F1C50200000000005E
:10602000000000000000000000000000F3C50200B6
:10603000F5C5020000000000F7C50200F9C5020026
:10604000698A0200FBC50200218F02001998020034
:106050003D920200FBC50200958D02009190020066
:10606000E9970200F9970200FBC50200FBC5020098
:10607000FBC50200FBC50200FBC50200FBC5020018
:10608000FBC50200756B0200FBC50200FBC50200E8
:10609000116C0200FBC5020079BA0200FBC50200C8
:1060A000FBC50200FBC50200FBC50200FBC50200E8
:1060B00049900200FBC50200000000000000000043
:1060C000FBC502005990020069900200FBC5020066
:1060D000FBC50200FBC50200FBC50200000000007A
:1060E00000000000000000000000000000000000B0
:1060F00000000000000000000000000000000000A0
:10610000000000000000000000000000000000008F
:10611000000000000000000000000000000000007F
:10612000000000000000000000000000000000006F
:10613000000000000000000000000000000000005F
:10614000000000000000000000000000000000004F
:10615000000000000000000000000000000000003F
:10616000000000000000000000000000000000002F
:10617000000000000000000000000000000000001F
:10618000000000000000000000000000000000000F
:1061900000000000000000000000000000000000FF
:1061A00000000000000000000000000000000000EF
:1061B00000000000000000000000000000000000DF
:1061C00000000000000000000000000000000000CF
:1061D00000000000000000000000000000000000BF
:1061E00000000000000000000000000000000000AF
:1061F000000000000000000000000000000000009F
:1062000010B5054C237833B9044B13B10448AFF3F0
:1062100000800123237010BD98A200200000000020
:106220002C5F030008B5034B1BB103490348AFF3D0
:10623000008008BD000000009CA200202C5F03002D
:10624000154B002B08BF134B9D46A3F5803A002148
:106250008B460F461348144A121A06F0F3FA0F4BF6
:10626000002B00D098470E4B002B00D09847002001
:10627000002104000D000D48002802D00C480AF04F
:1062800089F806F0CBF92000290000F05DF806F04F
:10629000B5F900BF00000800000001200000000068
:1062A0000000000098A2002040B3002095030300E6
:1062B0006515030030B5C37AAA2B85B0044632D1E8
:1062C000037BAA2B2FD1037CC02B2CD1837BE52B06
:1062D00029D10121174800F02DF9174A04F10A03CA
:1062E00004F1100112F8015F13F8010F85421AD171
:1062F0008B42F7D1256A00235A1CE95CA85CFF2871
:1063000013D11C1D0D4806F0E7FA29570C4806F07A
:10631000E3FA10212B570B4A684606F0B9FB00211F
:10632000684600F007F905B030BD53181E2BE3D9BD
:10633000F9E700BF8E410300874103009641030047
:10634000A2410300B141030070B5264C94E80F0050
:106350008CB06D46103485E80F0094E80F0004AE51
:1063600086E80F0000231A463146284601F0EEF871
:1063700018B11D4A722100F0AAFB284600F062F80D
:106380001A4806F0A9FA1A4B0FCB08AC84E80F00A4
:106390001322142321461748CDE9082302F036FAC8
:1063A00018B1114A7C2100F092FB1248124C00F007
:1063B00047F9124806F090FA00F094F9104806F0F8
:1063C0008BFA104805F04CFF0F4B186005F016FFD4
:1063D00005F028FF05F038FF0121204600F0AAF85B
:1063E000F8E700BF58410300B4410300BB4103007C
:1063F0007841030004420300F8410300D141030047
:10640000E3410300A89800208CB200201FB50022B1
:106410000091022369460430CDE90132039203F072
:106420004DF805B05DF804FB38B5054D0A2445F07C
:1064300001054FF47A40A847013CFAD138BD00BFAE
:106440002042030073B502AC0E2324F8043D374EFE
:1064500021463060FFF7DAFF0546C0B1344A182103
:1064600000F035FB284602B070BD314A2221F7E723
:106470002F4A2C21F4E72E4A3621F1E72C4A4021FD
:10648000EEE72B4A4A21EBE7294A5421E8E7FFF7D8
:10649000CBFF022321463068ADF80430FFF7B6FF8A
:1064A00005460028E1D1FFF7BFFF4FF480432146A6
:1064B0003068ADF80430FFF7A9FF05460028D7D1B2
:1064C000FFF7B2FF48F2010321463068ADF804300F
:1064D000FFF79CFF05460028CDD1FFF7A5FF4FF43D
:1064E000004321463068ADF80430FFF78FFF0546C2
:1064F0000028C3D1FFF798FF44F203032146306818
:10650000ADF80430FFF782FF05460028B9D1FFF748
:106510008BFF402321463068ADF80430FFF776FF4B
:1065200005460028B0D1FFF77FFF9BE7F4A20020CB
:10653000264203002DE9F34107460C4606F060FBB6
:10654000102806463CD85CBB02A9202321F8043D54
:106550001F4B1868FFF75AFF0446C8B9DFF8708070
:106560000025B54238BF7B5DD8F8000028BF202346
:106570009A0862F07F029B0101A98DF804208DF832
:106580000530FFF743FF0446F0B1124A8E2101E0C7
:10659000104A6D2100F09BFA204602B0BDE8F08160
:1065A000012C0FD102A9302321F8043D084B1868B3
:1065B000FFF72CFF04460028D0D0064A7521E9E7F2
:1065C0000924E9E70B24E7E70135102DC9D1E3E7FA
:1065D000F4A2002026420300704700007FB540006F
:1065E00003AB8DF80C108DF8150000210B480493B7
:1065F000009102238DF80D208DF8143004AA012398
:1066000000688DF8161002F06DF918B1044A3221B5
:1066100000F05DFA07B05DF804FB00BFF8A20020AF
:10662000A042030038B5054D044645F001054FF47E
:106630007A40A847013CFAD138BD00BF9042030020
:1066400007B5234B234A186092E803006B4683E8A2
:106650000300214A2148194603F00EF818B1204AD8
:10666000432100F034FA80226B216820FFF7B6FF47
:106670006420FFF7D7FF00226B216820FFF7AEFFF1
:1066800000226A216820FFF7A9FF0320FFF7CAFF55
:10669000022237216820FFF7A1FF18221B21682062
:1066A000FFF79CFF00221C216820FFF797FF0122C3
:1066B0000B210C20FFF792FF6420FFF7B3FF0222AB
:1066C0000A210C20FFF78AFF03B05DF804FB00BF2E
:1066D000F8A2002080420300D9650200984203001E
:1066E000A042030008B500F04FFE852804D018B181
:1066F0000B4A2D2100F0EBF9002000F061FE00F0C4
:10670000D9FB852804D018B1054A332100F0DFF900
:10671000044A05490548BDE8084001F0ABBE00BF8A
:10672000F542030080430300544303009C430300ED
:1067300038B5054D044645F001054FF47A40A847A9
:10674000013CFAD138BD00BF804403007FB5054647
:106750000E46144672B601F0DBFA01F027F9002864
:10676000FBD13E4806F0B8F841F201039D4264D0E7
:1067700006D8012D12D03146394806F0ADF810E0A8
:1067800044F201039D425AD044F202039D42F2D1E9
:1067900022886168334806F09FF802E0324806F02C
:1067A0009BF802F003FA08B902F0CAF90023ADF829
:1067B0000C308DF80E3003A9012319208DF80D300F
:1067C00002F0FEF903A9182002F0FAF903A9172034
:1067D00002F0F6F9192002F0AFFA182002F0ACFA34
:1067E000172002F0A9FA4FF4FA70FFF7A1FF192061
:1067F00002F074FA182002F071FA172002F06EFA13
:106800003220FFF795FF192002F096FA182002F0C7
:1068100093FA172002F090FA4FF4FA70FFF788FF0E
:10682000192002F05BFA182002F058FA172002F043
:1068300055FAFA20FFF77CFFCCE70C48AFE7A568D4
:10684000284601F0D1FE2368019600930246636852
:106850000748294606F040F8A3E700BFC4430300F9
:10686000614403001C440300DD430300FA430300BA
:106870003744030007B502F099F908B902F060F94E
:106880000023ADF804308DF8063001A9012319204A
:106890008DF8053002F094F901A9182002F090F962
:1068A00001A9172002F08CF9192002F045FA1820EE
:1068B00002F042FA172002F03FFA4FF4FA70FFF7A5
:1068C00037FF192002F00AFA182002F007FA172001
:1068D00002F004FA3220FFF72BFF192002F02CFA05
:1068E000182002F029FA172002F026FA4FF4FA7065
:1068F000FFF71EFF192002F0F1F9182002F0EEF95F
:10690000172002F0EBF9FA20FFF712FFCCE703693A
:10691000C1688B429DBF8268D21802F1FF3203F139
:10692000FF3394BF501A581A70472DE9F041D0E94F
:1069300002670446F61B406896428846154638446E
:1069400005D905F0E5FE3D44E560BDE8F08132463D
:10695000AD1B05F0DDFE2A4608EB0601606805F078
:10696000D7FEF1E72DE9F843C56806468946174684
:106970004FF000083469B3687068A54228BFE41876
:10698000013C621B5C1BBC4228BF3C46944228BFB2
:10699000144649462844224605F0BAFEB368254409
:1069A000AB4208BF00253F1BA044A144F560E1D1E4
:1069B0004046BDE8F883000010B5114C114AA261B1
:1069C0000223C4E90433104BE361A2644FF4007363
:1069D0000E4A2362E264002310220D49A362E01DE7
:1069E0006362E362A3656365E365226506F098F878
:1069F0000849204606F094F82023A37110BD00BF7B
:106A000090B20020864403007CA500206CA50020E5
:106A10008F44030093440300F8B5184C182300FB7F
:106A2000033503FB00402544C46A012C0F4616467B
:106A300011D003D3022C1BD000240AE02846FFF714
:106A400066FF864205D8324639462846FFF76DFF75
:106A500034462046F8BD2846FFF759FF86423446A3
:106A600028BF0446224639462846FFF75EFFF0E776
:106A70002846BDE8F840FFF775BF00BF90B2002080
:106A800073B50D4B1B7804460D4616460BB9FFF740
:106A900093FF02A8002300F8013D00F0C3FA32463C
:106AA00029462046FFF7B8FF04469DF8070000F08E
:106AB000E9FA204602B070BD90B2002010B5114630
:106AC0001C461A460020FFF7DBFF204610BD00B52C
:106AD00083B002900091019244F2010071466A462F
:106AE000FFF734FE03B000BD094A537891780133B3
:106AF000DBB2994208BF0023117899421FBF03708F
:106B00005078182303FB002014BF04300020704786
:106B10007CA7002073B5054602A8002400F8014DAB
:106B20000E4600F07FFA0DF10600FFF7DDFF90B191
:106B300006700A4B9DF8062045605A709DF80700C4
:106B400000F0A0FA24B9064B4FF48012C3F80021DC
:106B5000204602B070BD0424F0E700BF7CA70020EF
:106B600000E100E0024B4FF43C6043F001031847A2
:106B7000A0440300F8B51F491F4B0025C1F8405140
:106B8000C1F84451C1F84851C1F84C51C1F8005105
:106B9000C1F804511B684BB3D1F804451749096883
:106BA000641A24F07F442F461A68A24209D8A41A16
:106BB00015441A7CDE691AB11F74D3E90520904789
:106BC000AEB90F4B0F4A197813788B4205D10133B8
:106BD000DBB2022B08BF0023137012780A4B43F874
:106BE00022500A4B4FF48012C3F80021F8BD3346FF
:106BF000DAE700BF001001409CA8002098A8002000
:106C000094A8002095A800208CA8002000E100E0B6
:106C10002DE9F74F9C4A9D49137809789C4D99427C
:106C20003CD00133DBB2022B08BF0023137099491B
:106C30001278994B0F6853F822003B1823F07F43DA
:106C400000220B602B6816461446944613B942B1D5
:106C50002B6006E0196881420ED902B12B60091A37
:106C600019604FF001082B68DFF834A20093002769
:106C7000BEB9DFF834B260E0401A0C44D968C3F8FA
:106C800000C0D3F81CE031B13A1922F07F42C3E9C9
:106C90000121DE611E4601227346D7E70026B04679
:106CA000E1E73446F6697B4A63681268DFF8FCC1A5
:106CB000A068991A21F07F41614500F2A580014446
:106CC0002160012222742A680023C4E90133E361B0
:106CD000002A40F0A2802C60CAE75A1C9BF80210E0
:106CE000D2B291428BF8002004BF00228BF8002022
:106CF000182202FB03B32A6819799C68022974D010
:106D000003297ED0012918D1217CB1B9DA686260EB
:106D10001A69A2605A69E2609B69A3615F4B1B78A4
:106D2000002BC0D06160BEE79C4200F09080994685
:106D3000DB69002BF8D1002323749BF800309BF80B
:106D400001209A42C9D12B682FB9009A934202D1EF
:106D5000B8F1000F43D0002B41D0D3F800A0504D24
:106D60004C4BD5F804751C68DFF844813E1B98F83D
:106D7000003026F07F4603369BB94FF48033C5F8C8
:106D80004433C5F80433474B4FF400324FF0010948
:106D9000C3F880211A60C5F80090FFF7E3FE88F879
:106DA0000090B2452CBF5444A41924F07F44C5F888
:106DB0004045D5F80435DB1B23F07F43E41B033348
:106DC00024F07F44A3420AD9D5F80435C5F84035EC
:106DD000FFF7C8FE334B4FF40032C3F800212F4BAE
:106DE00000221A7003B0BDE8F08F13469146A0E769
:106DF0001174D2690123002AFAD1002B9DD02A6098
:106E00009BE700231946F6E7D31A23F07F4383421A
:106E100034BFC31A0023236053E7216813689942E3
:106E200013D8591A1160E26155E7091AD8691A4650
:106E300038B1034618688842F7D3401A18601846DC
:106E400013462160E061DC6112E71346F2E74C452E
:106E50000DD1D3692B6053B90E4801920121CAF8B4
:106E6000081003600D4B1970FFF77CFE019AE16971
:106E70002368C9F81C1011B1086803440B602B6823
:106E80009A4218BF012756E794A8002095A8002031
:106E90009CA8002098A800208CA8002088A800208A
:106EA0000010014000E100E07CA70020FEFF7F0011
:106EB00089A80020F8B5194E194D1A4F4FF4003328
:106EC000C6F8803001244FF48033C5F84833C5F844
:106ED00008336C60FFF746FEAC6000243C60FFF7AF
:106EE00041FE114B1C70114B0B221C809A70104BF1
:106EF0001C60104B1C70104B4FF480121C70E02370
:106F0000C6F8802186F814333260C5F8084586F843
:106F10001133D5F804353B602046F8BD00E100E0B0
:106F20000010014098A8002089A800207CA700201C
:106F30009CA8002094A8002095A80020074B9B78CF
:106F40004BB132B128B10368187C20B959745A6129
:106F50007047072070470820704700BF7CA70020BB
:106F60002DE9F7431D4FBB7805460E4690469BB36F
:106F700090B304292ED9436973B3437C02A800243B
:106F8000012B00F8014D0CBF8946A14600F04AF8DC
:106F90000DF10600FFF7A8FDD0B101230370104BDF
:106FA0004560D3F80435C0E90498C0E902369DF87D
:106FB00006307B709DF8070000F064F824B9094B97
:106FC0004FF48012C3F80021204603B0BDE8F083DF
:106FD0000424EFE70724F7E70824F5E77CA700205F
:106FE0000010014000E100E0064A92783AB130B169
:106FF000426922B1002202740221FFF78BBD0820F2
:10700000704700BF7CA70020EFF30583C3F308039C
:107010002BB9EFF31480C04300F00100704701204A
:107020007047000070B50446FFF7EEFF012803D05B
:107030001049432004F09EFFEFF3108672B60E4A0B
:107040009068012398B993600C4B0D4DD3F88010D4
:1070500029401160C3F88050D3F8841051604FF07C
:10706000FF32C3F88420207006B962B670BD237069
:10707000FAE700BFA644030008B3002000E100E0E7
:10708000FC06FFBD10B50446FFF7BEFF012803D084
:107090000949512004F06EFF084B9A685AB154B95F
:1070A000EFF3108172B6064A186810605868506095
:1070B0009C6001B962B610BDA644030008B300206D
:1070C00000E100E0024B1B680021986805F018BC45
:1070D000D89800201EF0040F1CBFEFF309800AE0CF
:1070E000EFF308800549064A884201D8904202D849
:1070F0008D464FF00000034B1847000000000120B0
:1071000000E00020097102002DE9F347054600F078
:10711000FFFD00F04BFC0028FBD12F4B2F4C9F6A4A
:107120002F4BE41AE408240444F00104002D4ED04F
:10713000AA692C49204600F0BDFDEB680193AB68BD
:1071400000932949D5E90023204600F0D3FDEB69DF
:1071500000932649D5E90423204600F0BFFD1E4BCD
:10716000DB6A980703D52249204600F09FFDDFF82F
:107170009490DFF894A000264FF0010808FA06F377
:107180003B4206D059F826201AB15146204600F05D
:1071900091FD01361A2EF1D1390605D50E4B154950
:1071A0005A6B204600F086FD3A0405D50A4B124979
:1071B0009A6B204600F07EFD104B1B68DB0700D564
:1071C00000BE2846FFF756FB02B0BDE8F0870C4929
:1071D000204600F06BFDC2E700ED00E0A85F030071
:1071E000405F0300FB4403001045030045450300D6
:1071F000A0450300EF4503000F460300F0ED00E05B
:107200006D4503002C460300E445030050E8002FC1
:107210000B4640E8003C9CF0000FF7D11046704749
:1072200050E8003F43EA010240E8002C9CF0000FC8
:10723000F6D11046704750E8002F02EA010340E8FB
:10724000003C9CF0000FF6D11046704750E8003F1C
:1072500003EB010240E8002C9CF0000FF6D1104631
:10726000704750E8003FA3EB010240E8002C9CF07F
:10727000000FF6D1104670470121FFF7D1BF002162
:10728000FFF7D9BF37B5054620B914494FF49270BE
:1072900004F070FE02A8002400F8014DFFF7C2FEC2
:1072A0002A68696813688B4210D9591E116013F857
:1072B000014C2A8AEB6802FB04342A68AB68116827
:1072C0005B1A1179DBB2994238BF13719DF8070040
:1072D000FFF7D8FE204603B030BD00BF544B03007B
:1072E00037B50C46054620B9104940F2471004F066
:1072F00041FE24B90D494FF4A47004F03BFE02A8EE
:10730000002300F8013DFFF78DFE2A681368591C21
:107310001160EA68A41A2A8AB4FBF2F41C709DF882
:107320000700FFF7AFFE03B030BD00BF544B0300B2
:1073300038B5084C04F108030546002818BF1C4660
:1073400023682BB11A6822605B6828469847F7E7E4
:1073500038BD00BFA8A8002020B9054B01225A70F3
:10736000FFF7E6BF012802D1014A9070F8E77047A5
:10737000A0A8002020B9034B01225A70FFF7D8BF04
:10738000704700BFA0A8002038B50B4C237883B904
:107390000A486360A3602361E36001F0E3FA0546F5
:1073A00004F050FB08B901F0F3FA012323702846DA
:1073B00038BD8525FBE700BFA0A800205973020057
:1073C00037B51E4C237805461BB91D49E92004F04A
:1073D000D1FDA37803F0FF02D3B115B16B68012092
:1073E000984700230DF107008DF80730FFF71AFECC
:1073F000E3689DF807000133E360FFF743FEE368AD
:1074000023B90F4940F2051004F0B4FD03B030BDBC
:107410000DF107008DF80720FFF704FE25B1226962
:1074200013463BB92A602561E368002BE0D101F0E7
:10743000CDFADDE79D42F7D01B68F2E7A0A8002057
:10744000A44B030013B5154C237823B914494FF40A
:10745000857004F08FFDE36823B9114940F20B10E9
:1074600004F088FD02A8002300F8013DFFF7DAFDD3
:10747000E368013BE360E36853B904F0E3FA18B151
:107480000749792004F076FD01F0D6FA0023A370B5
:107490009DF80700FFF7F6FD02B010BDA0A8002080
:1074A000A44B0300012813B509D003D303281BD034
:1074B00002B010BD134B0122C3F88020F8E702A8E8
:1074C0000023114C00F8013DFFF7ACFD23780BB908
:1074D000FFF75AFFE3689DF807000133E3600123DB
:1074E000A370FFF7CFFDE3E7074B1B7823B90749EC
:1074F00040F2452004F03EFD01F04AFAFFF7A2FFFA
:10750000D6E700BF00E100E0A0A80020A44B0300E4
:107510007FB503788DF804304368029383688DF853
:107520000C30C368049303698DF81430054A064B88
:1075300001A853F8213052F82110984707B05DF8A0
:1075400004FB00BFB4A80020C0A80020F0B5064688
:10755000944616F8047B194A42F827C0184A42F8A4
:107560002730184B0C460FCB85B06D4685E80F00D1
:1075700023788DF8003063788DF80130A3788DF88A
:107580000230E3788DF8033023798DF80530637984
:107590008DF80630A3680293237B8DF80C30BCF184
:1075A000000F637B8DF80D30074A3B4608BF002271
:1075B0002946304601F074FE05B0F0BDC0A8002099
:1075C000B4A80020FC4B0300117502001FB503781E
:1075D0008DF8003003798DF8043043798DF805304B
:1075E00083688DF80630C3688DF80730036902930D
:1075F00043690393054A064B684653F8213052F815
:107600002110984705B05DF804FB00BFCCA800200E
:10761000D4A8002002494FF4F37004F0ABBC00BFC3
:10762000164C03001F2810B5044601D9FFF7F2FFDE
:10763000012303FA04F44FF0A043C3F8084510BD3A
:10764000024B4FF4807043F001031847104C0300C5
:107650002DE9F14F924690F80080364A42F828A072
:10766000354A42F828304B7B81460C467BB30B6889
:107670004FF0A04503F5E07340F20C6245F823207B
:107680004B6803F5E073002645F823200868FFF7F0
:10769000C9FF6068FFF7C6FF236803F5E07340F297
:1076A0000D6245F82320636803F5E0734FF0010B8A
:1076B00045F82320FFF7C4FF67681F2F01D9FFF7A4
:1076C000A9FFD5F81035FB40DB070ED506BBBAF194
:1076D000000F1A4A434608BF0022214609F1040060
:1076E00001B0BDE8F04F02F043B927681F2F01D960
:1076F000FFF790FF0BFA07F7C5F80C75FFF7A0FF2F
:1077000001362068FFF78EFFFFF79AFF092ED3D1CD
:1077100065681F2D01D9FFF77DFF4FF0A0420123BF
:10772000AB40C2F80C35FFF78BFF6068FFF77AFFBC
:10773000CDE700BFD4A80020CCA80020CD75020062
:107740001FB503788DF800304368019383688DF886
:107750000830C3680393054A054B684653F8213047
:1077600052F82110984705B05DF804FBDCA8002012
:10777000E0A800201FB503788DF80030436801931E
:1077800083688DF80830C3680393054A054B684643
:1077900053F8213052F82110984705B05DF804FBEA
:1077A000DCA80020E0A80020F0B5194B067891F87D
:1077B0001DE043F82620174B94460A6943F826201B
:1077C000154B03F806E00C4607460FCC89B06D4612
:1077D0000FC594E80F0085E80F000496BEF1000F76
:1077E0000AD0BCF1000F0D4A694608BF0022381DBF
:1077F00002F046FF09B0F0BDBCF1000F084A69462F
:1078000008BF002207F10C0002F086FCF2E700BF7F
:10781000E0A80020DCA8002014B30020417702007B
:1078200075770200037813F0040216D003F0030307
:10783000012B03D0022B09D0012070470A68008871
:107840000232C0F3831002440A60F5E70B684288F5
:10785000023303EB92130B60EEE710467047000013
:107860002DE9F04F89B00646871C08A8484C0092C5
:1078700000230D4600F8113DFFF7D4FB23682B6071
:10788000D4E901231344226801339B1A04F21C48F3
:1078900004F5836B04F21449BB421AD3009A002307
:1078A000002A6DD0012262F3010343F0040366F362
:1078B00089132168A2689DF80F000A4003320F4423
:1078C00044F822302760FFF7DDFB012009B0BDE856
:1078D000F08F01214046FFF7B9FC5846FFF7CCFC7A
:1078E0000DF1200A4846FFF7C7FC60684AF8100D02
:1078F000A5682840033004EB80005146FFF792FF53
:1079000002460498002AF4D105EA000304EB83033D
:10791000811CDB6805930130054004EB850503F00D
:107920000303012B0491ED6823D0022B08D01949E1
:1079300001924FF4BF7004F01DFB019A154607E059
:10794000BDF816309B0903332D0C01EB9303049310
:107950004846FFF794FC08B1049B63602946404603
:10796000FFF774FCD4E901231344226801339B1A06
:1079700092E7BDF81430C3F383132D0C0B44E6E7F4
:10798000022262F3010343F0040366F39F5390E77E
:10799000B4A90020664C0300034BD3E90030C31A9E
:1079A00058425841704700BFB4A900202DE9F04368
:1079B00087B0FFF7F1FF0646002840F0FC807F4DBE
:1079C000C5F81804BFF34F8F6868AC6806AF47F876
:1079D000100D2040033005EB80003946FFF722FFF1
:1079E000029B18B1D5F81824002A5FD004EA0302DC
:1079F000991C013305EB8202234005EB8303D26817
:107A0000DB68049302F00303022B0392029162D11C
:107A1000BDF80E306A484FEA9318B8F1500FC146CE
:107A200028BF4FF0500969F38F1309F10801ADF831
:107A30000E3000F0EBF90746002800F0A78000F0B8
:107A400014FA03A900230822384600F021FA02990B
:107A500024EA01060136B600B14535D95FFA89F945
:107A60007EB3F6B2A9EB0609214003315FFA89F42F
:107A7000B146544E05EB810108234A46384600F0D2
:107A800007FA36B109F1080322463146384600F0BC
:107A9000FFF9029B08F1030803EB98030293D5F862
:107AA0001834002B4BD1D5F810445BE02A689A4279
:107AB00004D86A60304607B0BDE8F08304EA0300EA
:107AC00088E740493446D7E72140033108234A4636
:107AD00005EB8101DAE7012B58D1BDF80C303848AD
:107AE000C3F38311062928BF062161F389130231EC
:107AF0008900ADF80C3000F089F90746002845D020
:107B000000F0B3F90023082203A9384600F0C0F9B9
:107B10000026BDF80C20C2F38312B31C96424FEA34
:107B20008303BCD202994A1C21400331029205EB27
:107B300081010422384600F0ABF90136E9E7384606
:107B400000F097F9FFF728FF80F00100C6B2B1E717
:107B5000E3685B7923B1236839461B682046984760
:107B6000E3681C68002CF3D1384600F082F906A8BF
:107B700000F8114DFFF756FAD5F818340BB9029BEF
:107B80006B609DF80700FFF77DFADBE7D5F810443E
:107B900054B90D4B0D480E49C01AC008000440F0FE
:107BA000020000F083F8CDE7236820469B689847E1
:107BB000E3681C68ECE700267CE700BFB4A900205E
:107BC000D85F0300C0A90020405F0300985F030056
:107BD000BD4C03002DE9F74F2F4C80460F469146D0
:107BE00001A9012218469B46D4F808A0FFF738FEE9
:107BF00000283DD0019D0026A91C5E4506EB010230
:107C000040D100212548FFF701FB80F3100B244BE6
:107C1000244A4FEA18499B1AB9EBD30F04D32249DF
:107C200040F2A31004F0A6F96B1C03EA0A0304EB6C
:107C3000830349EA0B42DA6005EA0A0303330121B0
:107C400014F8232068F3C50204F8232034F8232015
:107C500066F3891224F8232054F8232067F39F2227
:107C600044F8232061F301026FF3820204F8232019
:107C700094F820341BB1FFF799FE0028FBD103B024
:107C8000BDE8F08F0AEA020204EB820259F82630BE
:107C9000D3600136B1E700BFB4A90020D0AD002009
:107CA000D85F0300405F0300664C030000231A46C0
:107CB000FFF790BF13B502AC012344F8042D224610
:107CC000FFF788FF02B010BD07B5CDE900230223FE
:107CD0006A46FFF77FFF03B05DF804FB1FB5CDE9EF
:107CE0000123069B039301AA0323FFF773FF05B04B
:107CF0005DF804FB1FB5CDE90023069B0293079BAB
:107D000003936A460423FFF765FF05B05DF804FBA3
:107D100038B5094A0123D2F8104482F820341D46B0
:107D200004B938BDE3685D71236820465B689847F5
:107D3000E3681C68F4E700BFB4A900202DE9F74F01
:107D400099469DF83030019388461746054618B984
:107D50002249B62004F00EF9EA8895F805B00BFB2D
:107D600002FBABF1040BCB4503D81C49C42004F043
:107D700001F93E68B5F806A006EB09025A4509F17B
:107D8000040188BFABEB0906B1FBFAF43E600AFBC5
:107D9000141144B9AAEB0107B74228BF37462EB9E0
:107DA00003B0BDE8F08F2D68013CF2E7019A043181
:107DB00008EB0403681872B101463A461846F61BF0
:107DC00004F0A6FCB2453C442D6857464FF0000134
:107DD00028BF3746E3E73A461946F0E7D24C03009E
:107DE000F8B546790146721E0546002393422D6878
:107DF00003D30024A64202D8F8BD0133F6E70F688A
:107E00002846FFF76DFA01343946F3E72DE9F843C8
:107E1000CD1C068A0746FFF735FA043E3544044672
:107E2000B5FBF6F5F0B14FF48073EDB28380C680F8
:107E3000013D076081464FF00008A84512D2384640
:107E4000FFF720FA064648B163790133637108F100
:107E50000108C9F8000007608146EEE72046FFF7F9
:107E6000BFFF34462046BDE8F88301210430FFF708
:107E7000EDB910B5012104460430FFF7F2F910F016
:107E8000FF0F04D12046BDE81040FFF7A9BF10BD89
:107E900030B585B0144604AA002542F8044D00957B
:107EA000FFF74CFF039BA34203D00349F62004F0E5
:107EB00061F805B030BD00BFD24C0300064B10B5D1
:107EC00000241C70054B1C60BFF35F8F04490548FC
:107ED00000F024FA204610BDE0AD0020E4AD002003
:107EE000244D0300D8AD0020026813685268934205
:107EF00091BFD01A80680130801888BFC01A7047BF
:107F000038B50C46054618B90449772004F032F814
:107F1000AB68A3428CBF601C002038BD394D030004
:107F20002DE9F84303681D685C68A54284BF836837
:107F300001331746884694BF641B5C1BC2684168C6
:107F4000BC42064605FB02110CD37A43404604F0BE
:107F5000DFFBB3683D449D4288BF002533681D6048
:107F6000BDE8F88304FB02F94A46404604F0D0FB22
:107F7000F26871683C1B624308EB090004F0C8FB1F
:107F800033681C60ECE7000038B5044618B90749AF
:107F90008A2003F0EFFF236820461D685968FFF729
:107FA000AFFF431B5842584138BD00BF394D030055
:107FB0002DE9F3410D46044618B92E49952003F0EA
:107FC000D9FF1DB92B49962003F0D4FF02A8002346
:107FD00000F8013DFFF726F82046FFF7D5FF804661
:107FE00010B1237C002B3BD1276820467E6879683E
:107FF000FFF786FF7860B8F1000F05D027682046AC
:108000003968FFF77DFF3860E2686068531E072B10
:1080100020D8DFE803F004101F141F1F1F182B784F
:1080200083552046FFF760FF23689A68824200D29A
:108030009860002415E02B8820F81630F1E72B68B3
:1080400040F82630EDE7D5E9002300EBC600C0E993
:108050000023E6E7294606FB020004F059FBE0E7AF
:1080600004249DF80700FFF70DF8204602B0BDE894
:10807000F08100BF394D030073B50E461446054626
:1080800020B9124940F2D51003F074FF26B90F4908
:108090004FF4EB7003F06EFFA4B102A8002300F8C8
:1080A000013DFEF7BFFF2846FFF71EFF844228BFB1
:1080B0000446224628463146FFF732FF9DF8070066
:1080C000FEF7E0FF204602B070BD00BF394D03004F
:1080D00037B5044620B90B4940F2EF1003F04AFFD0
:1080E00002A8002500F8015DFEF79CFF0C2229463E
:1080F000206804F0A7FB9DF80700FEF7C3FF03B05C
:1081000030BD00BF394D030013B5044620B90B49FB
:1081100040F2FD1003F02EFF02A8002300F8013DFD
:10812000FEF780FF2046FFF7DFFE04469DF80700BC
:10813000FEF7A8FF204602B010BD00BF394D030076
:1081400010B5044620B9064940F20A2003F012FF98
:10815000236818685B68C31A5842584110BD00BFB5
:10816000394D03002DE9F3410C469046054618B9F8
:108170002549D92003F0FEFE1CB92349DA2003F07B
:10818000F9FE02A8002300F8013DFEF74BFF284648
:10819000FFF7D6FF002834D12F683E68B8F1000FF2
:1081A00004D139682846FFF7ABFE3860EA68696891
:1081B000531E072B1FD8DFE803F0040F1E131E1EEB
:1081C0001E178B5D237000249DF80700FEF75AFFF1
:1081D000204602B0BDE8F08131F816302380F2E786
:1081E00051F826302360EEE701EBC601D1E9002308
:1081F000C4E90023E7E706FB0211204604F088FAF1
:10820000E1E70524E0E700BF394D030038B5044637
:1082100020B9054940F2122003F0ACFE2046A568C3
:10822000FFF772FF281A38BD394D03002DE9F843D6
:10823000044616468846FFF7E9FF2368A5685A6892
:108240000135AD1A8146E26858686368B54202FBA1
:10825000003017D37243414604F05AFA2268A168ED
:10826000536833448B4296BF53680026F618566015
:108270002046FFF739FE23689A68824238BF98602B
:10828000BDE8F88305FB02F73A46414604F040FAA0
:10829000E2686068751B6A4308EB070104F038FA6E
:1082A0002368B1455D60E3D2256820466968FFF721
:1082B00027FE2860DCE7000073B50E46144605462D
:1082C00020B915494FF4B47003F054FE26B9124991
:1082D00040F2691003F04EFEA4B102A8002300F89A
:1082E000013DFEF79FFE2B7C7BB9AB689C4228BF0B
:1082F0001C46284622463146FFF798FF9DF80700A6
:10830000FEF7C0FE204602B070BD2846FFF77EFF94
:10831000844228BF0446ECE7394D030038B50D46CA
:10832000044618B90849502003F024FE1DB9064937
:10833000512003F01FFE25602B6863606A6893423A
:1083400004BF0023636038BD874D030010B50446A9
:1083500018B90B49632003F00DFE23681BB90849C7
:10836000642003F007FE636843B1226891680B4400
:1083700063605268934204BF0023636010BD00BF76
:10838000874D030043691B68DB6803B118477047DA
:1083900010B4074C0378E35C23B104305DF8044B60
:1083A00002F07ABA0C305DF8044B01F0B9BF00BF9F
:1083B00014B3002010B4074C0378E35C23B10430FD
:1083C0005DF8044B02F0DCBA0C305DF8044B02F0AF
:1083D00017B800BF14B3002070B50578012D06460C
:1083E0000C4603D029D3022D25D070BD4B69027AEB
:1083F0001B6841685B681868FFF75EFF337A834249
:1084000005D903212046BDE87040FFF7BBBF2946D0
:108410002046FFF7B7FF63691B689B6820465A7ABE
:108420005968FFF7C7FF0028DFD011499B20BDE83E
:10843000704003F09FBD2946E4E74B691B685A680A
:108440009D68566800212046FFF79CFF2A7A29681C
:108450003046FFF711FE0028C7D0C2B22968204677
:10846000FFF796FF0028C0D00149B220DFE700BF28
:108470008A4E0300F0B50E4689B01546044608B191
:1084800001B11AB94449BF2003F074FD63691B6848
:10849000002B7ED12B783BB16B680BB1AB681BB95D
:1084A0003D49C92003F066FD31462022684604F0AC
:1084B0002FF92B780494991E4A424A41002B8DF8DB
:1084C0001D206946354A204608BF0022FFF76CF997
:1084D0000646002838D163691D6063691B685B68C4
:1084E00043B15868FFF7F4FD63691B685B6818685F
:1084F000FFF7EEFD656915F1080F03D128497220D9
:1085000003F038FD0023AB60BFF35F8F67693A1D4E
:108510001D4603D12249722003F02CFD7D60BFF37C
:108520005F8F636903221A73009B013301BF626985
:10853000137B23F002031373019A6369013206D19E
:108540001A7B22F001021A73304609B0F0BD1B6895
:108550001B78022B09D163691B689B6820465A7AF5
:108560005968FFF727FF0646EEE723780D4AD35CEC
:1085700053B10D4940F25A2003F0FCFC63691B68BB
:108580001B78002BE7D1DFE704F10C0001F0CEFFF0
:10859000F4E78526D8E700BF8A4E0300D98302009E
:1085A000F04D030014B300203C4E03000D4930B5DC
:1085B000A1F594720225914201D800200EE08B1A99
:1085C000DB1093FBF5F302EBC30452F83330834224
:1085D00005D802D204F10802EDE7606830BD2146FB
:1085E000E9E700BF1850030008B5FFF7DFFF024BB3
:1085F000002808BF184608BDDA4E0300C0B20023A9
:1086000048700B707047000070B50D46044618B9ED
:108610000849712003F0AEFC23681A6812683AB169
:108620001A681B6851681B682846BDE870401847E7
:1086300070BD00BFD2530300F0B5044687B018B92F
:108640002D49372003F096FC2368187E1A68C0B2C3
:1086500007B296684FEAC70C06EB0C0256F8376073
:1086600051791779927912F0010F4FEA510501F013
:10867000010139D0002937D1D3F800E09EF80CE091
:108680000130704530DAD3F800E00CF10800DEF874
:1086900008C084449CF805C0B5EB5C0F24D11A686F
:1086A00091680A1851F800C0187E517992F804E0D8
:1086B0009279013011F0010F4FEA4212C0B20CBFA3
:1086C0000321022102F0200218768DF8041004F133
:1086D0000C0001A98DF80550CDE9027ECDE9046CAE
:1086E00001F0A2FA07B0F0BD52014FF0000C02F009
:1086F0002002E646E9E700BFD25303002DE9F74F19
:108700000E46044618B92949872003F033FC256832
:10871000DFF89CB04FF0000802A800F8018DFEF7CA
:1087200081FC16B923681B6843B90022294660689A
:10873000FFF718FD90B3C5F8008000269DF80700EC
:10874000FEF7A0FC7EB32B681B694BBB2F1D1022CC
:108750003946686903F0AAFFA8B104F10C0A504633
:1087600004F1080901F004FA23465A4639464846FE
:10877000FEF76EFF18B10D49B42003F0FBFB504625
:1087800001F0ACF96F6185F818802046FFF754FFBF
:10879000014640B12046FFF737FFBDE70126CDE790
:1087A0002B681F69D3E703B0BDE8F08FD2530300F5
:1087B000B587020038B50C46054618B91249D220D3
:1087C00003F0D8FB23681B681BB90F49D82003F0BE
:1087D000D1FB297871B92268137E10680133007BC0
:1087E000DBB2984207D913762046FFF725FF0146F2
:1087F00008B938BD03212046FFF706FF20460121B6
:10880000BDE83840FFF77ABFD2530300F8B50E46F3
:10881000044620B919494FF4847003F0ABFB636838
:1088200023B9164940F2091003F0A4FB63689B6862
:1088300023B912494FF4857003F09CFB26B90F4908
:1088400040F20B1003F096FB23460D4A314604F12B
:108850000800FEF7FDFE074670B904F10C0001F0B8
:108860003DF923681F6096E80F002568043585E808
:108870000F0023681A1D5A613846F8BDD253030011
:10888000B587020037B50546019120B9144940F279
:108890002D1003F06FFB019B23B911494FF4977022
:1088A00003F068FB019B9B6823B90D4940F22F1030
:1088B00003F060FB019B1B7B23B909494FF49870BF
:1088C00003F058FB01A96868FFF772FB044618B96A
:1088D00001462846FFF712FF204603B030BD00BF17
:1088E000D25303002DE9F04186B0884617461E4654
:1088F0000C9C054620B9194940F24F1003F03AFB91
:1089000027B916494FF4A87003F034FB26B9134970
:1089100040F2511003F02EFB0023ADF8003001238C
:108920008DF8003001A90E4B01932846CDF808D0F0
:1089300003978DF81060CDF81480FFF7A3FF20B1E6
:1089400006B0BDE8F08104B1A0479DF80030002BCF
:10895000F9D19DF80100C0B2F2E700BFD253030085
:10896000FD85020010B5044618B90749A02003F0A0
:1089700001FB064B187920B901221C601A7158714D
:1089800010BD8520FCE700BF26540300E8AD0020A1
:1089900008B50B4B1B791BB90A49B92003F0EAFA59
:1089A000094B1A68D2075FBFE02283F80023012237
:1089B0001A604FF080430122C3F8182508BD00BF9C
:1089C000E8AD00202654030000E100E037B5144B69
:1089D0001B791BB91349E62003F0CCFA124B002295
:1089E0001A601B680193019B4FF080430222C3F879
:1089F00004230E4AD06840F08073D3600C4B1C688F
:108A000044F0010119605D685968491BB1F50A5FBE
:108A1000FAD31C60074BD06001221A6003B030BD4E
:108A2000E8AD00202654030004010040F0ED00E012
:108A3000001000E00800004008B5084B1B791BB986
:108A40000749F32003F096FA064B01221A604FF013
:108A50008042D2F81834DB03FBD408BDE8AD002017
:108A6000265403000C00004007B5154B1A687AB174
:108A700000221A601B680093009B4FF08043012284
:108A8000C3F808230F4B587910B95A711B689847DF
:108A90000D4B1A6882B100221A601B680193019B7A
:108AA0004FF080430222C3F80823064B1B680120C5
:108AB00003B05DF804EB184703B05DF804FB00BF9A
:108AC00000010040E8AD00200401004000F18040BA
:108AD00000F5C040002382B0036003680193019B4E
:108AE00002B07047054B4FF0FF32072843F82020B3
:108AF00084BF1B1883F84820704700BFF0AD0020EA
:108B000002494FF4F37003F035BA00BF164C03006E
:108B10001F2838B504460D4601D9FFF7F1FFA00024
:108B200000F1A040D0F8003723F44033C0F80037FC
:108B3000D0F8003743EA0543C0F8003738BD0000DD
:108B400010B5164C94F8583033BBFF21E2180133AE
:108B5000202B82F83010F9D10021C8B2FFF7C2FFF4
:108B600001310C29F9D1042200210D4803F06AFEDD
:108B70000C4BE02283F8062340221A604FF4BE70AB
:108B8000FFF7A4FF084B4FF00042C3F80423012372
:108B900084F85830002010BD0820FCE7F0AD00201C
:108BA00044AE002000E100E000600040034B93F879
:108BB0005800003018BF0120704700BFF0AD002002
:108BC0001F2870B504460D4604D941494FF49870EA
:108BD00003F0D0F93F4E96F85830012B04D03C49B1
:108BE00040F2311003F0C6F925B939494FF49970B4
:108BF00003F0C0F9331993F93020013265D1AA7816
:108C0000002A54D0002356F8231001314FEA830282
:108C100048D1311902F1804281F83030002102F54B
:108C2000C04246F82310D2F810052B78697820F45A
:108C300098101B04090520F4F85001F4801103F486
:108C40004033C2F810050B432102D2F8100501F49D
:108C5000F8510B430343C2F810356B78012B4FF0EA
:108C6000010528D11F2C01D9FFF74AFF4FF0A0437F
:108C7000A540C3F808551F2C01D9FFF741FF04F5A3
:108C8000E0724FF0A043032143F82210E20812499A
:108C9000012304F0070403FA04F48B5C1C438C5496
:108CA000002003E00133082BADD1042070BDFE226B
:108CB00083F83020D1E71F2C01D9FFF721FF4FF0B7
:108CC000A043A540C3F80C55D5E70820EEE700BF48
:108CD00079540300F0AD002044AE00201F2838B5C1
:108CE000054604D912494FF4BE7003F043F9114C04
:108CF000621992F93020013204D10D4940F27D1001
:108D000003F038F9631993F83030072B04D8084979
:108D10004FF4BF7003F02EF91F2D01D9FFF7F0FEBD
:108D2000012303FA05F54FF0A043C3F8085538BDF9
:108D300079540300F0AD00201F2838B5054604D94A
:108D400012494FF4C37003F015F9114C621992F9EE
:108D50003020013204D10D4940F2871003F00AF9A6
:108D6000631993F83030072B04D808494FF4C470C6
:108D700003F000F91F2D01D9FFF7C2FE012303FA0A
:108D800005F54FF0A043C3F80C5538BD79540300E6
:108D9000F0AD00202DE9F04F87B000245B4A5C4E17
:108DA0005C4D039401211368A2F5C040012B80B2F1
:108DB00006D1D6F804330B4202D0FFF787FE0C43EE
:108DC0000432AA424FEA4101EDD1534B1B68012BFB
:108DD0000AD14FF4BE70FFF779FE4FF0A04344F084
:108DE0000044D3F81035039314F0FF0F1AD04B4F03
:108DF00000250126344210D0AB0003F1804303F577
:108E0000C043D3F81005D3F8101557F82530C0F338
:108E10000420C1F3014103B198470135082D4FEA01
:108E20004606E7D1002C6EDA00224FF0FF33CDE981
:108E300004233A4F4FF0000A56464FF0A04907EB83
:108E40000A0393F95040631C46D0E4B2012224F097
:108E5000C00504F0070B02FA0BFBEB0806AAD118B9
:108E600011F8042C12EA0B0F36D07A19A40992F9E2
:108E7000302057F82280B8F1000F0AD1032C2BD1F3
:108E80000DF1100C1CF8030040EA0B000CF8030075
:108E900001E0032CF4D01F2D03D90191FFF730FE20
:108EA000019911F80C1C05F5E07311EA0B0F59F844
:108EB0002330C3F3014320D0022B0DD1032C05D165
:108EC00021462846FFF724FE0136F6B2B8F1000F1E
:108ED00002D021462846C0470AF1010ABAF1040F20
:108EE000ADD186B14FF0A043039AD3F810359A4222
:108EF00009D00393049B05939CE7032BECD1032C2F
:108F0000E4D10221DDE707B0BDE8F08F0061004049
:108F100000600040206100407C610040F0AD002016
:108F200010B5054C22681AB90449512003F022F803
:108F30002368BDE8104018474CAE0020D25403000F
:108F400037B50D4630B90F49772003F013F80020EC
:108F500003B030BD0C4B9842F9D102A8002300F8B1
:108F6000013DFEF75FF8094B1C7914B901221D6021
:108F70001A719DF80700FEF785F8002CE7D0112044
:108F8000E6E700BFD2540300002000404CAE0020B2
:108F900018B906499B2002F0EDBF054B984201BF6E
:108FA000044B00221A601A71704700BFD2540300AC
:108FB000002000404CAE00200023435082B04358B4
:108FC0000193019B02B0704770B5D0F8103105468F
:108FD0000C4653B14FF48871FFF7EEFF63795A07DF
:108FE00003D523680BB101209847D5F814315BB144
:108FF0004FF48A712846FFF7DFFF63791B0703D51B
:1090000023680BB102209847D5F81C315BB1284684
:109010004FF48E71FFF7D0FF607910F0100002D18D
:10902000236803B19847D5F8043163B14FF48271D6
:109030002846FFF7C1FF0123237123681BB10320DA
:10904000BDE87040184770BD01490248FFF7BCBF3A
:1090500054AE002000C0014001490248FFF7B4BFF0
:109060005CAE00200010024001490248FFF7ACBF8F
:1090700064AE00200020024000F1804000F5E04096
:10908000002382B0036003680193019B02B0704724
:10909000F0B5514B514C1B6885B0DBB14FF4827079
:1090A00094F82E20FFF7E8FF12B194F82F30A3B107
:1090B000636802932389ADF80C30E36800218DF8D2
:1090C0000410002B44D12374236801A8984700237F
:1090D00084F82F3094F82E3003B3414B1B68EBB16A
:1090E0004FF48070FFF7C8FF94F82D20638B91B286
:1090F0008B4238D95B1A21899BB26383CB1A616892
:1091000001EB4301374BC3F82C16C3F830264FF45C
:109110008270FFF7B1FF344B01221A60334B1B689A
:109120005BB14FF48870FFF7A7FF002304A82374F6
:10913000022300F80C3D236898472D4B1B6813B39E
:109140004FF48A70FFF798FF0023237405B0F0BD39
:10915000208B608363602081E160002AB4D1214BC1
:1091600001221A60B0E7D2D1E368012184F82F1000
:109170003BB1002161831B49C1F82C36C1F8302670
:10918000C5E76383C3E766694FF000470125002EFA
:10919000DCD0B6FA86F227FA02F34632920026EACB
:1091A000030602F1804303F5E0431B68002BEED079
:1091B0001046FFF761FFA2F58C72D30882F004021B
:1091C000C2F380028DF808308DF804508DF8092024
:1091D000236801A89847DAE7047100406CAE0020CC
:1091E00000710040007000400470004010710040A9
:1091F0001471004002494FF4F37002F0BBBE00BF8F
:10920000164C03001F2810B5044601D9FFF7F2FFE2
:10921000012303FA04F44FF0A043C3F80C4510BD3A
:109220001F2810B5044601D9FFF7E4FF012303FA14
:1092300004F44FF0A043C3F8084510BD13B54FF038
:109240004023D3F818310BB3114B124C00221A6093
:109250001B680193019B236823B90F494FF42770C2
:1092600002F088FEE07FFF2803D0A37F5BB1FFF709
:10927000C9FF002363772372D4E90031074802B0A5
:10928000BDE810401847FFF7CBFFF2E702B010BD72
:10929000184100409CAE00202F550300A4AE0020D2
:1092A0002DE9F74F8146CDE900230C4619B97D49D8
:1092B000AD2002F05FFE99F804607B4F242303FB8E
:1092C00006FB07EB0B0A9AF81C10002940F0E4801B
:1092D000D9F8005075492846FFF732FE804600282D
:1092E00040F0DD80009B47F80B30019BCAF804304A
:1092F000237B2078012B00F2BD80FFF783FF94F8D9
:1093000000A0BAF11F0F01D9FFF774FF0AF5E07A48
:109310004FF0A043012243F82A2094F801A0BAF1AB
:10932000FF0F00F0AA805046FFF76CFFBAF11F0F45
:10933000D34601D9FFF75EFF0AF5E07A4FF0A0436C
:10934000032243F82A20A378FF2B00F099801F2BDB
:109350009A4603D90093FFF74DFF009B03F5E07396
:109360004FF0A042042142F82310242303FB06738C
:10937000A27883F82020E278DA77E078FF2817D007
:109380002379002B7FD0FFF73DFFE3781F2B03D914
:109390000093FFF72FFF009B03F5E0734FF0A0420F
:1093A000032142F82310242303FB067322799A77C2
:1093B0002378C5F80835C5F80CB5C5F810A5A3681D
:1093C000C5F82435637B227B003318BF0123022AB2
:1093D0005CD0032A5DD0012A01D143F00203C5F815
:1093E0005435A379C5F8C03524237343FB5813B112
:1093F0004022C5F804230722C5F800257BB3D9F81D
:10940000003064794FEA133AA31E012B4FFA8AF514
:1094100006D9631F022B03D925496B2002F0AAFD50
:10942000002DACBF05F16043224B4FEA4414B8BF96
:109430000AF00F0AE4B2AABF03F5614303F80A4039
:1094400083F80043D9F800301B0B5AB2012103F016
:109450001F0301FA03F35209174941F8223024236C
:1094600003FB06760023737701233377404603B06E
:10947000BDE8F08FFFF7D4FE41E74FF0FF3B62E716
:109480004FF0FF3A71E7FFF7CBFE7EE743F00403AE
:10949000A5E743F00603A2E74FF00808E6E74FF020
:1094A0001108E3E72F5503009CAE00203D92020017
:1094B0007B55030014ED00E000E100E02DE9F341ED
:1094C000584F0679242303FB067380461B7F0D4605
:1094D000144623B9544940F2322002F04BFD2B6868
:1094E00033B96B6823B1504940F2332002F042FD9A
:1094F000AB6833B9EB6823B14B494FF40D7002F000
:1095000039FD98F804302BB9EB68FF2B02D86B6853
:10951000FF2B04D9444940F2372002F02BFD2423CD
:109520007343FA18517F002979D1FB5823B114F005
:10953000140F04BF0123537795E80F004FF0240C5C
:109540000CFB067C0CF10C0E8EE80F009CF81F0043
:10955000FF2804D09CF81E30C3B1FFF761FE2A68D3
:1095600022B102F06043B3F1005F06D1AB6883B172
:1095700003F06043B3F1005F0BD0242303FB0676B6
:1095800000237377102002B0BDE8F081FFF73AFEA8
:10959000E5E7D8F800306968C3F84425C3F84815F2
:1095A000D5E90212C3F83415C3F838250022C3F8F0
:1095B0001821D3F818210192019A14F0010218BF62
:1095C0000122C3F8502514F0020218BF0122C3F88B
:1095D000402522075CBF01221A6124227243BA5837
:1095E00092B9D3F81821002AFBD0242303FB067676
:1095F000F07FFF2803D0B47F1CB1FFF703FE0020EB
:10960000C1E7FFF70DFEFAE714F004004FF0400247
:1096100002D0C3F80823F2E7C3F80423B3E711200C
:10962000B1E700BF9CAE00202F5503002DE9F743A2
:10963000002406460F4600F5A0754FF48038A14679
:1096400004F150002B68800080B26BB1D6F804336F
:1096500008FA04F21A4207D0C5F800902B6801936B
:10966000019BD7E9003198470134042C05F104052A
:10967000E6D103B0BDE8F0832DE9F347544B0779F9
:10968000154602689A4204460E4603D151494820C5
:1096900002F070FC1EB94F494A2002F06BFC1DB964
:1096A0004C494B2002F066FC4B4A0C2303FB07237A
:1096B00090461B7A002B40F089802368444A9342ED
:1096C0000FD002F5805293420BD002F580529342A4
:1096D00007D002F58032934203D002F580529342C4
:1096E00002D1B378032B03D93A495F2002F042FC40
:1096F0000C237B4308EB030248F803507368536064
:109700000022154660792168D3B2984202F1010225
:1097100054D8F578AB1E4FEA113A012B4FFA8AF96B
:1097200006D96B1F022B03D92C496B2002F022FCB7
:10973000B9F1000FAEBF09F160430AF00F03284AE8
:1097400028484FEA4515EDB2AABF03F56143D55449
:1097500083F8005323681B0B59B24909012203F017
:109760001F0302FA03F340F8213020687378D0F821
:10977000041503F0030321F003010B43C0F8043583
:109780002068B378D0F8081503F0030321F0030133
:109790000B43C0F8083520683378D0F8101503F073
:1097A0000F0321F00F010B43C0F810350C2303FB0E
:1097B000078700203A7202B0BDE8F0879B0003F5EE
:1097C000A073CD50CB580193019B9BE70820F2E793
:1097D00000800040C4550300C0AE00207B5503004C
:1097E00014ED00E000E100E001490248FFF71EBF70
:1097F000C0AE00200080004001490248FFF716BFBC
:10980000CCAE0020009000400023435082B043586B
:109810000193019B02B07047F0B5504C236887B0AC
:1098200023B94F4940F2452002F0A4FB4D4AD2F83B
:1098300024311546A3B14FF492711046FFF7E4FFAF
:10984000D2F8043163B9A368C2F808330223A360D5
:10985000A368C2F8043301231362536107B0F0BD5B
:10986000D5F80431002B49D03F4F3E484FF4827168
:10987000FFF7CAFF0FCF01AE0FC63B68336094F805
:109880002E307BB1237B012B0CBFD5F83C25D5F8BE
:109890004C250292022B334B0CBFD3F83C35D3F846
:1098A0004C3503934FF4B0712E48FFF7ADFF4FF4E2
:1098B000AE712C48FFF7A8FF94F8303013B194F83C
:1098C0002E303BB1274B0022C3F80022A260274A6A
:1098D000C3F80823234AD2F8C434C2F8C4349A0720
:1098E00036D501238DF8003094F830300BB984F868
:1098F0002F30D4E9003168469847AFE74FF4A471A0
:109900001848FFF781FF237B83B9174F0FCF01AEB4
:109910000FC63B68336094F83030002BDAD1C5F8BD
:109920000032A360114BC5F80833D3E74FF400733E
:10993000C5F8003240F20223A36003F1CE73C5F8EC
:109940000833A368C5F804330123AB602B6285E7B5
:1099500013F0040318BF0223C4E700BFD8AE0020F1
:109960001756030000300040E4AE002002029C01C4
:109970002DE9F74F8046934601930C4619B950499B
:10998000A92002F0F7FAD4E900239A4203D14C4906
:10999000AA2002F0EFFA98F804704A4E342303FB31
:1099A00007FA06EB0A0999F82D20002A40F0838077
:1099B0004549D8F80000FFF7C3FA054600287CD1D6
:1099C00046F80AB0019BC9F80800C9F8043089F8C4
:1099D000300089F82F00637B89F83230D4F800908A
:1099E000B9F11F0F04D939494FF4F37002F0C2FAEC
:1099F0004FF0A04309F5E07940F20C6243F82920CA
:109A0000D4F804A0BAF11F0F994604D92F494FF496
:109A1000F37002F0AFFA0AF5E07A40F20C6349F80D
:109A20002A30D4E90012D8F80030C3F80815C3F87A
:109A30000C25A268C3F8242534237B43F35883B351
:109A4000D8F80030247B4FEA133AA31E012B4FFABB
:109A50008AF906D9631F022B03D91D496B2002F036
:109A600089FAB9F1000FACBF09F16043194B4FEA15
:109A70004414B8BF0AF00F0AE4B2AABF03F5614369
:109A800003F80A4083F80043D8F800301B0B5AB2A1
:109A9000012103F01F0301FA03F352090E4941F8B3
:109AA0002230342303FB0766012386F82D30284635
:109AB00003B0BDE8F08F0825F9E71125F7E700BFEF
:109AC00017560300D8AE002019980200164C030068
:109AD0007B55030014ED00E000E100E070B50D4D92
:109AE0000479342202FB0452064692F82D20012A02
:109AF00004D0094940F2111002F03CFA3368062202
:109B0000C3F80025342303FB0454022384F82D30CA
:109B100070BD00BFD8AE00201756030070B5114DC0
:109B20000479342202FB0452064692F82D2022B911
:109B30000D494FF48E7002F01DFA3422336802FB97
:109B400004540021094AA160C3F80823D3F8002275
:109B500022F4BC52C3F80022C3F80015012384F894
:109B60002D3070BDD8AE00201756030002029C01B4
:109B7000F8B5294D0479342303FB0453064693F8C2
:109B80002D301BB92549F82002F0F4F93423634342
:109B9000EB5863B133681B0B5AB20121520903F031
:109BA0001F0301FA03F320321D4941F822303046E9
:109BB000FFF7B4FF3068FFF7EBF9342303FB0453DE
:109BC00093F8323003BB3368D3F808751F2F04D9DC
:109BD00014494FF4F37002F0CDF94FF0A04307F5AC
:109BE000E077022243F827203268D2F80C751F2F45
:109BF0001E4604D90B494FF4F37002F0BBF907F588
:109C0000E077022346F82730342303FB0454002373
:109C100084F82D30F8BD00BFD8AE002017560300E1
:109C200000E100E0164C03002DE9F84303790446F7
:109C30000D4690462BB94B68FF2B02D88B68FF2B43
:109C400004D9B6494FF4F87002F094F92779B44E6C
:109C500034237B43F3583BB92B78022B04D1AF4913
:109C60004FF4FB7002F086F934237B43F3583BB981
:109C70002B78032B04D1A94940F2F71002F07AF9AE
:109C8000EB6803F06043B3F1005F03D0102210468D
:109C9000BDE8F8832468A34BC4F808334FF0340CB4
:109CA0000CFB076C9CF82F302BB1DCF80830C4F8A3
:109CB00004331122EBE718F0140F0CBF012300232B
:109CC0008CF82F30A946B9E80F000CF10C0EAEE865
:109CD0000F00D9F80030CEF80030C8F300138CF82C
:109CE00030306B78C4F888354FF482712046FFF726
:109CF0008BFD4FF49271FFF787FD18F0010318BF39
:109D00000123C4F8503518F0020318BF0123C4F82A
:109D100040352B78032B00F2E080DFE803F0A0C889
:109D2000810218F0100F04D07C4940F2711002F04B
:109D300021F918F0080F04D078494FF4B97002F0F7
:109D400019F918F0040F04D0744940F2731002F0AE
:109D500011F92B6903F06043B3F1005F96D14FF422
:109D60008073C4F800326B68EA68C4F84425204662
:109D7000C4F848354FF4A871FFF746FD4FF4B071B1
:109D8000FFF742FD4FF4A471FFF73EFD012323626C
:109D9000A360D4F85031002BFBD04FF4A8712046BB
:109DA000FFF732FDAB682A69C4F84425C4F848358A
:109DB000342303FB07635C4A9A604FF482730821E3
:109DC000002218F0080F04D1287803281CBF0120B6
:109DD00060503421794370187158002940F0828016
:109DE000012523441968002900F089803421D4F822
:109DF000C434C4F8C43401FB0766002186F82F1070
:109E0000002B3FF444AF13F0020F48F2012208BFC9
:109E1000032213F0040F48F2022318BF1A4636E754
:109E20006B68EA68C4F84425C4F848352B6903F028
:109E30006042B2F1005F7FF429AFAA68C4F83435FC
:109E40004FF48453C4F83825C4F80032342303FB9C
:109E5000076340F202229A6001232362ADE76B6838
:109E6000EA68C4F8442518F0200FC4F848354FF0CC
:109E7000340310D003FB07634FF48072C4F8002250
:109E8000294A9A604FF4A471FFF7BEFC4FF4A47303
:109E90000122226293E74FF4007203FB0763C4F8C8
:109EA000002240F202229A604FF48273F0E76B685E
:109EB000EA68C4F83425C4F838354FF48053C4F840
:109EC0000032342303FB076340F202229A6001232D
:109ED000236200214FF4827372E74FF482730821EA
:109EE00007226EE718F0040F1CBF4FF40073836065
:109EF000342303FB0766B368C4F80433C7E6D4F819
:109F0000241100293FF46EAF4FF492712046FFF701
:109F10007BFC25624FF48273656162E7175603008C
:109F2000D8AE002002029C0100020400002343502E
:109F300082B043580193019B02B070470A4610B5A6
:109F40004FF48E71FFF7F2FF136A9168C95C136AD0
:109F500001331362C0F81C1510BD08B502464FF45A
:109F600092710068FFF7E2FF4FF484711068FFF709
:109F7000DDFF136801221A6008BD10B58B690A461F
:109F80004FF4847123B9FFF7D1FFD0F8183510BD15
:109F9000FFF7CCFF536AD168D0F81805C854536A4C
:109FA00001335362F3E7000002494FF4F37001F00C
:109FB000E1BF00BF164C03001FB501238DF8003030
:109FC000044BCDE90110D3E900126846904705B073
:109FD0005DF804FB0CAF002030B54D4AD2F80433D5
:109FE00013F4007F85B015464FD0D2F82431002BF2
:109FF0004BD04FF492711046FFF798FF4FF4017366
:10A00000C2F80833434B93F8291009B90121516074
:10A010003F4902228DF80020D1F88024C1F8802425
:10A0200003929A690292DA6801920022C3E9062239
:10A030006846D3E9001290473548D0F81C315BB12F
:10A0400034490A6A4B699A420A464CD291F8283040
:10A05000002B48D1FFF772FF2D4AD2F8443193B15B
:10A060004FF4A2711046FFF761FF2A4B93F82910B5
:10A0700009B1012111609A692AB100229A61586AD6
:10A08000D968FFF799FF05B030BDD5F804335B07F9
:10A09000D2D5D5F80831002BCED01E4C1C48214615
:10A0A000FFF76BFF636AA2699A422346C4D1E26953
:10A0B00052B12369E168E3600023606AA261E36151
:10A0C0006362FFF779FFB7E794F829200AB9012204
:10A0D0006A600F4A4FF40171C2F8081300229A61B6
:10A0E000586AD968EDE74FF48E710948FFF71EFFF3
:10A0F00051690029B0D00023029191688DF8003099
:10A10000019153616846D2E900139847A4E700BF64
:10A11000002000400CAF00202DE9F84F0546924684
:10A120000C4619B97749AA2001F024FF764B2E7905
:10A130002C2202FB0632984692F82A20002A40F090
:10A14000DD8072492868FEF7FBFE0746002840F0D4
:10A15000D780D4F80090B9F1FF3F18D0B9F11F0FA4
:10A1600001D9FFF721FF4FF0A043012202FA09F2C3
:10A17000C3F80825D4F800B0BBF11F0F994601D9E8
:10A18000FFF712FF0BF5E07B032349F82B30D4F8DF
:10A190000490B9F1FF3F0BD0B9F11F0F01D9FFF7C0
:10A1A00003FF09F5E0794FF0A043002243F829208E
:10A1B0002B68A269C3F82425217D637D2A680B439F
:10A1C000C2F86C35D4E900212B68C3F81415C3F824
:10A1D0000C25237D012B35D1D4F80890B9F1FF3F30
:10A1E0000BD0B9F11F0F01D9FFF7DEFE09F5E079B9
:10A1F0004FF0A043002243F82920D4F80C90B9F185
:10A20000FF3F18D0B9F11F0F01D9FFF7CDFE4FF076
:10A21000A043012202FA09F2C3F80825D4F80CB0D1
:10A22000BBF11F0F994601D9FFF7BEFE0BF5E07B8E
:10A23000032349F82B30D4E902212B68C3F8081511
:10A24000C3F810252C23734308EB0302C2F804A0C3
:10A25000226948F80320BAF1000F3CD04FF48E7108
:10A260002868247FFFF762FE4FF4A2712868FFF789
:10A270005DFE2B68264AC3F804232B684FEA133A85
:10A28000A31E012B4FFA8AF906D9631F022B03D9AB
:10A2900020496B2001F06EFEB9F1000FACBF09F14F
:10A2A00060431D4B4FEA4414B8BF0AF00F0AE4B2F2
:10A2B000AABF03F5614303F80A4083F800432B6803
:10A2C0001B0B5AB2012103F01F0301FA03F35209D9
:10A2D000124941F822302B680422C3F800252C23B0
:10A2E00003FB06830022C3E9062283F829205A6172
:10A2F000012283F82A203846BDE8F88F0827FAE7BC
:10A300001127F8E7685603000CAF0020D99F020020
:10A31000800002007B55030014ED00E000E100E046
:10A320002DE9F84F344E90F804802C2303FB08638A
:10A33000074693F82A30012B8A46934604D02F49CA
:10A3400040F2151001F016FEBAF1000F04D12B49AE
:10A350004FF48B7001F00EFEBBF1000F04D12749C2
:10A3600040F2171001F006FE3B792C2404FB036336
:10A370005D69002D3BD108FB04694FF48E71C9F86B
:10A380002050C9F814B0C9F808A089F828503868D6
:10A39000FFF7CCFD3B6801229A6049463868FFF719
:10A3A000CDFDD9F804304C461BBB3D68226A636979
:10A3B0009A4211D33B68D3F81C21002AFBD001221A
:10A3C000DA6000202C2303FB086600237361BDE8DC
:10A3D000F88F94F8283043B9D5F81C31002BF8D009
:10A3E00049462846FFF7AAFDE0E70F20EAE71120DB
:10A3F000EDE72846EBE700BF0CAF002068560300EE
:10A400002DE9F843474E05792C2303FB05630746E6
:10A4100093F82A30012B8846144604D0424940F272
:10A42000691001F0A7FDB8F1000F04D13E494FF4C7
:10A43000B57001F09FFD24B93B4940F26B1001F06B
:10A4400099FD2C2303FB0563596821B13B684FF448
:10A450000172C3F808232C2303FB05639A6952B1E8
:10A46000DA69002A3FD021B13B684FF40172C3F88A
:10A470000423112035E09C61C3F80C805A62DA6134
:10A480002C2303FB056393F829301BB912B9384616
:10A49000FFF763FD4FF02C0909FB05683868D8F811
:10A4A0000430002B35D14FF4A271FFF73FFDC146B8
:10A4B0003868D0F82431D0F80821D0F84441BAB92E
:10A4C0000CB9002BF4D02C2202FB05650022AA61F6
:10A4D00023BB2CBB95F829103B680122B9B11A6047
:10A4E0000020BDE8F883C3F81080DC610122C7E7D3
:10A4F000002BE8D1002CE6D14946FFF73EFDD8F805
:10A500002430D8F818209A42D2D82346DBE75A6084
:10A51000E6E74FF40173C0F80433E1E70320E0E716
:10A520000F20DEE70CAF00206856030070B50279FB
:10A53000084C2C2505FB0242064692F829303BB90F
:10A54000FFF70BFD337905FB0343012283F8292034
:10A5500070BD00BF0CAF00200023435082B04358B1
:10A560000193019B02B0704702494FF4F37001F070
:10A5700001BD00BF164C03001FB501238DF800304C
:10A58000044BCDE90110D3E900126846904705B0AD
:10A590005DF804FB38AF00207FB5374AD2F824615C
:10A5A000002E48D010464FF49271FFF7D5FF0223DA
:10A5B0008DF80030D2F88034C2F880340393D2F89A
:10A5C0003C3502932D4BDA6801920022C3E9062242
:10A5D0006846D3E900129047274AD2F844317BB14C
:10A5E0004FF4A2711046FFF7B7FF244B996939B1B8
:10A5F0000021C3E90611D968D2F83C05FFF7BCFF7A
:10A600001D4AD2F82031A3B14FF490711046FFF7E4
:10A61000A3FF1A4B596961B1D2F84C15029100227F
:10A6200099688DF8002001915A616846D3E90012BB
:10A63000904704B070BDD2F81031002BCCD04FF44D
:10A6400088711046FFF788FF0C4BD2F83C059969DA
:10A650008842C1D1DC69D96864B1D2F8005225F0D2
:10A660002005C2F800521A699C61DA60DE61FFF7CA
:10A6700083FFB1E79C61FAE70020004038AF00207B
:10A680002DE9F84F054692460C4619B97B49CD2075
:10A6900001F070FC7A4B2E79242202FB0632984698
:10A6A00092F82020002A40F0E58076492868FEF7DD
:10A6B00047FC0746002840F0DF80D4F80090B9F14D
:10A6C000FF3F18D0B9F11F0F01D9FFF74DFF4FF031
:10A6D000A043012202FA09F2C3F80825D4F800B019
:10A6E000BBF11F0F994601D9FFF73EFF0BF5E07B49
:10A6F000032349F82B30D4F80490B9F1FF3F0BD075
:10A70000B9F11F0F01D9FFF72FFF09F5E0794FF0DD
:10A71000A043002243F829202B68A269C3F824250E
:10A72000217D637D2A680B43C2F86C35D4E90012A1
:10A730002B68C3F80C15C3F81425237D012B35D1E4
:10A74000D4F80890B9F1FF3F0BD0B9F11F0F01D930
:10A75000FFF70AFF09F5E0794FF0A043002243F824
:10A760002920D4F80C90B9F1FF3F18D0B9F11F0F90
:10A7700001D9FFF7F9FE4FF0A043012202FA09F2D6
:10A78000C3F80825D4F80CB0BBF11F0F994601D9C6
:10A79000FFF7EAFE0BF5E07B032349F82B30D4E901
:10A7A00002212B68C3F80815C3F81025242373432E
:10A7B00008EB0302C2F804A0226948F80320BAF1AA
:10A7C000000F46D04FF488712868247FFFF7C4FE3D
:10A7D0004FF490712868FFF7BFFE4FF4927128681C
:10A7E000FFF7BAFE4FF4A2712868FFF7B5FE2B6899
:10A7F000254AC3F804232B684FEA133AA31E012B02
:10A800004FFA8AF906D9631F022B03D91F496B201F
:10A8100001F0B0FBB9F1000FACBF09F160431C4B74
:10A820004FEA4414B8BF0AF00F0AE4B2AABF03F516
:10A83000614303F80A4083F800432B681B0B5AB2AC
:10A84000012103F01F0301FA03F35209114941F8F2
:10A8500022302B680822C3F80025242303FB06833B
:10A860000022C3E906225A61012283F820203846DB
:10A87000BDE8F88F0827FAE71127F8E7B956030073
:10A8800038AF002099A50200100302007B55030099
:10A8900014ED00E000E100E02DE9F843364E0779C1
:10A8A000242303FB0763044693F82030012B8846DA
:10A8B000914604D031494FF4927001F05BFBB8F13E
:10A8C000000F04D12D4940F2251001F053FBB9F1DE
:10A8D000000F04D129494FF4937001F04BFB237909
:10A8E00013B9B9F1FF0F04D9244940F2271001F040
:10A8F00041FB08F06043B3F1005F37D12379242591
:10A9000005FB03635A69002A32D105FB07654FF442
:10A910009071C5F81490C5F808802068FFF71CFEF8
:10A920004FF4AC712068FFF717FE23686969A868C7
:10A93000C3F84405C3F848152368012199606B6882
:10A94000C3B92268D2F82011D2F8583149B9002B86
:10A95000F8D00F20242303FB076600237361BDE8B2
:10A96000F883002B14BF0F200020F3E71020F6E738
:10A970001120F4E71046F2E738AF0020B956030083
:10A980002DE9F041484E0479242303FB0463054676
:10A9900093F82030012B8846174604D043494FF4E2
:10A9A000B77001F0E7FAB8F1000F04D13F4940F267
:10A9B0006F1001F0DFFA27B93C494FF4B87001F08D
:10A9C000D9FA2B790BB9FF2F04D9384940F271100D
:10A9D00001F0D0FA08F06043B3F1005F61D12423A5
:10A9E00003FB0463596821B12B684FF40472C3F868
:10A9F0000823242303FB04639A6952B1DA69002A0D
:10AA00003DD021B12B684FF40472C3F80423112008
:10AA100033E09F61C3F80C80DA614FF488712868D5
:10AA2000FFF79AFD4FF4A2712868FFF795FD2B6898
:10AA3000C3F83485C3F838752B682ABB01221A6025
:10AA40002A792B68242101FB0261496819BBD3F8DC
:10AA50001041D3F84411D3F8240114B909B90028DE
:10AA6000F5D0242303FB02660023984214BF032081
:10AA700018469942B36118BF0F20BDE8F081C3F8B2
:10AA80001080DF610122C8E7D3F8002242F02002E3
:10AA9000C3F80022D4E74FF40472C3F80423002063
:10AAA000EBE71020E9E700BF38AF0020B9560300FC
:10AAB0006DDF704779DF70477DDF704764DF704777
:10AAC0002DE9F74F0C9CBDF834B02788002580464F
:10AAD0008A4691462E46B8F80020B2420BDC35B1CA
:10AAE0002288013AD21B92B2FF2A39D8DA550020C7
:10AAF00003B0BDE8F08FD8F8042052F8260001908A
:10AB000000220DF1030101A8FFF7D8FF0028EFD1C3
:10AB10009DF803204A4521D12288002D14BF002032
:10AB2000022002EB09010144594519DC3DB901320B
:10AB300092B2228003F802A0228801322280228869
:10AB40000DF103011A4401A8FFF7B8FF0028CFD187
:10AB500021889DF803200A44228001250136BAE7A6
:10AB60000C20C5E72DE9F341089CBDF82450174699
:10AB7000CDE9004502220646FFF7A2FF48B91022A0
:10AB800039463046CDE9084502B0BDE8F041FFF74F
:10AB900097BF02B0BDE8F0812DE9F04F0023168881
:10ABA000138090F82D3085B007460D46144653B3F8
:10ABB000082E01D80C2026E102A8FFF779FF002813
:10ABC00040F0218113880822CA54238801339BB2A4
:10ABD0001B222380CA542088013080B220800622A4
:10ABE0000DF10901284401F093FD23889DF8082008
:10ABF00006339BB212F0FE0218BF01222380EA54F2
:10AC0000238801332380BB78FBB123880433B3420C
:10AC1000D0D802A8FFF74EFF002840F0F480238828
:10AC20000322EA54238801339BB219222380EA5479
:10AC30002388BDF8082001339BB2E9182380EA5429
:10AC4000120A4A70238802332380FA789AB1238843
:10AC5000D91CB142AED80221E954238801339BB2FA
:10AC600001212380E95423880B449BB22380EA54BA
:10AC700023880B4423807A68AAB12388D91CB14267
:10AC800098D8022192F90020E954238801339BB21D
:10AC90000A212380E954238801339BB22380EA549C
:10ACA0002388013323803B89002B40F0A0803B8A1E
:10ACB0005BB1CDE900462B460722032107F11000C6
:10ACC000FFF750FF002840F09E803B8B5BB1CDE941
:10ACD00000462B461522142107F11800FFF742FF0A
:10ACE000002840F090803A6A002A40F08F80D7F820
:10ACF0002480B8F1000F30D0B8F804302188981CB7
:10AD00008A1C0244B2423FF655AFFE283FF652AFCE
:10AD100003336B54238801339BB2FF222380EA5410
:10AD2000238801339BB22380B8F80020EA54E91845
:10AD3000120A4A702088023080B22080B8F80420BD
:10AD40005AB1D8F8081000296AD0284401F0E0FC74
:10AD50002388B8F804201344238097F82C30002B64
:10AD600040F09980387800284DD03B88012B57D08F
:10AD700021888A1CB2423FF61DAF012805D17B789D
:10AD800002330B449E42FFF415AF023E761A04A92B
:10AD9000B6B221F8086DA818FFF78EFE98BB397877
:10ADA000BDF80820022900F0BB807B78934202D3D3
:10ADB000B24240F2B380012940F0B4809BB29E427F
:10ADC000C0F0B080ADF808300821BDF80830FE2B87
:10ADD0003FF6F0AE22880133AB542288013292B2A2
:10ADE0002280A95422881344238000200BE0CDE95F
:10ADF00000462B460622022107F10800FFF7B2FEAB
:10AE000000283FF454AF05B0BDE8F08FB4F800C09F
:10AE10000CF10603B3423FF6CDAE1188052901D8E7
:10AE20000720F0E76FF4486E01EB0E039BB24FF280
:10AE30007D3E7345F4D95388052BF1D96FF44860F2
:10AE4000181880B27045EBD94FF6FF70814203D0DD
:10AE5000834201D09942E3D8052305F80C302388BA
:10AE600001339BB212212380E954238801339BB222
:10AE700023801188E954E818090A417023880233B5
:10AE80009BB223805288EA54E918120A4A70238838
:10AE9000023323802BE7BB6A002BC1D04FF000099F
:10AEA0004FF00C0A4FF0160B97F82C305FFA89F22E
:10AEB00093427FF657AFB96A0AFB02F201EB020830
:10AEC000B8F80430981CFE283FF674AE208803338F
:10AED0002B54238801339BB2238005F803B02388C9
:10AEE00001339BB223808A5AEA54E918120A4A7045
:10AEF0002088023080B22080B8F804205AB1D8F8F7
:10AF0000081000298CD0284401F002FC2388B8F8EE
:10AF100004201344238009F10109C5E7092154E7FE
:10AF2000B242FBD9ADF808604EE770B5C0B14AB186
:10AF300016880024B44203D305196D789D4208D0C9
:10AF4000A14201D800200BE0055D01352C44A4B2DC
:10AF5000F0E7A142F6D9A31C1380005D013880B24E
:10AF600070BD37B502AC002324F8023D13462246DB
:10AF70000546FFF7DAFF10B1BDF80600284403B01C
:10AF800030BD72DF704773DF704738B50122044669
:10AF90000D46B0F83812D0F83402FFF7E2FF00B1E6
:10AFA000057004F13C0204F50D7104F15400BDE894
:10AFB0003840FFF7E6BF80F830107047F8B5044618
:10AFC0000F46002975D0002873D091F87A301BB154
:10AFD00091F89830002B6ED1D7F8A030042B6AD0AE
:10AFE000D7F89C30042B66D04FF0000C84F802C0D8
:10AFF00007F178060FCE251D0FC50FCE0FC596E8B9
:10B00000070085E8070084F830C0D7F8A4306363F0
:10B01000D7F8A830A3634FF6FF7504F50D73C4F895
:10B020004432A4F848520722614604F24A2001F053
:10B0300009FC23780BB984F8545094F8243004F1B7
:10B040005501C4F8341283B3EE23A4F8383204F562
:10B050000E723846FFF7A0FD30BB94F8243004F29E
:10B060004311C4F83C1213B3EE23A4F8403204F5A4
:10B07000107207F13C00FFF78FFDA8B9A269A4F890
:10B08000482001236269206484F85000626401460C
:10B0900084F8513084F83C3004F13C0204F154004F
:10B0A000FFF76FFF00B92370F8BD1F23CDE71F2303
:10B0B000DBE70E20F8E70720F6E7F8B50778044647
:10B0C0000D46002F00F0058100F24A26A1700722EC
:10B0D0000021304601F0B6FBE38813B1A378012BC1
:10B0E00004D0E3794BB1A378022B06D1636BA3B1F3
:10B0F000012284F8512208209847334604F5147140
:10B1000013F8012F12B99942FAD117466B1E032B7F
:10B1100053D8DFE803F0050B0F1284F85132ECE747
:10B12000A3791BB194F8243003B95FB9E3790BB16B
:10B13000002F44D1237A002B43D1637A002B0CBF1C
:10B1400000250425636BA570002B3CD0033D012D29
:10B1500039D86279002A36D094F85222002A32D1A6
:10B1600084F85422012284F853220720984704F1DE
:10B170003C0518220021284601F064FBE36A94F89C
:10B1800024200121581E884288BF0B4684F83C10B9
:10B1900084F8513032B1884296BFA36A84F85210C5
:10B1A00084F85230A178002384F8503004291BD849
:10B1B000DFE801F0770D223559000025C2E70225AE
:10B1C000C0E70325BEE7002384F85332CFE7C4F875
:10B1D0004432C4E910630223012284F83C30802306
:10B1E00084F83120A4F84830A378002B5CD1636B3D
:10B1F000002B6AD1002067E0022384F8313062B16D
:10B20000072384F83C302369A4F848300023C4F8AD
:10B210004432E36826646364E6E70323F1E7636985
:10B220006364A369A4F8483012B1062384F83C3063
:10B230006379B3B194F852329BB994F8543283B124
:10B24000022384F8503004212046FFF79EFE002898
:10B25000CAD1052384F8313004F50D73C4F84432A3
:10B26000C2E70323F6E7E3696364236AA4F848307E
:10B2700012B1062384F83C30637983B194F85232DA
:10B280006BB994F8543253B1022384F8503004213E
:10B290002046FFF77AFE0028A6D10623DAE704232A
:10B2A000D8E784F831309FE72A46D4F8441204F1F5
:10B2B0005400FFF766FE38B994F8301094F8540043
:10B2C000FFF761FE002892D0F8BD94F8310098474E
:10B2D00090E70820F8E710B50388112B0C460AD038
:10B2E000262B1FD0102B05D1C37B012B02D18388C5
:10B2F000A1F8483210BD002381F852328288B1F89B
:10B3000048329A42F6D10B79002BF3D10121204625
:10B31000FFF7D3FE0028EDD0A36B002BEAD0BDE8E9
:10B3200010401847037A013B012BE3D889780523A5
:10B33000013191FBF3F303EB8303C91AC9B2E6E7CA
:10B34000704775DF704776DF70477ADF70477BDFC5
:10B3500070470000034B1A8882420CBF1846002039
:10B36000704700BF78AF0020024B9B6903B11847BC
:10B37000704700BF5CAF002037B585B22846FFF7A5
:10B38000E9FF034670B1164C017A227B91420BD241
:10B3900000F10A012846FFF7D4FFE8B1112801D0D7
:10B3A000FFF7E2FF03B030BD237C0022027243B1FD
:10B3B0003B212846FFF7C7FF30F0080301D0FFF715
:10B3C000D3FF6369002BEDD000228DF80420ADF887
:10B3D000065001A89847E5E71A7A01321A72E1E7A8
:10B3E0005CAF002013B50B46497A0F4C024669B991
:10B3F000D4E901101C7A002C18BF01465868FBF7ED
:10B40000AFFD08B1FFF7B0FF02B010BD0021197207
:10B410006369002BF8D00121ADF806008DF8041007
:10B4200001A89847F0E700BF5CAF002030B58388E3
:10B430000588B3F5FA7F24BF6FF4F9729C184A8827
:10B4400038BF002495420CD84088904209D38A889E
:10B45000A24206D303F2F310904234BF0020012031
:10B4600030BD0020FCE7000070B50388112B0146B9
:10B4700048D002D8102B1ED070BD122B52D0502BAA
:10B48000FAD12F4BC288DB899A42F5D1038A022B6D
:10B49000F2D186883046FFF75DFF05460028EBD0E5
:10B4A00001F1120000F08AF830BB6868FBF79CFDE0
:10B4B0000028E1D009E0C37B012BDDD14FF6FF70FE
:10B4C000FFF748FF054620B90420BDE87040FFF7AC
:10B4D0004BBF8E881B4A0680002303721368C5F891
:10B4E0000A300A30536843601031FFF79FFF144B56
:10B4F0006872DB89002BBFD129463046BDE8704019
:10B50000FFF770BF8088FFF725FF04460028B3D0FF
:10B510004068FBF769FD08B1FFF726FF4FF6FF73A0
:10B520002380A9E786883046FFF714FF05460028E8
:10B53000A2D008310A30FFF779FF6872DCE700BF5C
:10B540005CAF00208CAF0020F8B5064650B305462E
:10B550000FCD154F3C460FC495E8070084E807005F
:10B560003068124B3B60B8B1FFF7EFFEC8B93168E5
:10B570000A681A604A685A600D480E4A4FF6FF730F
:10B5800003800D4B40F8043F0021FBF7D7FC002857
:10B5900014BF0320002004E01846FFF7D8FE00285F
:10B5A000EAD0F8BD0E20FCE75CAF00208CAF002095
:10B5B00078AF002079B3020094AF0020007800F04B
:10B5C0000100704790DF7047A5DF7047B5DF704717
:10B5D0007FB50023ADF80810ADF80A106A4602A93D
:10B5E000064603930093ADF80430FFF7EBFF0546E2
:10B5F000F8B1114B114CE41AE408FCF7F5FF2404F0
:10B6000044F00104034632460D492046FCF75CFB3A
:10B61000BDF80020BDF8023002B91BB1094920462F
:10B62000FCF752FBBDF804201AB107492046FCF78D
:10B6300041FB284604B070BD405F0300B05F0300CB
:10B640000C570300565703009557030088B14FF07D
:10B65000F7130360FB230371F723C38017230381D0
:10B6600041F6FB32002301618372C3728281184666
:10B6700070470E207047000013B5034680880C46C3
:10B68000A0B91A88232A00F0AF8011D8102A25D03B
:10B69000112A54D0A37A4BB1E1880020FFF794FF20
:10B6A000002840F0A7800123A072E37202B010BD11
:10B6B0003A2A4ED0552A68D0242AEBD11A7A0B693F
:10B6C0004A73002BE6D04DF67A21ADF80400ADF8B0
:10B6D0000010ADF802008DF8042081E00A790A73A9
:10B6E000DB7B012B13D0022B14D0E18823898B4202
:10B6F00005D20020FFF768FF70B90123E372217BB8
:10B70000637B8B42C6D20020FFF762FFC2E70B8843
:10B71000E380EAE74B88FBE7112802D10123A372FB
:10B72000EDE7FCF761FF3C4A3C4B3D499B1ADB08C7
:10B730001B04024643F00100FCF7BCFADFE7F723E5
:10B74000CB8017230B8141F6FB338872C8728B8143
:10B75000A0E75B89CA88934228BF1346172B0A6962
:10B7600038BF17230B8162B1C97A51B140F67721F6
:10B77000ADF80010ADF80200ADF80430694620467F
:10B7800090470023E372A37284E7DB88C988A07224
:10B79000172B38BF17238B4228BF0B462381FFF797
:10B7A00015FF60B1FCF720FF1B4A1C4B1D499B1A7B
:10B7B000DB081B04024643F00100FCF77BFAE27A47
:10B7C000002A7FF467AF2369002B3FF463AF40F694
:10B7D0007721ADF802202289ADF80010ADF80420E1
:10B7E00069462046984755E7197A237B994228BF36
:10B7F000194689E711283FF459AFFCF7F5FE064AD0
:10B80000064B07499B1ADB081B04024643F0010064
:10B81000FCF750FA4AE700BF405F0300B05F030047
:10B82000EB5703001C580300B0DF704766DF70471A
:10B8300010B5034600214088FFF7F8FF024608B91B
:10B840001A7210BD112801D10122F9E75B68BDE829
:10B850001040184760B159B10378DE2B0AD00B684D
:10B860004360DE2303704FF6FF7343800020704770
:10B870000E2070470820704728B10378DE2B04D1D2
:10B880004180002070470E20704708207047F0B5B7
:10B89000054685B00C46F1B1E8B10B78DE2B1AD124
:10B8A00082884B889A4204D10B7A13B10846FFF77D
:10B8B000BFFF2B88112B32D0512B0ED0012B0AD178
:10B8C0002B7A012B07D1A9886288914203D1237278
:10B8D0002046FFF7ADFF05B0F0BDAE886388B342E8
:10B8E000F9D1AF79022FF6D1AD7B2B1F022BF2D805
:10B8F00000211022684600F0A5FF052D14BF4FF46B
:10B90000C0730023694630468DF80070ADF80430EE
:10B91000FFF78AFF0028DED063689847DBE763887B
:10B92000AA889A4204BF4FF6FF736380D3E710DF03
:10B930007047000013B5044609496846FCF7EEFC61
:10B94000019808B902B010BDD0E9003120469847EF
:10B9500018B16846FCF7FAFCF2E71120F2E700BFE5
:10B960005C58030013B5044607496846FCF7D6FC4B
:10B97000019B0BB902B010BD2046D3E900219047CE
:10B980006846FCF7E3FCF3E7745803000C4991F8B0
:10B9900016335A09EC231341DB0706D5094B9A6885
:10B9A0004AB94FF480030B607047074AA12142F265
:10B9B0000200FBF78CB81A6842F480021A607047E4
:10B9C00000E100E008B3002080580300F7B5184FED
:10B9D0003C785CBB174E012520463570FFF7AAFF67
:10B9E000112820D02046FFF7BDFF134B18680190A7
:10B9F00002A800F8054DFBF715FB104901A8FFF759
:10BA000096FF0446B0FA80F0400938709DF80300B4
:10BA1000FBF738FB3CB90A4B34701C70FFF7B6FFDC
:10BA20002846FFF79FFF204603B0F0BD0824FAE741
:10BA3000B5AF0020B4AF0020585803004D67020096
:10BA4000B6AF0020014B1878704700BFB5AF00209B
:10BA500007B508496846FCF761FC019B13B903B0C0
:10BA60005DF804FBD3E9002090476846FCF76EFCC4
:10BA7000F3E700BF68580300FFF7EABF60DF7047D5
:10BA800069DF704761DF704730B5134DADF5017D5B
:10BA90004FF4FA740DF1020103A8ADF80240FFF76C
:10BAA000F1FF70B9294601A8FCF738FC029B002B76
:10BAB000F0D003A8D3E90021904701A8FCF746FC89
:10BAC000F4E7052804D0054A40F23911FAF7FFFFE0
:10BAD0000DF5017D30BD00BF985B0300465B0300A0
