:020000022000DC
:106000000000012051DF020079DF0200D179020097
:106010007DDF02007FDF020081DF02000000000060
:1060200000000000000000000000000083DF02000C
:1060300085DF02000000000087DF020089DF020028
:1060400029A102008BDF0200E1A50200F1AF0200EE
:10605000FDA802008BDF020055A4020051A7020038
:10606000C1AF0200D1AF02008BDF02008BDF020064
:106070008BDF02008BDF02008BDF02008BDF020070
:106080008BDF0200717402008BDF02008BDF0200E5
:106090000D7502008BDF0200DDD202008BDF0200F3
:1060A0008BDF02008BDF02008BDF02008BDF020040
:1060B00009A702008BDF02000000000000000000C2
:1060C0008BDF020019A7020029A702008BDF020064
:1060D0008BDF02008BDF02008BDF0200000000007C
:1060E00000000000000000000000000000000000B0
:1060F00000000000000000000000000000000000A0
:10610000000000000000000000000000000000008F
:10611000000000000000000000000000000000007F
:10612000000000000000000000000000000000006F
:10613000000000000000000000000000000000005F
:10614000000000000000000000000000000000004F
:10615000000000000000000000000000000000003F
:10616000000000000000000000000000000000002F
:10617000000000000000000000000000000000001F
:10618000000000000000000000000000000000000F
:1061900000000000000000000000000000000000FF
:1061A00000000000000000000000000000000000EF
:1061B00000000000000000000000000000000000DF
:1061C00000000000000000000000000000000000CF
:1061D00000000000000000000000000000000000BF
:1061E00000000000000000000000000000000000AF
:1061F000000000000000000000000000000000009F
:1062000010B5054C237833B9044B13B10448AFF3F0
:1062100000800123237010BDA0A200200000000018
:106220004C7C030008B5034B1BB103490348AFF393
:10623000008008BD00000000A4A200204C7C0300E8
:10624000154B002B08BF134B9D46A3F5803A002148
:106250008B460F461348144A121A07F0CDFF0F4B16
:10626000002B00D098470E4B002B00D09847002001
:10627000002104000D000D48002802D00C480BF04E
:1062800069FD07F097FE2000290000F029F807F0CB
:1062900081FE00BF00000800000001200000000097
:1062A00000000000A0A20020B0B40020551D030093
:1062B000252F0300012807D002D3022807D07047FA
:1062C0000448002100F0AAB900210348FAE70021A0
:1062D0000248F7E7EB5C0300EF5C0300F75C0300A8
:1062E0002DE9F0432DED028B4FF4004197B00020D3
:1062F00002F0CEFA18B1704A502101F066F802F0AF
:10630000F5F96E486E4C07F0C1FF6E4807F0CEFB02
:106310006D4B186007F012FC4FF0A0434FF40002E1
:10632000C3F818254FF08072C3F818254FF000729B
:10633000C3F8182594E80F0006AD103485E80F0067
:1063400094E80F000AAE86E80F0000231A46314693
:10635000284601F0B7FD18B1574A6D2101F035F814
:10636000284600F0E3F8594807F090FF584B0FCB50
:106370000EAC84E80F001322142321465548CDE9C2
:106380000E2303F0A3FD18B14B4A772101F01DF84D
:106390005048514E9FED518ADFF8549100F0F6F9C4
:1063A0004F4807F073FF00F033FD4E4807F06EFFD3
:1063B0000024A0462746484800F080FD012C10D05C
:1063C000022C42D00020FFF775FF304600F054FD4C
:1063D000044610B1778A0124EDE7014600F0D8FDAC
:1063E000E9E72046FFF766FF3046758A00F044FD76
:1063F00018B100F09FFA0024DDE7EB1B07EE903A9E
:10640000F8EEE77AB6EE007A67EE887AF4EEC77AAD
:10641000F1EE10FA04DD778A022400F06DFACAE783
:1064200017EE900A0EF00EFF4A46CDE9000110214A
:1064300012A808F007F812A807F028FF214612A8B2
:1064400000F0ECF864210846C8E72046FFF732FF69
:1064500000F076FABDEEC11A30468DED021A00F05A
:106460000BFD05460028C4D10298A0EB080007F0F8
:106470008DFD59280BDD2946284600F089FD16A818
:10648000042150F8508D778A07F0DAFBA3E76FF00C
:106490003101322000F07CFD2946134800F0BEF89F
:1064A000029B124A102112A807F0CCFF012112A86A
:1064B00000F0B4F87FE700BF8C5C0300935C03003E
:1064C0005C5C0300A8980020FCB30020A55C0300DE
:1064D0007C5C0300085D0300BCA20020B8DDB2387C
:1064E000BB5C0300CD5C0300F75C0300E85C0300C9
:1064F000E25C03001FB500220091022369460430CC
:10650000CDE90132039204F039FB05B05DF804FBDC
:1065100038B5054D0A2445F001054FF47A40A847E7
:10652000013CFAD138BD00BF205D030073B502AC59
:106530000E2324F8043D374E21463060FFF7DAFF82
:106540000546C0B1344A182100F03FFF284602B08A
:1065500070BD314A2221F7E72F4A2C21F4E72E4A59
:106560003621F1E72C4A4021EEE72B4A4A21EBE79E
:10657000294A5421E8E7FFF7CBFF02232146306880
:10658000ADF80430FFF7B6FF05460028E1D1FFF76C
:10659000BFFF4FF4804321463068ADF80430FFF769
:1065A000A9FF05460028D7D1FFF7B2FF48F2010343
:1065B00021463068ADF80430FFF79CFF05460028FF
:1065C000CDD1FFF7A5FF4FF4004321463068ADF869
:1065D0000430FFF78FFF05460028C3D1FFF798FF6F
:1065E00044F2030321463068ADF80430FFF782FF20
:1065F00005460028B9D1FFF78BFF402321463068BC
:10660000ADF80430FFF776FF05460028B0D1FFF75C
:106610007FFF9BE75CA30020265D03002DE9F3418B
:1066200007460C4607F0CCFF102806463CD85CBB5A
:1066300002A9202321F8043D1F4B1868FFF75AFFD9
:106640000446C8B9DFF870800025B54238BF7B5DCD
:10665000D8F8000028BF20239A0862F07F029B012F
:1066600001A98DF804208DF80530FFF743FF04469B
:10667000F0B1124A8E2101E0104A6D2100F0A5FE12
:10668000204602B0BDE8F081012C0FD102A93023D1
:1066900021F8043D084B1868FFF72CFF044600283A
:1066A000D0D0064A7521E9E70924E9E70B24E7E79A
:1066B0000135102DC9D1E3E75CA30020265D03005E
:1066C000704700007FB5400003AB8DF80C108DF8CB
:1066D000150000210B480493009102238DF80D2032
:1066E0008DF8143004AA012300688DF8161003F009
:1066F00059FC18B1044A322100F067FE07B05DF87A
:1067000004FB00BF60A30020A05D030000B58BB0B8
:106710000DF10F030693012398408DF81D001843D7
:106720008DF80F108DF8250000210F4800910DF114
:1067300017028DF81C308DF81E3008928DF8243029
:1067400006AA022300688DF817108DF8261003F0B2
:1067500029FC18B1054A282100F037FE9DF81700E2
:106760000BB05DF804FB00BF60A30020A05D030038
:1067700038B5054D044645F001054FF47A40A84769
:10678000013CFAD138BD00BF905D030007B5234B33
:10679000234A186092E803006B4683E80300214A0D
:1067A0002148194604F0C8FA18B1204A432100F0E4
:1067B0000CFE80226B216820FFF784FF6420FFF726
:1067C000D7FF00226B216820FFF77CFF00226A219F
:1067D0006820FFF777FF0320FFF7CAFF0222372167
:1067E0006820FFF76FFF18221B216820FFF76AFF60
:1067F00000221C216820FFF765FF01220B210C20DD
:10680000FFF760FF6420FFF7B3FF02220A210C208C
:10681000FFF758FF03B05DF804FB00BF60A3002042
:10682000805D0300C1660200985D0300A05D030067
:10683000F0B543218BB06820FFF768FF4421044680
:106840006820FFF763FF40EA042006B24521682074
:10685000FFF75CFF462104466820FFF757FF40EA38
:10686000042005B247216820FFF750FF4821074662
:106870006820FFF74BFF07EE906AF8EEE77A0446D0
:1068800017EE900A0EF0DEFC19A3D3E900230EF0F8
:106890005BFE0FF007F807EE905AF8EEE77A0190EA
:1068A00017EE900A0EF0CEFC11A3D3E900230EF0F0
:1068B0004BFE0EF0F7FF44EA0724009020B207EEEB
:1068C000900AF8EEE77A17EE900A0EF0BBFC08A3E8
:1068D000D3E900230EF038FE0EF0E4FF9DED010A2F
:1068E000DDED000A01EE100A0BB0F0BDAFF3008041
:1068F000666666666666304010B50B4804F00AFBB3
:10690000044670B9094B084800229A605A601A6020
:1069100004F01AFB044804F0C7FA054B20461C603B
:1069200010BD0820FCE700BF985D030064A30020B1
:1069300070A30020014804F0D3BA00BF985D0300A3
:1069400000B52DED028B00218BB02D4804F012FB19
:106950002C4A9FED2D7A13681060C31A07EE903A07
:10696000F8EE677A87EE878AFFF762FF274BF6EE2D
:10697000007AB4EEE71AF1EE10FA06DCBEEE007A09
:10698000B4EEC71AF1EE10FA05D593ED027AA8EE2F
:10699000017A83ED027AB4EEE70AF1EE10FA06DC32
:1069A000BEEE007AB4EEC70AF1EE10FA05D593ED0B
:1069B000007AA8EE007A83ED007AF4EEE70AF1EEB1
:1069C00010FA06DCFEEE007AF4EEE70AF1EE10FAB9
:1069D00005D5D3ED017AE8EE207AC3ED017A93E88C
:1069E00007000AAB03E907009DED070ADDED080A81
:1069F0009DED091A0BB0BDEC028B5DF804FB00BFE6
:106A0000985D030070A300200024744964A3002053
:106A10002DE9FF47324E8946074600254FF0FF31EA
:106A200030688DF80B5003F0C3F8B9F1040F53D957
:106A3000DFF8B8A04FF47A78CDF800800023022266
:106A400003A9306803F03EF8044638B101462548F2
:106A500007F01CFC204604B0BDE8F0879DF80C3020
:106A6000AA2BE9D19DF80D30552BE5D10346CDF881
:106A7000008001220DF10B01306803F023F8044679
:106A80000028E7D19DF80B20931C4B4524DA0346E0
:106A9000CDF800800332F91C306803F013F8044687
:106AA0000028D7D1022203A9384607F00BFB9DF836
:106AB0000B10B9703846033100F0D0F99DF80B3057
:106AC0003B44DB788342C5D0032D07D001352946EE
:106AD000504607F0DBFBAFE70424BBE7024CB9E705
:106AE000B8980020F55D030024FAFFFF005E030064
:106AF0002DE9F8438778032407F1020806460D467E
:106B0000274401F154093319A04501DABDE8F8839F
:106B1000315D5A7801391429F6D801A050F821F0D6
:106B2000756B0200096B02004D6C0200696C02007B
:106B3000876C0200AF6C0200096B0200096B020057
:106B4000096B0200CD6C0200E96C0200096B0200C7
:106B5000036D0200096B0200096B0200396D02002F
:106B6000096B0200096B02009B6D0200096B0200B9
:106B7000CF6D02000F2A40F04981D9789A7842EA15
:106B80000122EA83221DB15C01F001012971B15C8F
:106B9000C1F34001E970B25C611DC2F38002AA70CA
:106BA000725C02F001026A70725CC2F340022A70E9
:106BB000A21DB15C01F00101E971B15CC1F34001BA
:106BC000A971B25CC2F380026A71197ADA7942EA79
:106BD00001226A82997A5A7A42EA0122AA82DA7AF0
:106BE000AA761A7BEA7604F10D02B15C01F001018C
:106BF000A973B15CC1F34001E973B25CC2F38002D6
:106C00002A749A7B062A1DD012D8C2B1022A15D046
:106C1000DB7B85F8203004F110021134B35C03F003
:106C200001032B77B35CC3F340036B77E4B26AE7ED
:106C3000122A09D0162AEBD1042200E0012285F89D
:106C40002120E5E70222FAE70322F8E7032A40F0D1
:106C5000DD809A7885F82C20DA7885F82D201B794C
:106C600085F82E300534E1E7072A40F0CF80D97847
:106C70009A7842EA01226A845A791B7943EA02230C
:106C8000AB840934D2E7062A40F0C080D9789A78DC
:106C900042EA0122AA8159791A7942EA01226A81DB
:106CA000DA799B7943EA02232B810834BEE7022A72
:106CB00040F0AC80D9789A7842EA0122EA825A7987
:106CC0001B7943EA02232B830434AFE7042A40F004
:106CD0009D809A7885F82F20DA7885F830201B7906
:106CE00085F831300634A1E7042A40F08F809A7885
:106CF00085F83220DA7885F833201B7985F834302E
:106D0000F0E70620B2FBF0F100FB1121C9B2022925
:106D10007CD19879597941EA0021E984187AD979A6
:106D200041EA00212985997A5B7A023443EA0123FA
:106D30006B8552FA84F479E7102A67D1A21C1234C9
:106D4000B15C01F0010185F84410B15CC1F3400170
:106D500085F84410B15CC1F3800185F84410B25C41
:106D6000C2F3C00285F8442059791A7942EA012217
:106D7000A5F84820D9799A7942EA0122A5F84A2053
:106D8000597A1A7A42EA0122A5F84C20DA7A9B7ADB
:106D900043EA0223A5F84E3048E70C2A36D1A11C5D
:106DA0000422314405F1380007F08CF9A11D0422BA
:106DB000314405F13C0007F085F904F10A01042291
:106DC000314405F1400007F07DF90E342EE70D2A1D
:106DD0001CD19B785A1E53425341E11C85F8503018
:106DE00004223144484607F06DF9E11D0422314484
:106DF00005F1580007F066F904F10B010422314453
:106E000005F15C0007F05EF90F340FE73C440DE735
:106E100008B500F075FF852804D018B10B4A2D2164
:106E200000F0D3FA002000F087FF00F0C1FC8528B5
:106E300004D018B1054A332100F0C7FA044A0549C5
:106E40000548BDE8084002F0F1BC00BF115E030038
:106E50009C5E0300705E0300B85E030010B5821CE8
:106E60000023141AA14201DC184610BD12F8014B90
:106E70006340F6E7FFF7F2BF10B5827B0C49AAB179
:106E80000B7883F001030A70C27B0A491AB10C78AF
:106E9000002C08BF13460A70027C07491AB1087813
:106EA000002808BF13460A70184610BD1346EAE7CB
:106EB00074A3002075A3002076A3002030B5A5B0F0
:106EC0008C220021054601A807F096F98C2101A823
:106ED000FFF79EFD044618B9294601A8FFF708FEF2
:106EE000204625B030BD00002DE9F043C3B00C466C
:106EF00002AD0646FE2200210DF10A0007F07CF9E2
:106F000045F2AA53224631460DF10B00E61C2B80B8
:106F1000AC7007F0D7F831462846FFF7ABFFDFF833
:106F20003480A855002704344FF0FF39FBB29E424D
:106F300001DA00200BE0CDF800900023224629461C
:106F4000D8F8000002F00EFD01370028EED043B063
:106F5000BDE8F083B89800201FB540F20143ADF8BA
:106F60000600ADF80410022201A90DF10A00ADF8E7
:106F7000083007F0A7F802220DF1060103A807F078
:106F8000A1F8062102A8FFF7AFFF05B05DF804FBEA
:106F90002DE97043054608460E4606F0F7FF044605
:106FA000284606F0F3FF8442D4BF2C463446AE4256
:106FB00031D070190EF034F98046701B89460EF0FE
:106FC0002FF902460B460DF0DFFF15A3D3E900238E
:106FD0000EF0BAFA0B460246494640460EF0B4FAA5
:106FE0000EF038FC0EF01CF941EC100B0DF074FFA4
:106FF00051EC100B0EF02EFC00F50043B3F5803F72
:1070000001D2012801D86442012021B200B2BDE8BA
:107010007043FFF7A1BF0020F7E700BFAFF3008088
:107020000000000000C05E4038B5054D044645F044
:1070300001054FF47A40A847013CFAD138BD00BFA2
:10704000A05F03007FB505460E46144672B601F0F8
:1070500055FE01F077FC0028FBD13E4807F016F9F9
:1070600041F201039D4264D006D8012D12D0314671
:10707000394807F00BF910E044F201039D425AD061
:1070800044F202039D42F2D122886168334807F03E
:10709000FDF802E0324807F0F9F803F0E7F808B924
:1070A00003F0AEF80023ADF80C308DF80E3003A9D4
:1070B000012319208DF80D3003F0E2F803A9182000
:1070C00003F0DEF803A9172003F0DAF8192003F023
:1070D00093F9182003F090F9172003F08DF94FF47D
:1070E000FA70FFF7A1FF192003F058F9182003F0F8
:1070F00055F9172003F052F93220FFF795FF1920B8
:1071000003F07AF9182003F077F9172003F074F9E7
:107110004FF4FA70FFF788FF192003F03FF91820A9
:1071200003F03CF9172003F039F9FA20FFF77CFF50
:10713000CCE70C48AFE7A568284602F0B5FD236808
:1071400001960093024663680748294607F09EF8B7
:10715000A3E700BFE05E03007D5F0300385F03002C
:10716000F95E0300165F0300535F030007B503F0E9
:107170007DF808B903F044F80023ADF804308DF829
:10718000063001A9012319208DF8053003F078F8A5
:1071900001A9182003F074F801A9172003F070F872
:1071A000192003F029F9182003F026F9172003F01D
:1071B00023F94FF4FA70FFF737FF192003F0EEF8C8
:1071C000182003F0EBF8172003F0E8F83220FFF75F
:1071D0002BFF192003F010F9182003F00DF91720E8
:1071E00003F00AF94FF4FA70FFF71EFF192003F0BD
:1071F000D5F8182003F0D2F8172003F0CFF8FA20C2
:10720000FFF712FFCCE70369C1688B429DBF82681C
:10721000D21802F1FF3203F1FF3394BF501A581A0B
:1072200070472DE9F041D0E902670446F61B40683B
:10723000964288461546384405D906F043FF3D443A
:10724000E560BDE8F0813246AD1B06F03BFF2A4603
:1072500008EB0601606806F035FFF1E72DE9F84319
:10726000C5680646894617464FF000083469B3687A
:107270007068A54228BFE418013C621B5C1BBC423D
:1072800028BF3C46944228BF14464946284422461B
:1072900006F018FFB3682544AB4208BF00253F1B2A
:1072A000A044A144F560E1D14046BDE8F883000068
:1072B00010B5114C114AA2610223C4E90433104BEA
:1072C000E361A2644FF400730E4A2362E264002378
:1072D00010220D49A362E01D6362E362A36563654A
:1072E000E365226507F0F6F80849204607F0F2F852
:1072F0002023A37110BD00BF00B40020A65F0300CF
:10730000F8A50020E8A50020AF5F0300B35F0300ED
:10731000F8B5184C182300FB033503FB0040254447
:10732000C46A012C0F46164611D003D3022C1BD081
:1073300000240AE02846FFF766FF864205D8324659
:1073400039462846FFF76DFF34462046F8BD2846EB
:10735000FFF759FF8642344628BF04462246394685
:107360002846FFF75EFFF0E72846BDE8F840FFF744
:1073700075BF00BF00B4002073B50D4B1B780446E9
:107380000D4616460BB9FFF793FF02A8002300F83D
:10739000013D00F0C5FA324629462046FFF7B8FF06
:1073A00004469DF8070000F0EBFA204602B070BDDD
:1073B00000B40020FFF77CBF10B511461C461A46EA
:1073C0000020FFF7D9FF204610BD00B583B0029022
:1073D0000091019244F2010071466A46FFF732FEC5
:1073E00003B000BD094A537891780133DBB299426A
:1073F00008BF0023117899421FBF037050781823EB
:1074000003FB002014BF043000207047F8A70020C1
:1074100073B5054602A8002400F8014D0E4600F0A1
:107420007FFA0DF10600FFF7DDFF90B106700A4B01
:107430009DF8062045605A709DF8070000F0A0FAFC
:1074400024B9064B4FF48012C3F80021204602B045
:1074500070BD0424F0E700BFF8A7002000E100E0C1
:10746000024B4FF43C6043F001031847C05F030038
:10747000F8B51F491F4B0025C1F84051C1F84451D0
:10748000C1F84851C1F84C51C1F80051C1F804513C
:107490001B684BB3D1F8044517490968641A24F0F6
:1074A0007F442F461A68A24209D8A41A15441A7CB0
:1074B000DE691AB11F74D3E905209047AEB90F4BAE
:1074C0000F4A197813788B4205D10133DBB2022BB6
:1074D00008BF0023137012780A4B43F822500A4B5E
:1074E0004FF48012C3F80021F8BD3346DAE700BF3D
:1074F0000010014018A9002014A9002010A90020A4
:1075000011A9002008A9002000E100E02DE9F74FB3
:107510009C4A9D49137809789C4D99423CD001338F
:10752000DBB2022B08BF0023137099491278994BE4
:107530000F6853F822003B1823F07F4300220B60B2
:107540002B6816461446944613B942B12B6006E0E8
:10755000196881420ED902B12B60091A19604FF0E7
:1075600001082B68DFF834A200930027BEB9DFF8CA
:1075700034B260E0401A0C44D968C3F800C0D3F8B4
:107580001CE031B13A1922F07F42C3E90121DE61EA
:107590001E4601227346D7E70026B046E1E734468F
:1075A000F6697B4A63681268DFF8FCC1A068991A23
:1075B00021F07F41614500F2A58001442160012254
:1075C00022742A680023C4E90133E361002A40F0F1
:1075D000A2802C60CAE75A1C9BF80210D2B29142DA
:1075E0008BF8002004BF00228BF80020182202FB39
:1075F00003B32A6819799C68022974D003297ED0C4
:10760000012918D1217CB1B9DA6862601A69A260D7
:107610005A69E2609B69A3615F4B1B78002BC0D065
:107620006160BEE79C4200F090809946DB69002BC8
:10763000F8D1002323749BF800309BF801209A4274
:10764000C9D12B682FB9009A934202D1B8F1000F2B
:1076500043D0002B41D0D3F800A0504D4C4BD5F86F
:1076600004751C68DFF844813E1B98F8003026F052
:107670007F4603369BB94FF48033C5F84433C5F8D1
:107680000433474B4FF400324FF00109C3F8802117
:107690001A60C5F80090FFF7E3FE88F80090B24545
:1076A0002CBF5444A41924F07F44C5F84045D5F8B4
:1076B0000435DB1B23F07F43E41B033324F07F44BA
:1076C000A3420AD9D5F80435C5F84035FFF7C8FEFE
:1076D000334B4FF40032C3F800212F4B00221A70B5
:1076E00003B0BDE8F08F13469146A0E71174D2694C
:1076F0000123002AFAD1002B9DD02A609BE70023AA
:107700001946F6E7D31A23F07F43834234BFC31AE6
:107710000023236053E721681368994213D8591A4C
:107720001160E26155E7091AD8691A4638B1034673
:1077300018688842F7D3401A18601846134621602B
:10774000E061DC6112E71346F2E74C450DD1D369E5
:107750002B6053B90E4801920121CAF8081003604A
:107760000D4B1970FFF77CFE019AE1692368C9F897
:107770001C1011B1086803440B602B689A4218BFB3
:10778000012756E710A9002011A9002018A9002000
:1077900014A9002008A9002004A90020001001401D
:1077A00000E100E0F8A70020FEFF7F0005A900200F
:1077B000F8B5194E194D1A4F4FF40033C6F8803002
:1077C00001244FF48033C5F84833C5F808336C60A2
:1077D000FFF746FEAC6000243C60FFF741FE114B12
:1077E0001C70114B0B221C809A70104B1C60104BAC
:1077F0001C70104B4FF480121C70E023C6F88021DF
:1078000086F814333260C5F8084586F81133D5F888
:1078100004353B602046F8BD00E100E00010014067
:1078200014A9002005A90020F8A7002018A900200D
:1078300010A9002011A90020074B9B784BB132B151
:1078400028B10368187C20B959745A617047072021
:1078500070470820704700BFF8A700202DE9F743C4
:107860001D4FBB7805460E4690469BB390B3042946
:107870002ED9436973B3437C02A80024012B00F87E
:10788000014D0CBF8946A14600F04AF80DF10600F3
:10789000FFF7A8FDD0B101230370104B4560D3F86A
:1078A0000435C0E90498C0E902369DF806307B70C3
:1078B0009DF8070000F064F824B9094B4FF48012DA
:1078C000C3F80021204603B0BDE8F0830424EFE7AD
:1078D0000724F7E70824F5E7F8A700200010014087
:1078E00000E100E0064A92783AB130B1426922B133
:1078F000002202740221FFF78BBD0820704700BFF1
:10790000F8A70020EFF30583C3F308032BB9EFF3C7
:107910001480C04300F00100704701207047000050
:1079200070B50446FFF7EEFF012803D0104943204D
:1079300005F052FFEFF3108672B60E4A90680123ED
:1079400098B993600C4B0D4DD3F88010294011600D
:10795000C3F88050D3F8841051604FF0FF32C3F861
:107960008420207006B962B670BD2370FAE700BFAC
:10797000C65F030078B4002000E100E0FC06FFBD14
:1079800010B50446FFF7BEFF012803D00949512076
:1079900005F022FF084B9A685AB154B9EFF31081F1
:1079A00072B6064A18681060586850609C6001B949
:1079B00062B610BDC65F030078B4002000E100E0AD
:1079C000024B1B680021986806F074BCE098002008
:1079D0001EF0040F1CBFEFF309800AE0EFF30880EC
:1079E0000549064A884201D8904202D88D464FF098
:1079F0000000034B184700000000012000E00020B9
:107A0000057A02002DE9F347054601F077F900F009
:107A100099FF0028FBD12F4B2F4C9F6A2F4BE41A64
:107A2000E408240444F00104002D4ED0AA692C4936
:107A3000204601F00BF9EB680193AB6800932949EC
:107A4000D5E90023204601F021F9EB69009326498E
:107A5000D5E90423204601F00DF91E4BDB6A980797
:107A600003D52249204601F0EDF8DFF89490DFF8C5
:107A700094A000264FF0010808FA06F33B4206D016
:107A800059F826201AB15146204601F0DFF8013698
:107A90001A2EF1D1390605D50E4B15495A6B2046E1
:107AA00001F0D4F83A0405D50A4B12499A6B2046E6
:107AB00001F0CCF8104B1B68DB0700D500BE284650
:107AC000FFF754FB02B0BDE8F0870C49204601F0F7
:107AD000B9F8C2E700ED00E0C87C0300607C030059
:107AE0001B6003003060030065600300C06003009A
:107AF0000F6103002F610300F0ED00E08D600300D3
:107B00004C6103000461030050E8002F0B4640E87D
:107B1000003C9CF0000FF7D11046704750E8003F42
:107B200043EA010240E8002C9CF0000FF6D1104619
:107B3000704750E8002F02EA010340E8003C9CF047
:107B4000000FF6D11046704750E8003F03EB0102EA
:107B500040E8002C9CF0000FF6D11046704750E82A
:107B6000003FA3EB010240E8002C9CF0000FF6D18F
:107B7000104670470121FFF7D1BF0021FFF7D9BFA1
:107B800010B50446002834D003681BB91A49FF20F9
:107B900005F022FE636823B917494FF4807005F0A1
:107BA0001BFEA36823B9144940F2011005F014FE2E
:107BB000E36823B910494FF4817005F00DFE238A64
:107BC00023B90D4940F2031005F006FED4E9012364
:107BD00021689B1ADBB20A60013BDBB2FF2B2268F3
:107BE00002D10020107110BD1168481C10600B708C
:107BF000F2E70E20F7E700BF7466030037B50546CD
:107C000020B914494FF4927005F0E6FD02A8002453
:107C100000F8014DFFF784FE2A68696813688B42FB
:107C200010D9591E116013F8014C2A8AEB6802FB27
:107C300004342A68AB6811685B1A1179DBB2994287
:107C400038BF13719DF80700FFF79AFE204603B076
:107C500030BD00BF7466030037B50C46054620B939
:107C6000104940F2471005F0B7FD24B90D494FF413
:107C7000A47005F0B1FD02A8002300F8013DFFF754
:107C80004FFE2A681368591C1160EA68A41A2A8AF0
:107C9000B4FBF2F41C709DF80700FFF771FE03B00F
:107CA00030BD00BF7466030038B5084C04F108030A
:107CB0000546002818BF1C4623682BB11A682260AD
:107CC0005B6828469847F7E738BD00BF24A9002025
:107CD00020B9054B01225A70FFF7E6BF012802D1F7
:107CE000014A9070F8E770471CA9002020B9034BA7
:107CF00001225A70FFF7D8BF704700BF1CA90020AF
:107D000038B50B4C237883B90A486360A3602361BC
:107D1000E36002F087F9054605F0C6FA08B902F0FB
:107D200097F901232370284638BD8525FBE700BF5E
:107D30001CA90020D17C020037B51E4C23780546D3
:107D40001BB91D49E92005F047FDA37803F0FF02A8
:107D5000D3B115B16B680120984700230DF10700DE
:107D60008DF80730FFF7DCFDE3689DF8070001336D
:107D7000E360FFF705FEE36823B90F4940F2051001
:107D800005F02AFD03B030BD0DF107008DF8072086
:107D9000FFF7C6FD25B1226913463BB92A6025616C
:107DA000E368002BE0D102F071F9DDE79D42F7D0E6
:107DB0001B68F2E71CA90020C466030013B5154C2C
:107DC000237823B914494FF4857005F005FDE36865
:107DD00023B9114940F20B1005F0FEFC02A8002364
:107DE00000F8013DFFF79CFDE368013BE360E368B9
:107DF00053B905F059FA18B10749792005F0ECFCA0
:107E000002F07AF90023A3709DF80700FFF7B8FD90
:107E100002B010BD1CA90020C4660300012813B5E0
:107E200009D003D303281BD002B010BD134B01228D
:107E3000C3F88020F8E702A80023114C00F8013DA8
:107E4000FFF76EFD23780BB9FFF75AFFE3689DF843
:107E500007000133E3600123A370FFF791FDE3E71F
:107E6000074B1B7823B9074940F2452005F0B4FCC5
:107E700002F0EEF8FFF7A2FFD6E700BF00E100E056
:107E80001CA90020C46603007FB503788DF8043078
:107E90004368029383688DF80C30C36804930369C8
:107EA0008DF81430054A064B01A853F8213052F8DA
:107EB0002110984707B05DF804FB00BF30A90020EF
:107EC0003CA90020F0B50646944616F8047B194AF2
:107ED00042F827C0184A42F82730184B0C460FCBFF
:107EE00085B06D4685E80F0023788DF80030637803
:107EF0008DF80130A3788DF80230E3788DF80330E7
:107F000023798DF8053063798DF80630A3680293E4
:107F1000237B8DF80C30BCF1000F637B8DF80D30A6
:107F2000074A3B4608BF00222946304602F018FDAA
:107F300005B0F0BD3CA9002030A900201C6703005B
:107F4000897E02001FB503788DF8003003798DF823
:107F5000043043798DF8053083688DF80630C368A6
:107F60008DF807300369029343690393054A064B72
:107F7000684653F8213052F82110984705B05DF853
:107F800004FB00BF48A9002050A9002002494FF47B
:107F9000F37005F021BC00BF366703001F2810B541
:107FA000044601D9FFF7F2FF012303FA04F44FF06E
:107FB000A043C3F8084510BD024B4FF4807043F056
:107FC00001031847306703002DE9F14F924690F8FE
:107FD0000080364A42F828A0354A42F828304B7BC8
:107FE00081460C467BB30B684FF0A04503F5E07368
:107FF00040F20C6245F823204B6803F5E07300263D
:1080000045F823200868FFF7C9FF6068FFF7C6FF3F
:10801000236803F5E07340F20D6245F8232063689E
:1080200003F5E0734FF0010B45F82320FFF7C4FF81
:1080300067681F2F01D9FFF7A9FFD5F81035FB405E
:10804000DB070ED506BBBAF1000F1A4A434608BF3C
:108050000022214609F1040001B0BDE8F04F03F011
:1080600073B827681F2F01D9FFF790FF0BFA07F7A6
:10807000C5F80C75FFF7A0FF01362068FFF78EFFEB
:10808000FFF79AFF092ED3D165681F2D01D9FFF79D
:108090007DFF4FF0A0420123AB40C2F80C35FFF743
:1080A0008BFF6068FFF77AFFCDE700BF50A9002083
:1080B00048A90020457F02001FB503788DF80030E5
:1080C0004368019383688DF80830C3680393054AB9
:1080D000054B684653F8213052F82110984705B0F7
:1080E0005DF804FB58A900205CA900201FB50378A7
:1080F0008DF800304368019383688DF80830C368B9
:108100000393054A054B684653F8213052F8211075
:10811000984705B05DF804FB58A900205CA9002031
:10812000F0B5194B067891F81DE043F82620174B5F
:1081300094460A6943F82620154B03F806E00C46DE
:1081400007460FCC89B06D460FC594E80F0085E84F
:108150000F000496BEF1000F0AD0BCF1000F0D4ACB
:10816000694608BF0022381D03F094FE09B0F0BD37
:10817000BCF1000F084A694608BF002207F10C0055
:1081800003F0B6FBF2E700BF5CA9002058A900206D
:1081900084B40020B9800200ED80020010B50446CE
:1081A00018B90649312005F017FBA2682AB16369A6
:1081B0002168206998470023A36010BD79670300F8
:1081C0000EB433B5059D044618B91249422005F096
:1081D00003FB63691BB90F49432005F0FDFA2368CF
:1081E0001BB90C49442005F0F7FA63681BB909492B
:1081F000452005F0F1FA3DB102AA06AB42F8043D74
:108200002946204600F06EF802B0BDE8304003B0C9
:10821000704700BF79670300826830B40468551C5A
:108220008560A154D0E901329A4202D330BCFFF7F5
:10823000B5BF30BC704700002DE9F84F9946DDE925
:108240000A431746824688460A460126BA420FD29A
:108250004E4538BF4E4613F0010B01D164B90024DE
:108260000125B9F1010F1AD909F1FF397D43F8E76A
:10827000B2FBF7F20136E9E79B070ED5B9F1000F23
:108280000CBF30252025A642EAD2013C29465046A3
:10829000FFF7C2FF002CF6D1E1E72025F3E7B8FB9A
:1082A000F5F39F42E2D9DFF83890B8FBF5F350467A
:1082B00019F8031005FB1388FFF7AEFFB5FBF7F5C0
:1082C000002DF2D1BBF1000F02D00CB1A64201D3B8
:1082D000BDE8F88F20215046013CFFF79DFFF4E7F1
:1082E000BF6703002DE9F74F0E469046054620B9BB
:1082F000AC494FF4A27005F06FFA6B6923B9A94934
:108300004FF4A37005F068FA2B6823B9A54940F231
:10831000471005F061FA6B6823B9A2494FF4A470C5
:1083200005F05AFA002E00F03A8116F8011B0029D8
:1083300058D0252940F0D180002702E047F00107FE
:108340001646324612F8013B2D2BF7D0302B04D0C5
:108350002B2B05D147F00407F2E747F00207EFE7C0
:1083600000242A2B06F101021BD1D8F80030191D78
:10837000C8F800101B6816461C4433782E2B1CD1FD
:1083800001364FF0000A314611F8012BA2F13000FE
:10839000092814D80A2303FB0A23A3F1300A0E4646
:1083A000F1E712F8013CA3F130010929E5D80A21CF
:1083B00001FB0434303C1646D3E74FF0000A324646
:1083C00012F8011B01F0FB0068281646F8D0692955
:1083D00016D054D8582970D00ED825297DD033789E
:1083E000002BA2D12B7B002B00F0D980284603B0B4
:1083F000BDE8F04FFFF7D2BE632968D06429EED103
:10840000D8F80020111DC8F80010D2F8009089EAB1
:10841000E972A2EBE9724FF0010B092A61DCD34546
:1084200038BFD3462CB1B9F1000F01DB790700D575
:10843000013CBA0702D5BAF1000F04D0FB0702D401
:10844000002C54D10024B9F1000F58DAC9F1000909
:108450002D212846FFF7E0FE07F00302022A05D18E
:10846000BAF1000F02D1002C4DD10024CDE9004714
:1084700053460A2249462846FFF7DEFEAFE7732936
:1084800054D016D87029AAD1D8F800301A1DC8F8CF
:108490000020302128461C68FFF7BEFE78212846C0
:1084A000FFF7BAFE00220823CDE900322146102250
:1084B000E1E775292FD0782991D1D8F800100A1D4D
:1084C000C8F80020CDE90047534610222CE0D8F828
:1084D00000301A1DC8F8002019782846FFF79CFEC6
:1084E0007DE70A230BF1010B92FBF3F295E7A3451D
:1084F000A9D220212846013CFFF78EFEA0E778078D
:10850000AAD52B21A5E7A345B0D230212846013CAE
:10851000FFF782FEA7E7D8F80010CDE900470A1D53
:10852000C8F8002053460A220968A4E7D8F80030AA
:108530001A1DC8F80020F907D3F8009012D54F464D
:10854000A7EB090B17F8011B41B9A345BFF447AFCF
:1085500020212846013CFFF75FFEF6E72846FFF79B
:108560005BFEEDE7B9F1000F17D0484606F028F89A
:108570000746BC4200D954B909F1FF3919F8011F67
:1085800000293FF42CAF2846FFF746FEF6E72021EE
:108590002846013CFFF740FEEBE74F46E9E703B012
:1085A000BDE8F08FCF6703007047000007B5044BAC
:1085B0000093044A402300F032F803B05DF804FB56
:1085C000C985020061A900202DE9F84389461446B7
:1085D000B2B10F4B0F4E0325002743F0010822468E
:1085E00009EB07010020FEF793FE0744241A48B95F
:1085F00033782BB14FF47A40C047013D02D135703A
:10860000BDE8F88301233370002CE8D1F8E700BF00
:108610003068030060A900207047FEF7CBBEF0B5BC
:1086200095B01C46164608460D4600F032FD1A9BD2
:108630000D93CDE9086400242346082205A92846A5
:108640000A948DF82C400C9400F04CFD079B02938B
:10865000BDF81830ADF80C30BDF81A30ADF80E305A
:108660009DF814308DF8114003F00302012A1DD14A
:10867000BDF81440059EC3F3C203C4F383148DF800
:108680001030A20008230EA9284600F02BFDC6F3E7
:10869000952608AB0093224602AB0EA9304600F0A7
:1086A0009DFB284600F0F9FC15B0F0BD022AF8D178
:1086B000BDF81640C3F3C203A4098DF81030082793
:1086C000082C264628BF08263B4632460EA92846D7
:1086D00000F008FDA41B08AB02AA31460EA83744DF
:1086E00000F0E0FB002CEBD1DBE7000008B5FFF762
:1086F00094FF0421064800F0D7FA002803DA054960
:10870000412005F069F8044B01225A7108BD00BFF1
:10871000807D030044680300BC980020037813F0B8
:10872000040216D003F00303012B03D0022B09D05F
:10873000012070470A6800880232C0F383100244A7
:108740000A60F5E70B684288023303EB92130B6073
:10875000EEE71046704700002DE9F04F89B006465D
:10876000871C08A8484C009200230D4600F8113DD4
:10877000FFF7D6F823682B60D4E90123134422685D
:1087800001339B1A04F21C4804F5836B04F214496C
:10879000BB421AD3009A0023002A6DD0012262F353
:1087A000010343F0040366F389132168A2689DF86E
:1087B0000F000A4003320F4444F822302760FFF7CD
:1087C000DFF8012009B0BDE8F08F01214046FFF736
:1087D000BBF95846FFF7CEF90DF1200A4846FFF7DE
:1087E000C9F960684AF8100DA5682840033004EB09
:1087F00080005146FFF792FF02460498002AF4D108
:1088000005EA000304EB8303811CDB680593013058
:10881000054004EB850503F00303012B0491ED688B
:1088200023D0022B08D0194901924FF4BF7004F0F5
:10883000D3FF019A154607E0BDF816309B090333B4
:108840002D0C01EB930304934846FFF796F908B10A
:10885000049B636029464046FFF776F9D4E901237B
:108860001344226801339B1A92E7BDF81430C3F316
:1088700083132D0C0B44E6E7022262F3010343F05D
:10888000040366F39F5390E774AA0020B3680300C3
:108890000B4B0C48FF2210B59A600022C3F8182435
:1088A000C3E90022C3F81424012283F8202400F035
:1088B000A9FB044610B9044800F040FC204610BD56
:1088C00074AA0020F87C03000C69030030B50A4C40
:1088D00071B10A4A0A49121BD20800239A4201D1F7
:1088E000002030BD31F82350854202D00133F5E736
:1088F000034654F83300F4E7607C0300F87C03007F
:10890000A0A20020094B013903EBC000032909D8BC
:10891000DFE801F00A02040604207047007970477E
:10892000407970470020704702207047607C030048
:10893000034BD3E90030C31A58425841704700BF77
:1089400074AA00202DE9F04387B0FFF7F1FF064637
:10895000002840F0FC807F4DC5F81804BFF34F8F0E
:108960006868AC6806AF47F8100D2040033005EB8F
:1089700080003946FFF7D2FE029B18B1D5F81824C3
:10898000002A5FD004EA0302991C013305EB82023E
:10899000234005EB8303D268DB68049302F00303F2
:1089A000022B0392029162D1BDF80E306A484FEA61
:1089B0009318B8F1500FC14628BF4FF0500969F322
:1089C0008F1309F10801ADF80E3000F033FB0746B4
:1089D000002800F0A78000F05CFB03A90023082218
:1089E000384600F069FB029924EA01060136B60018
:1089F000B14535D95FFA89F97EB3F6B2A9EB06091C
:108A0000214003315FFA89F4B146544E05EB8101F0
:108A100008234A46384600F04FFB36B109F10803F7
:108A200022463146384600F047FB029B08F1030816
:108A300003EB98030293D5F81834002B4BD1D5F8EB
:108A400010445BE02A689A4204D86A60304607B056
:108A5000BDE8F08304EA030088E740493446D7E7DD
:108A60002140033108234A4605EB8101DAE7012B57
:108A700058D1BDF80C303848C3F38311062928BFFC
:108A8000062161F3891302318900ADF80C3000F042
:108A9000D1FA0746002845D000F0FBFA002308224F
:108AA00003A9384600F008FB0026BDF80C20C2F3ED
:108AB0008312B31C96424FEA8303BCD202994A1C2C
:108AC00021400331029205EB81010422384600F077
:108AD000F3FA0136E9E7384600F0DFFAFFF728FF3E
:108AE00080F00100C6B2B1E7E3685B7923B1236887
:108AF00039461B6820469847E3681C68002CF3D170
:108B0000384600F0CAFA06A800F8114DFEF708FF33
:108B1000D5F818340BB9029B6B609DF80700FEF77F
:108B20002FFFDBE7D5F8104454B90D4B0D480E4923
:108B3000C01AC008000440F0020000F083F8CDE73E
:108B4000236820469B689847E3681C68ECE700268A
:108B50007CE700BF74AA0020F87C030080AA0020F4
:108B6000607C0300B87C0300186903002DE9F74F0F
:108B70002F4C80460F46914601A9012218469B467C
:108B8000D4F808A0FFF7E8FD00283DD0019D00269D
:108B9000A91C5E4506EB010240D100212548FEF7E5
:108BA000B3FF80F3100B244B244A4FEA18499B1A59
:108BB000B9EBD30F04D3224940F2A31004F00CFE0A
:108BC0006B1C03EA0A0304EB830349EA0B42DA60F5
:108BD00005EA0A030333012114F8232068F3C502D0
:108BE00004F8232034F8232066F3891224F8232084
:108BF00054F8232067F39F2244F8232061F30102F5
:108C00006FF3820204F8232094F820341BB1FFF79D
:108C100099FE0028FBD103B0BDE8F08F0AEA0202FA
:108C200004EB820259F82630D3600136B1E700BF69
:108C300074AA002090AE0020F87C0300607C030042
:108C4000B368030000231A46FFF790BF13B502ACC8
:108C5000012344F8042D2246FFF788FF02B010BD1F
:108C600007B5CDE9002302236A46FFF77FFF03B073
:108C70005DF804FB1FB5CDE90123069B039301AA10
:108C80000323FFF773FF05B05DF804FB1FB5CDE9C3
:108C90000023069B0293079B03936A460423FFF776
:108CA00065FF05B05DF804FB30B5134AD2F81044F7
:108CB0000023214651B9C4682371D2F810445CB92D
:108CC000C2F81004C2681160184630BDC9680D7939
:108CD0009D420AD00968EDE7E468C16824680C6029
:108CE000D2F81024D2681060EEE701330A2BE0D1ED
:108CF0004FF0FF33E8E700BF74AA002038B5094AF7
:108D00000123D2F8104482F820341D4604B938BD3E
:108D1000E3685D71236820465B689847E3681C68D8
:108D2000F4E700BF74AA002010B5037A052B0C46A7
:108D30000FD0437A23B1084A08492046FFF740FA8A
:108D400007492046FFF73CFA2046BDE81040FFF7F0
:108D500025BA002AF8D0F3E76369030068690300C5
:108D60008869030073B5C38804460D4633B1144ABD
:108D700000921449144A2846FFF722FA217A05295D
:108D80001CD0637A4BB1A088FFF7BCFD0F4B104994
:108D900053F820202846FFF713FA227A0D4BA088BB
:108DA00053F822600021FFF791FD0B49034632463C
:108DB000284602B0BDE87040FFF702BA02B070BDAD
:108DC00063690300736903006B6903003069030082
:108DD00068690300986903008B6903002DE9F0437B
:108DE00085B01F460C9D002306460C46904695F81C
:108DF0000C902B7329463846FFF7B4FFB8F1060FE5
:108E000009D8DFE808F00412181F28334000314663
:108E10002846FFF7D5F9002229463846FFF784FF98
:108E200085F80C9005B0BDE8F083226831462846ED
:108E3000FFF7C6F9EFE7D4E9002331462846FFF7EC
:108E4000BFF9E8E7A36800933146D4E90023284638
:108E5000FFF7B6F9DFE7E3680193A36800933146B3
:108E6000D4E900232846FFF7ABF9D4E7236902933E
:108E7000E3680193A36800933146D4E900232846B0
:108E8000FFF79EF9C7E76369039323690293E368D9
:108E90000193A36800933146D4E900232846FFF7E5
:108EA0008FF9B8E708292DE9F84F80460E46174696
:108EB0001C4635D8002593F80C901D7319461046B2
:108EC000FFF750FFDFF88CA0DFF88CB0AE4229D955
:108ED00018F8052059462046FFF772F90135082D8C
:108EE000F4D11A49DFF874B02046FFF769F94FF062
:108EF000000A564524D918F80A507E2D17D92E227B
:108F000059462046FFF75CF90AF1010ABAF1080F49
:108F1000EFD1012221463846FFF706FF84F80C9076
:108F2000BDE8F88F51462046FFF74AF9D6E705F02D
:108F300073F82844427812F0970FE0D02A46DFE712
:108F400003492046FFF73CF9DEE700BF5E690300F6
:108F50005C6903005A6903005469030060690300F7
:108F60002DE9F74F99469DF8303001938846174612
:108F7000054618B92249B62004F02EFCEA8895F877
:108F800005B00BFB02FBABF1040BCB4503D81C492E
:108F9000C42004F021FC3E68B5F806A006EB0902E7
:108FA0005A4509F1040188BFABEB0906B1FBFAF49D
:108FB0003E600AFB141144B9AAEB0107B74228BF6F
:108FC00037462EB903B0BDE8F08F2D68013CF2E7BB
:108FD000019A043108EB0403681872B101463A465D
:108FE0001846F61B05F06EF8B2453C442D6857460E
:108FF0004FF0000128BF3746E3E73A461946F0E74D
:10900000F7690300FEF7BCBDF8B546790146721E4C
:109010000546002393422D6803D30024A64202D8BC
:10902000F8BD0133F6E70F682846FEF715FE013458
:109030003946F3E72DE9F843CD1C068A0746FEF7CB
:10904000DDFD043E35440446B5FBF6F5F0B14FF4C2
:109050008073EDB28380C680013D076081464FF08A
:109060000008A84512D23846FEF7C8FD064648B1AA
:1090700063790133637108F10108C9F800000760E2
:109080008146EEE72046FFF7BFFF34462046BDE8A5
:10909000F88301210430FEF757BD10B501210446C5
:1090A0000430FEF75CFD10F0FF0F04D12046BDE850
:1090B0001040FFF7A9BF10BD30B585B0144604AA13
:1090C000002542F8044D0095FFF74AFF039BA34299
:1090D00003D00349F62004F07FFB05B030BD00BF8C
:1090E000F769030030B585B0144604AA012542F89B
:1090F000044D0095FFF734FF039BA34204D00349BE
:109100004FF4807004F068FB05B030BDF7690300D0
:10911000064B10B500241C70054B1C60BFF35F8F1D
:109120000449054800F032FA204610BD38AF00204F
:109130003CAF0020486A030030AF00208268002363
:10914000936082681361826853618268D360826829
:1091500053608268136070470268136852689342D4
:1091600091BFD01A80680130801888BFC01A70473C
:1091700038B50C46054618B90449772004F02CFB95
:10918000AB68A3428CBF601C002038BD5D6A030041
:109190002DE9F84303681D685C68A54284BF8368B5
:1091A00001331746884694BF641B5C1BC268416844
:1091B000BC42064605FB02110CD37A43404604F03C
:1091C00081FFB3683D449D4288BF002533681D6020
:1091D000BDE8F88304FB02F94A46404604F072FFFA
:1091E000F26871683C1B624308EB090004F06AFFF7
:1091F00033681C60ECE7000038B5044618B907492D
:109200008A2004F0E9FA236820461D685968FFF7B0
:10921000AFFF431B5842584138BD00BF5D6A030091
:109220002DE9F3410D46044618B92E49952004F066
:10923000D3FA1DB92B49962004F0CEFA02A80023D8
:1092400000F8013DFEF76CFB2046FFF7D5FF804696
:1092500010B1237C002B3BD1276820467E687968BB
:10926000FFF786FF7860B8F1000F05D02768204629
:109270003968FFF77DFF3860E2686068531E072B8E
:1092800020D8DFE803F004101F141F1F1F182B78CD
:1092900083552046FFF760FF23689A68824200D218
:1092A0009860002415E02B8820F81630F1E72B6831
:1092B00040F82630EDE7D5E9002300EBC600C0E911
:1092C0000023E6E7294606FB020004F0FBFEE0E788
:1092D00004249DF80700FEF753FB204602B0BDE8CA
:1092E000F08100BF5D6A030073B50E461446054663
:1092F00020B9124940F2D51004F06EFA26B90F4990
:109300004FF4EB7004F068FAA4B102A8002300F84F
:10931000013DFEF705FB2846FFF71EFF844228BFEC
:109320000446224628463146FFF732FF9DF80700E3
:10933000FEF726FB204602B070BD00BF5D6A030049
:1093400037B5044620B90B4940F2EF1004F044FA57
:1093500002A8002500F8015DFEF7E2FA0C2229467A
:10936000206804F049FF9DF80700FEF709FB03B0F1
:1093700030BD00BF5D6A030013B5044620B90B4938
:1093800040F2FD1004F028FA02A8002300F8013D85
:10939000FEF7C6FA2046FFF7DFFE04469DF80700F9
:1093A000FEF7EEFA204602B010BD00BF5D6A030072
:1093B00010B5044620B9064940F20A2004F00CFA20
:1093C000236818685B68C31A5842584110BD00BF33
:1093D0005D6A03002DE9F3410C469046054618B935
:1093E0002549D92004F0F8F91CB92349DA2004F002
:1093F000F3F902A8002300F8013DFEF791FA284690
:10940000FFF7D6FF002834D12F683E68B8F1000F6F
:1094100004D139682846FFF7ABFE3860EA6869680E
:10942000531E072B1FD8DFE803F0040F1E131E1E68
:109430001E178B5D237000249DF80700FEF7A0FA2D
:10944000204602B0BDE8F08131F816302380F2E703
:1094500051F826302360EEE701EBC601D1E9002385
:10946000C4E90023E7E706FB0211204604F02AFEC8
:10947000E1E70524E0E700BF5D6A030038B5044674
:1094800020B9054940F2122004F0A6F92046A5684B
:10949000FFF772FF281A38BD5D6A03002DE9F84313
:1094A000044616468846FFF7E9FF2368A5685A6810
:1094B0000135AD1A8146E26858686368B54202FB1F
:1094C000003017D37243414604F0FCFD2268A168C6
:1094D000536833448B4296BF53680026F618566093
:1094E0002046FFF739FE23689A68824238BF9860A9
:1094F000BDE8F88305FB02F73A46414604F0E2FD79
:10950000E2686068751B6A4308EB070104F0DAFD46
:109510002368B1455D60E3D2256820466968FFF79E
:1095200027FE2860DCE7000073B50E4614460546AA
:1095300020B915494FF4B47004F04EF926B9124918
:1095400040F2691004F048F9A4B102A8002300F821
:10955000013DFEF7E5F92B7C7BB9AB689C4228BF47
:109560001C46284622463146FFF798FF9DF8070023
:10957000FEF706FA204602B070BD2846FFF77EFFD0
:10958000844228BF0446ECE75D6A030038B50D4607
:10959000044618B90849502004F01EF91DB90649BF
:1095A000512004F019F925602B6863606A689342C2
:1095B00004BF0023636038BDAB6A030010B50446E6
:1095C00018B90B49632004F007F923681BB908494F
:1095D000642004F001F9636843B1226891680B4488
:1095E00063605268934204BF0023636010BD00BFF4
:1095F000AB6A030043691B68DB6803B11847704717
:10960000012303707047000010B5044618B90849DB
:10961000922004F0E1F82368012B03D00449932041
:1096200004F0DAF8BFF35F8F0023236010BD00BFA2
:10963000146B030010B4074C0378E35C23B10430CF
:109640005DF8044B02F032BD0C305DF8044B02F0C3
:1096500053BA00BF84B4002010B4074C0378E35C15
:1096600023B104305DF8044B02F0A0BD0C305DF86E
:10967000044B02F0BDBA00BF84B4002070B5057879
:10968000012D06460C4603D029D3022D25D070BDEE
:109690004B69027A1B6841685B681868FFF744FFF2
:1096A000337A834205D903212046BDE87040FFF795
:1096B000A1BF29462046FFF79DFF63691B689B6891
:1096C00020465A7A5968FFF7C7FF0028DFD01149B2
:1096D0009B20BDE8704004F07FB82946E4E74B6961
:1096E0001B685A689D68566800212046FFF782FF74
:1096F0002A7A29683046FFF7F7FD0028C7D0C2B2A2
:1097000029682046FFF796FF0028C0D00149B22003
:10971000DFE700BFAE6B030010B5044618B9074978
:10972000852004F059F801212046FEF7EDF9BFF33A
:109730005F8FB0FA80F0400910BD00BF146B0300CA
:109740000378044AD35C13B1043002F023BD0C301B
:1097500002F042BA84B4002003681A7812B11B697F
:1097600003B11847704700002DE9704304464FF4D9
:10977000FA784FF400404FF00009E0FB01891646EB
:1097800000234FF47A72404649460CF0DBF8042877
:10979000054604D8012333700020BDE87083074AD2
:1097A00000212046FEF748F80028F6D13246294627
:1097B0002068BDE87043FEF751B800BF0196020073
:1097C0002DE9F04743691B68064618780F46144692
:1097D00018BBFF2A28BFFF24DFF84C9025462744FA
:1097E00006F10C0A337819F80330A7EB050883B1AA
:1097F000301D02F073FD00B115B9601BBDE8F087A4
:10980000012241463046FFF727FF0028F5D1013DF0
:10981000E8E7504602F082FAEDE75B68BDE8F04702
:109820001868FFF761BD00BF84B40020F0B50E4694
:1098300089B01546044608B101B11AB94449BF20A0
:1098400003F0CAFF63691B68002B7ED12B783BB104
:109850006B680BB1AB681BB93D49C92003F0BCFF75
:1098600031462022684604F02DFC2B780494991E82
:109870004A424A41002B8DF81D206946354A204650
:1098800008BF0022FEF74CFC0646002838D1636969
:109890001D6063691B685B6843B15868FFF750FD42
:1098A00063691B685B681868FFF74AFD656915F115
:1098B000080F03D12849722003F08EFF0023AB600C
:1098C000BFF35F8F67693A1D1D4603D1224972209D
:1098D00003F082FF7D60BFF35F8F636903221A7319
:1098E000009B013301BF6269137B23F002031373F2
:1098F000019A6369013206D11A7B22F001021A73C0
:10990000304609B0F0BD1B681B78022B09D1636992
:109910001B689B6820465A7A5968FFF79DFE0646E9
:10992000EEE723780D4AD35C53B10D4940F25A203B
:1099300003F052FF63691B681B78002BE7D1DFE758
:1099400004F10C0002F0F2F9F4E78526D8E700BF35
:10995000AE6B03007D960200146B030084B40020FC
:10996000606B03002DE9F04F0F4685B016469B460D
:10997000044620B952494FF4A67003F02DFF6069E8
:109980000368002B00F09180027B910740F18F80EB
:10999000002E5DD007F06042B2F1005F03D01B786B
:1099A000022B00F086800430FFF7B6FE002800F09E
:1099B000828000238DF80C300E9B5A1C0ED003AA17
:1099C0001946A069FFF7D0FE054638B1606904303A
:1099D000FFF71AFE284605B0BDE8F08FDFF8E090EB
:1099E000354663691A681378A3BBFF2DA84628BFC4
:1099F0004FF0FF085FFA88F239462046FFF71AFE5B
:109A000018B14946692003F0E7FEB5EB0805474465
:109A100006D06069FFF7A0FE9DF80C30002BE0D067
:109A2000BBF1000F02D0761BCBF800609DF80C3024
:109A300033B90E9B013303D0A3691868FDF752FFB9
:109A400060690430FFF7E0FD15B19DF80C30A3BB51
:109A50000025BFE75368D2F808A05B680193184659
:109A60002A463946FFF760FD80462046FFF768FE2C
:109A7000019B0028C9D19AF80820DAF8001018468E
:109A8000FFF732FC024628B901904946782003F0DE
:109A9000A3FE019ADAF80010D2B22046FFF7CAFD01
:109AA0000028B2D049467A20ADE7802592E7082504
:109AB00090E710258EE711258CE70D258AE700BF7A
:109AC000AE6B03002DE9F7430A9F88461646994678
:109AD000044620B9344940F2A31003F07DFE6069CA
:109AE0000368002B57D0037BDA0756D5002E38D0F9
:109AF0000830FFF711FE002851D000238DF8043004
:109B00007B1C30D135462A4641462046FFF758FE99
:109B10002D1A80440ED09DF804306069002B37D098
:109B200003681B7833B12378204AD35C5BB3201DD4
:109B300002F0DCFBB9F1000F02D0761BC9F800601F
:109B40009DF804302BB9013703D0E3691868FDF79D
:109B5000C9FE60690830FFF757FD15B19DF8043064
:109B6000FBB900250BE001AA3946E069FFF7FCFDCF
:109B700005460028C6D060690830FFF745FD284635
:109B800003B0BDE8F08304F10C0002F0E5F8D1E782
:109B9000FFF7E2FDB7E78025F1E70825EFE711259C
:109BA000EDE70D25EBE700BFAE6B030084B40020AA
:109BB00073B50E46044620B92B494FF4FD7003F0EF
:109BC0000BFE60690368002B46D0027B920745D5E7
:109BD0001B78002B3ED00430FFF79EFD00283FD0BD
:109BE00000238DF80430731C0DD001AA3146A06902
:109BF000FFF7BAFD054630B160690430FFF704FD98
:109C0000284602B070BD63691B685B685868FFF73F
:109C1000CFFB054640B96069FFF79EFD9DF8043013
:109C2000002BF0D0002504E02046FFF789FD002836
:109C3000F1D19DF804302BB9013603D0A36918681F
:109C4000FDF750FE60690430FFF7DEFC15B99DF8A2
:109C500004303BB90025D3E78025D1E70825CFE7BD
:109C60001125CDE70D25CBE7AE6B03000D4930B5CF
:109C7000A1F594720225914201D800200EE08B1AC2
:109C8000DB1093FBF5F302EBC30452F8333083424D
:109C900005D802D204F10802EDE7606830BD214624
:109CA000E9E700BF3C6D030008B5FFF7DFFF024B9B
:109CB000002808BF184608BDFE6B0300C0B2002391
:109CC00048700B707047000070B50D46044618B917
:109CD0000849712003F080FD23681A6812683AB1C0
:109CE0001A681B6851681B682846BDE87040184711
:109CF00070BD00BFF6700300F0B5044687B018B918
:109D00002D49372003F068FD2368187E1A68C0B219
:109D100007B296684FEAC70C06EB0C0256F837609C
:109D200051791779927912F0010F4FEA510501F03C
:109D3000010139D0002937D1D3F800E09EF80CE0BA
:109D40000130704530DAD3F800E00CF10800DEF89D
:109D500008C084449CF805C0B5EB5C0F24D11A6898
:109D600091680A1851F800C0187E517992F804E001
:109D70009279013011F0010F4FEA4212C0B20CBFCC
:109D80000321022102F0200218768DF8041004F15C
:109D90000C0001A98DF80550CDE9027ECDE9046CD7
:109DA00001F02EFB07B0F0BD52014FF0000C02F0A5
:109DB0002002E646E9E700BFF67003002DE9F74F01
:109DC0000E46044618B92949872003F005FD256889
:109DD000DFF89CB04FF0000802A800F8018DFDF7F5
:109DE0009FFD16B923681B6843B9002229466068A5
:109DF000FFF7F0FA90B3C5F8008000269DF8070041
:109E0000FDF7BEFD7EB32B681B694BBB2F1D1022D7
:109E10003946686904F024F9A8B104F10C0A5046E7
:109E200004F1080901F090FA23465A46394648469B
:109E3000FEF7CAF818B10D49B42003F0CDFC504626
:109E400001F038FA6F6185F818802046FFF754FF5B
:109E5000014640B12046FFF737FFBDE70126CDE7B9
:109E60002B681F69D3E703B0BDE8F08FF6700300DD
:109E7000759E020038B50C46054618B91249D22025
:109E800003F0AAFC23681B681BB90F49D82003F014
:109E9000A3FC297871B92268137E10680133007B16
:109EA000DBB2984207D913762046FFF725FF01461B
:109EB00008B938BD03212046FFF706FF20460121DF
:109EC000BDE83840FFF77ABFF6700300F8B50E46DC
:109ED000044620B919494FF4847003F07DFC63688F
:109EE00023B9164940F2091003F076FC63689B68B9
:109EF00023B912494FF4857003F06EFC26B90F495F
:109F000040F20B1003F068FC23460D4A314604F181
:109F10000800FEF759F8074670B904F10C0001F08B
:109F2000C9F923681F6096E80F002568043585E8A5
:109F30000F0023681A1D5A613846F8BDF6700300F9
:109F4000759E020037B50546019120B9144940F2CB
:109F50002D1003F041FC019B23B911494FF4977078
:109F600003F03AFC019B9B6823B90D4940F22F1086
:109F700003F032FC019B1B7B23B909494FF4987015
:109F800003F02AFC01A96868FFF74AF9044618B9EA
:109F900001462846FFF712FF204603B030BD00BF40
:109FA000F67003002DE9F04186B0884617461E463C
:109FB0000C9C054620B9194940F24F1003F00CFCE7
:109FC00027B916494FF4A87003F006FC26B91349C7
:109FD00040F2511003F000FC0023ADF800300123E3
:109FE0008DF8003001A90E4B01932846CDF808D01A
:109FF00003978DF81060CDF81480FFF7A3FF20B110
:10A0000006B0BDE8F08104B1A0479DF80030002BF8
:10A01000F9D19DF80100C0B2F2E700BFF67003006D
:10A02000BD9C020010B5044618B90749A02003F0F2
:10A03000D3FB064B187920B901221C601A715871A4
:10A0400010BD8520FCE700BF4A71030040AF00202F
:10A0500008B50B4B1B791BB90A49B92003F0BCFBAF
:10A06000094B1A68D2075FBFE02283F80023012260
:10A070001A604FF080430122C3F8182508BD00BFC5
:10A0800040AF00204A71030000E100E037B5144BF7
:10A090001B791BB91349E62003F09EFB124B0022EB
:10A0A0001A601B680193019B4FF080430222C3F8A2
:10A0B00004230E4AD06840F08073D3600C4B1C68B8
:10A0C00044F0010119605D685968491BB1F50A5FE8
:10A0D000FAD31C60074BD06001221A6003B030BD78
:10A0E00040AF00204A71030004010040F0ED00E0A1
:10A0F000001000E00800004008B5084B1B791BB9B0
:10A100000749F32003F068FB064B01221A604FF069
:10A110008042D2F81834DB03FBD408BD40AF0020E6
:10A120004A7103000C00004007B5154B1A687AB15C
:10A1300000221A601B680093009B4FF080430122AD
:10A14000C3F808230F4B587910B95A711B68984708
:10A150000D4B1A6882B100221A601B680193019BA3
:10A160004FF080430222C3F80823064B1B680120EE
:10A1700003B05DF804EB184703B05DF804FB00BFC3
:10A180000001004040AF00200401004000F1804089
:10A1900000F5C040002382B0036003680193019B77
:10A1A00002B07047054B4FF0FF32072843F82020DC
:10A1B00084BF1B1883F84820704700BF48AF0020B9
:10A1C00002494FF4F37003F007BB00BF366703008A
:10A1D0001F2838B504460D4601D9FFF7F1FFA0004E
:10A1E00000F1A040D0F8003723F44033C0F8003726
:10A1F000D0F8003743EA0543C0F8003738BD000007
:10A2000010B5164C94F8583033BBFF21E2180133D7
:10A21000202B82F83010F9D10021C8B2FFF7C2FF1D
:10A2200001310C29F9D1042200210D4803F0E4FF8B
:10A230000C4BE02283F8062340221A604FF4BE70D4
:10A24000FFF7A4FF084B4FF00042C3F8042301239B
:10A2500084F85830002010BD0820FCE748AF0020EB
:10A260009CAF002000E100E000600040034B93F849
:10A270005800003018BF0120704700BF48AF0020D1
:10A280001F2870B504460D4604D941494FF4987013
:10A2900003F0A2FA3F4E96F85830012B04D03C4907
:10A2A00040F2311003F098FA25B939494FF499700A
:10A2B00003F092FA331993F93020013265D1AA786C
:10A2C000002A54D0002356F8231001314FEA8302AC
:10A2D00048D1311902F1804281F83030002102F575
:10A2E000C04246F82310D2F810052B78697820F484
:10A2F00098101B04090520F4F85001F4801103F4B0
:10A300004033C2F810050B432102D2F8100501F4C6
:10A31000F8510B430343C2F810356B78012B4FF013
:10A32000010528D11F2C01D9FFF74AFF4FF0A043A8
:10A33000A540C3F808551F2C01D9FFF741FF04F5CC
:10A34000E0724FF0A043032143F82210E2081249C3
:10A35000012304F0070403FA04F48B5C1C438C54BF
:10A36000002003E00133082BADD1042070BDFE2294
:10A3700083F83020D1E71F2C01D9FFF721FF4FF0E0
:10A38000A043A540C3F80C55D5E70820EEE700BF71
:10A390009D71030048AF00209CAF00201F2838B5F6
:10A3A000054604D912494FF4BE7003F015FA114C5A
:10A3B000621992F93020013204D10D4940F27D102A
:10A3C00003F00AFA631993F83030072B04D80849D0
:10A3D0004FF4BF7003F000FA1F2D01D9FFF7F0FE14
:10A3E000012303FA05F54FF0A043C3F8085538BD23
:10A3F0009D71030048AF00201F2838B5054604D9D9
:10A4000012494FF4C37003F0E7F9114C621992F945
:10A410003020013204D10D4940F2871003F0DCF9FD
:10A42000631993F83030072B04D808494FF4C470EF
:10A4300003F0D2F91F2D01D9FFF7C2FE012303FA61
:10A4400005F54FF0A043C3F80C5538BD9D710300CE
:10A4500048AF00202DE9F04F87B000245B4A5C4EE6
:10A460005C4D039401211368A2F5C040012B80B21A
:10A4700006D1D6F804330B4202D0FFF787FE0C4317
:10A480000432AA424FEA4101EDD1534B1B68012B24
:10A490000AD14FF4BE70FFF779FE4FF0A04344F0AD
:10A4A0000044D3F81035039314F0FF0F1AD04B4F2C
:10A4B00000250126344210D0AB0003F1804303F5A0
:10A4C000C043D3F81005D3F8101557F82530C0F362
:10A4D0000420C1F3014103B198470135082D4FEA2B
:10A4E0004606E7D1002C6EDA00224FF0FF33CDE9AB
:10A4F00004233A4F4FF0000A56464FF0A04907EBAD
:10A500000A0393F95040631C46D0E4B2012224F0C0
:10A51000C00504F0070B02FA0BFBEB0806AAD118E2
:10A5200011F8042C12EA0B0F36D07A19A40992F90B
:10A53000302057F82280B8F1000F0AD1032C2BD11C
:10A540000DF1100C1CF8030040EA0B000CF803009E
:10A5500001E0032CF4D01F2D03D90191FFF730FE49
:10A56000019911F80C1C05F5E07311EA0B0F59F86D
:10A570002330C3F3014320D0022B0DD1032C05D18E
:10A5800021462846FFF724FE0136F6B2B8F1000F47
:10A5900002D021462846C0470AF1010ABAF1040F49
:10A5A000ADD186B14FF0A043039AD3F810359A424B
:10A5B00009D00393049B05939CE7032BECD1032C58
:10A5C000E4D10221DDE707B0BDE8F08F0061004073
:10A5D00000600040206100407C61004048AF0020E6
:10A5E00010B5054C22681AB90449512003F0F4F85B
:10A5F0002368BDE810401847A4AF0020F67103009F
:10A6000037B50D4630B90F49772003F0E5F8002043
:10A6100003B030BD0C4B9842F9D102A8002300F8DA
:10A62000013DFDF77DF9094B1C7914B901221D602C
:10A630001A719DF80700FDF7A3F9002CE7D011204F
:10A64000E6E700BFF671030000200040A4AF002041
:10A6500018B906499B2003F0BFB8054B984201BFCB
:10A66000044B00221A601A71704700BFF671030094
:10A6700000200040A4AF00200023435082B0435884
:10A680000193019B02B0704770B5D0F810310546B8
:10A690000C4653B14FF48871FFF7EEFF63795A0708
:10A6A00003D523680BB101209847D5F814315BB16D
:10A6B0004FF48A712846FFF7DFFF63791B0703D544
:10A6C00023680BB102209847D5F81C315BB12846AE
:10A6D0004FF48E71FFF7D0FF607910F0100002D1B7
:10A6E000236803B19847D5F8043163B14FF4827100
:10A6F0002846FFF7C1FF0123237123681BB1032004
:10A70000BDE87040184770BD01490248FFF7BCBF63
:10A71000ACAF002000C0014001490248FFF7B4BFC0
:10A72000B4AF00200010024001490248FFF7ACBF5F
:10A73000BCAF00200020024000F1804000F5E04066
:10A74000002382B0036003680193019B02B070474D
:10A75000F0B5514B514C1B6885B0DBB14FF48270A2
:10A7600094F82E20FFF7E8FF12B194F82F30A3B130
:10A77000636802932389ADF80C30E36800218DF8FB
:10A780000410002B44D12374236801A898470023A8
:10A7900084F82F3094F82E3003B3414B1B68EBB193
:10A7A0004FF48070FFF7C8FF94F82D20638B91B2AF
:10A7B0008B4238D95B1A21899BB26383CB1A6168BB
:10A7C00001EB4301374BC3F82C16C3F830264FF486
:10A7D0008270FFF7B1FF344B01221A60334B1B68C4
:10A7E0005BB14FF48870FFF7A7FF002304A8237420
:10A7F000022300F80C3D236898472D4B1B6813B3C8
:10A800004FF48A70FFF798FF0023237405B0F0BD62
:10A81000208B608363602081E160002AB4D1214BEA
:10A8200001221A60B0E7D2D1E368012184F82F1029
:10A830003BB1002161831B49C1F82C36C1F8302699
:10A84000C5E76383C3E766694FF000470125002E23
:10A85000DCD0B6FA86F227FA02F34632920026EAF4
:10A86000030602F1804303F5E0431B68002BEED0A2
:10A870001046FFF761FFA2F58C72D30882F0040244
:10A88000C2F380028DF808308DF804508DF809204D
:10A89000236801A89847DAE704710040C4AF00209C
:10A8A00000710040007000400470004010710040D2
:10A8B0001471004002494FF4F37002F08DBF00BFE5
:10A8C000366703001F2810B5044601D9FFF7F2FFD1
:10A8D000012303FA04F44FF0A043C3F80C4510BD64
:10A8E0001F2810B5044601D9FFF7E4FF012303FA3E
:10A8F00004F44FF0A043C3F8084510BD13B54FF062
:10A900004023D3F818310BB3114B124C00221A60BC
:10A910001B680193019B236823B90F494FF42770EB
:10A9200002F05AFFE07FFF2803D0A37F5BB1FFF75F
:10A93000C9FF002363772372D4E90031074802B0CE
:10A94000BDE810401847FFF7CBFFF2E702B010BD9B
:10A9500018410040F4AF002053720300FCAF002008
:10A960002DE9F74F8146CDE900230C4619B97D4901
:10A97000AD2002F031FF99F804607B4F242303FBE4
:10A9800006FB07EB0B0A9AF81C10002940F0E48044
:10A99000D9F8005075492846FFF732FE8046002856
:10A9A00040F0DD80009B47F80B30019BCAF8043073
:10A9B000237B2078012B00F2BD80FFF783FF94F802
:10A9C00000A0BAF11F0F01D9FFF774FF0AF5E07A72
:10A9D0004FF0A043012243F82A2094F801A0BAF1D5
:10A9E000FF0F00F0AA805046FFF76CFFBAF11F0F6F
:10A9F000D34601D9FFF75EFF0AF5E07A4FF0A04396
:10AA0000032243F82A20A378FF2B00F099801F2B04
:10AA10009A4603D90093FFF74DFF009B03F5E073BF
:10AA20004FF0A042042142F82310242303FB0673B5
:10AA3000A27883F82020E278DA77E078FF2817D030
:10AA40002379002B7FD0FFF73DFFE3781F2B03D93D
:10AA50000093FFF72FFF009B03F5E0734FF0A04238
:10AA6000032142F82310242303FB067322799A77EB
:10AA70002378C5F80835C5F80CB5C5F810A5A36846
:10AA8000C5F82435637B227B003318BF0123022ADB
:10AA90005CD0032A5DD0012A01D143F00203C5F83E
:10AAA0005435A379C5F8C03524237343FB5813B13B
:10AAB0004022C5F804230722C5F800257BB3D9F846
:10AAC000003064794FEA133AA31E012B4FFA8AF53E
:10AAD00006D9631F022B03D925496B2002F07CFEA7
:10AAE000002DACBF05F16043224B4FEA4414B8BFC0
:10AAF0000AF00F0AE4B2AABF03F5614303F80A4063
:10AB000083F80043D9F800301B0B5AB2012103F03F
:10AB10001F0301FA03F35209174941F82230242395
:10AB200003FB06760023737701233377404603B097
:10AB3000BDE8F08FFFF7D4FE41E74FF0FF3B62E73F
:10AB40004FF0FF3A71E7FFF7CBFE7EE743F00403D7
:10AB5000A5E743F00603A2E74FF00808E6E74FF049
:10AB60001108E3E753720300F4AF0020FDA80200D0
:10AB70009F72030014ED00E000E100E02DE9F341D5
:10AB8000584F0679242303FB067380461B7F0D462E
:10AB9000144623B9544940F2322002F01DFE2B68BE
:10ABA00033B96B6823B1504940F2332002F014FEF0
:10ABB000AB6833B9EB6823B14B494FF40D7002F029
:10ABC0000BFE98F804302BB9EB68FF2B02D86B68AA
:10ABD000FF2B04D9444940F2372002F0FDFD242325
:10ABE0007343FA18517F002979D1FB5823B114F02F
:10ABF000140F04BF0123537795E80F004FF0240C86
:10AC00000CFB067C0CF10C0E8EE80F009CF81F006C
:10AC1000FF2804D09CF81E30C3B1FFF761FE2A68FC
:10AC200022B102F06043B3F1005F06D1AB6883B19B
:10AC300003F06043B3F1005F0BD0242303FB0676DF
:10AC400000237377102002B0BDE8F081FFF73AFED1
:10AC5000E5E7D8F800306968C3F84425C3F848151B
:10AC6000D5E90212C3F83415C3F838250022C3F819
:10AC70001821D3F818210192019A14F0010218BF8B
:10AC80000122C3F8502514F0020218BF0122C3F8B4
:10AC9000402522075CBF01221A6124227243BA5860
:10ACA00092B9D3F81821002AFBD0242303FB06769F
:10ACB000F07FFF2803D0B47F1CB1FFF703FE002014
:10ACC000C1E7FFF70DFEFAE714F004004FF0400271
:10ACD00002D0C3F80823F2E7C3F80423B3E7112036
:10ACE000B1E700BFF4AF0020537203002DE9F74332
:10ACF000002406460F4600F5A0754FF48038A146A3
:10AD000004F150002B68800080B26BB1D6F8043398
:10AD100008FA04F21A4207D0C5F800902B68019394
:10AD2000019BD7E9003198470134042C05F1040553
:10AD3000E6D103B0BDE8F0832DE9F347544B077922
:10AD4000154602689A4204460E4603D151494820EE
:10AD500002F042FD1EB94F494A2002F03DFD1DB9E7
:10AD60004C494B2002F038FD4B4A0C2303FB0723D0
:10AD700090461B7A002B40F089802368444A934216
:10AD80000FD002F5805293420BD002F580529342CD
:10AD900007D002F58032934203D002F580529342ED
:10ADA00002D1B378032B03D93A495F2002F014FD96
:10ADB0000C237B4308EB030248F80350736853608D
:10ADC0000022154660792168D3B2984202F101024F
:10ADD00054D8F578AB1E4FEA113A012B4FFA8AF995
:10ADE00006D96B1F022B03D92C496B2002F0F4FC0F
:10ADF000B9F1000FAEBF09F160430AF00F03284A12
:10AE000028484FEA4515EDB2AABF03F56143D55472
:10AE100083F8005323681B0B59B24909012203F040
:10AE20001F0302FA03F340F8213020687378D0F84A
:10AE3000041503F0030321F003010B43C0F80435AC
:10AE40002068B378D0F8081503F0030321F003015C
:10AE50000B43C0F8083520683378D0F8101503F09C
:10AE60000F0321F00F010B43C0F810350C2303FB37
:10AE7000078700203A7202B0BDE8F0879B0003F517
:10AE8000A073CD50CB580193019B9BE70820F2E7BC
:10AE900000800040E872030018B000209F72030099
:10AEA00014ED00E000E100E038B50B4C02790C2114
:10AEB00001FB02420546127A012A03D007498F207E
:10AEC00002F08AFC2B6801221A602B790C2202FB0B
:10AED000034302221A7238BD18B00020E872030042
:10AEE00038B50A4C02790C2101FB02420546127A60
:10AEF0001AB90749972002F06FFC2B6801221A61EA
:10AF00002B790C2101FB03431A7238BD18B00020C5
:10AF1000E872030038B50A4C02790C2101FB0242A9
:10AF20000546127A1AB907499F2002F055FC2B7981
:10AF30000C2202FB0343187A831E5842584138BD45
:10AF400018B00020E872030010B5084A03790C21FC
:10AF500001FB032304461B7A1BB90549B32002F009
:10AF60003BFC23680122DA6010BD00BF18B000204E
:10AF7000E872030038B5104A03790C460C2101FB36
:10AF8000032305461B7A1BB90C49C22002F024FC9E
:10AF90006B79A34203D80949C32002F01DFC04F1D8
:10AFA00010039B00DBB22A680121D15004F5A8747C
:10AFB0002B6853F8240038BD18B00020E872030055
:10AFC00001490248FFF792BE18B0002000800040FF
:10AFD00001490248FFF78ABE24B0002000900040DB
:10AFE0000023435082B043580193019B02B0704745
:10AFF000F0B5504C236887B023B94F4940F2452043
:10B0000002F0EAFB4D4AD2F824311546A3B14FF4C1
:10B0100092711046FFF7E4FFD2F8043163B9A368D8
:10B02000C2F808330223A360A368C2F804330123E3
:10B030001362536107B0F0BDD5F80431002B49D03D
:10B040003F4F3E484FF48271FFF7CAFF0FCF01AE6A
:10B050000FC63B68336094F82E307BB1237B012B05
:10B060000CBFD5F83C25D5F84C250292022B334B6A
:10B070000CBFD3F83C35D3F84C3503934FF4B07183
:10B080002E48FFF7ADFF4FF4AE712C48FFF7A8FF35
:10B0900094F8303013B194F82E303BB1274B002296
:10B0A000C3F80022A260274AC3F80823234AD2F833
:10B0B000C434C2F8C4349A0736D501238DF8003061
:10B0C00094F830300BB984F82F30D4E90031684659
:10B0D0009847AFE74FF4A4711848FFF781FF237B2F
:10B0E00083B9174F0FCF01AE0FC63B68336094F89A
:10B0F0003030002BDAD1C5F80032A360114BC5F80F
:10B100000833D3E74FF40073C5F8003240F202234E
:10B11000A36003F1CE73C5F80833A368C5F8043300
:10B120000123AB602B6285E713F0040318BF0223F1
:10B13000C4E700BF30B000203B7303000030004084
:10B140003CB0002002029C012DE9F74F8046934657
:10B1500001930C4619B95049A92002F03DFBD4E9EE
:10B1600000239A4203D14C49AA2002F035FB98F8FB
:10B1700004704A4E342303FB07FA06EB0A0999F8D8
:10B180002D20002A40F083804549D8F80000FFF7C1
:10B1900037FA054600287CD146F80AB0019BC9F869
:10B1A0000800C9F8043089F8300089F82F00637B63
:10B1B00089F83230D4F80090B9F11F0F04D9394919
:10B1C0004FF4F37002F008FB4FF0A04309F5E0796B
:10B1D00040F20C6243F82920D4F804A0BAF11F0F02
:10B1E000994604D92F494FF4F37002F0F5FA0AF5A5
:10B1F000E07A40F20C6349F82A30D4E90012D8F81A
:10B200000030C3F80815C3F80C25A268C3F824253C
:10B2100034237B43F35883B3D8F80030247B4FEAC0
:10B22000133AA31E012B4FFA8AF906D9631F022B8A
:10B2300003D91D496B2002F0CFFAB9F1000FACBF62
:10B2400009F16043194B4FEA4414B8BF0AF00F0AE2
:10B25000E4B2AABF03F5614303F80A4083F8004350
:10B26000D8F800301B0B5AB2012103F01F0301FA7A
:10B2700003F352090E4941F82230342303FB0766D9
:10B28000012386F82D30284603B0BDE8F08F08254D
:10B29000F9E71125F7E700BF3B73030030B000204A
:10B2A000F1AF0200366703009F72030014ED00E067
:10B2B00000E100E070B50D4D0479342202FB045228
:10B2C000064692F82D20012A04D0094940F21110B7
:10B2D00002F082FA33680622C3F80025342303FB08
:10B2E0000454022384F82D3070BD00BF30B000201C
:10B2F0003B73030070B5114D0479342202FB0452F4
:10B30000064692F82D2022B90D494FF48E7002F0B6
:10B3100063FA3422336802FB04540021094AA16015
:10B32000C3F80823D3F8002222F4BC52C3F8002249
:10B33000C3F80015012384F82D3070BD30B0002013
:10B340003B73030002029C01F8B5294D04793423B4
:10B3500003FB0453064693F82D301BB92549F8200A
:10B3600002F03AFA34236343EB5863B133681B0BA2
:10B370005AB20121520903F01F0301FA03F32032EC
:10B380001D4941F822303046FFF7B4FF3068FFF71F
:10B390005FF9342303FB045393F8323003BB336863
:10B3A000D3F808751F2F04D914494FF4F37002F035
:10B3B00013FA4FF0A04307F5E077022243F8272065
:10B3C0003268D2F80C751F2F1E4604D90B494FF472
:10B3D000F37002F001FA07F5E077022346F8273010
:10B3E000342303FB0454002384F82D30F8BD00BF40
:10B3F00030B000203B73030000E100E0366703003B
:10B400002DE9F843037904460D4690462BB94B6865
:10B41000FF2B02D88B68FF2B04D9B6494FF4F87084
:10B4200002F0DAF92779B44E34237B43F3583BB961
:10B430002B78022B04D1AF494FF4FB7002F0CCF90A
:10B4400034237B43F3583BB92B78032B04D1A94910
:10B4500040F2F71002F0C0F9EB6803F06043B3F17B
:10B46000005F03D010221046BDE8F8832468A34B88
:10B47000C4F808334FF0340C0CFB076C9CF82F30E9
:10B480002BB1DCF80830C4F804331122EBE718F0D4
:10B49000140F0CBF012300238CF82F30A946B9E804
:10B4A0000F000CF10C0EAEE80F00D9F80030CEF80A
:10B4B0000030C8F300138CF830306B78C4F888354E
:10B4C0004FF482712046FFF78BFD4FF49271FFF726
:10B4D00087FD18F0010318BF0123C4F8503518F098
:10B4E000020318BF0123C4F840352B78032B00F268
:10B4F000E080DFE803F0A0C8810218F0100F04D04C
:10B500007C4940F2711002F067F918F0080F04D07E
:10B5100078494FF4B97002F05FF918F0040F04D0C5
:10B52000744940F2731002F057F92B6903F060433D
:10B53000B3F1005F96D14FF48073C4F800326B68AA
:10B54000EA68C4F844252046C4F848354FF4A87189
:10B55000FFF746FD4FF4B071FFF742FD4FF4A471C1
:10B56000FFF73EFD01232362A360D4F85031002B86
:10B57000FBD04FF4A8712046FFF732FDAB682A6973
:10B58000C4F84425C4F84835342303FB07635C4AF8
:10B590009A604FF482730821002218F0080F04D13A
:10B5A000287803281CBF012060503421794370188B
:10B5B0007158002940F08280012523441968002930
:10B5C00000F089803421D4F8C434C4F8C43401FBB9
:10B5D0000766002186F82F10002B3FF444AF13F0CC
:10B5E000020F48F2012208BF032213F0040F48F2B1
:10B5F000022318BF1A4636E76B68EA68C4F8442588
:10B60000C4F848352B6903F06042B2F1005F7FF463
:10B6100029AFAA68C4F834354FF48453C4F83825E8
:10B62000C4F80032342303FB076340F202229A601D
:10B6300001232362ADE76B68EA68C4F8442518F07B
:10B64000200FC4F848354FF0340310D003FB0763D4
:10B650004FF48072C4F80022294A9A604FF4A47112
:10B66000FFF7BEFC4FF4A4730122226293E74FF46C
:10B67000007203FB0763C4F8002240F202229A60C2
:10B680004FF48273F0E76B68EA68C4F83425C4F8B5
:10B6900038354FF48053C4F80032342303FB07637A
:10B6A00040F202229A600123236200214FF4827348
:10B6B00072E74FF48273082107226EE718F0040F37
:10B6C0001CBF4FF400738360342303FB0766B36829
:10B6D000C4F80433C7E6D4F8241100293FF46EAF50
:10B6E0004FF492712046FFF77BFC25624FF4827382
:10B6F000656162E73B73030030B0002002029C01E9
:10B70000000204000023435082B043580193019B80
:10B7100002B070470A4610B54FF48E71FFF7F2FF82
:10B72000136A9168C95C136A01331362C0F81C156F
:10B7300010BD08B502464FF492710068FFF7E2FFB2
:10B740004FF484711068FFF7DDFF136801221A605F
:10B7500008BD10B58B690A464FF4847123B9FFF711
:10B76000D1FFD0F8183510BDFFF7CCFF536AD16870
:10B77000D0F81805C854536A01335362F3E7000048
:10B7800002494FF4F37002F027B800BF3667030098
:10B790001FB501238DF80030044BCDE90110D3E92A
:10B7A00000126846904705B05DF804FB64B00020C5
:10B7B00030B54D4AD2F8043313F4007F85B01546F6
:10B7C0004FD0D2F82431002B4BD04FF49271104659
:10B7D000FFF798FF4FF40173C2F80833434B93F817
:10B7E000291009B9012151603F4902228DF800203A
:10B7F000D1F88024C1F8802403929A690292DA6811
:10B8000001920022C3E906226846D3E9001290475C
:10B810003548D0F81C315BB134490A6A4B699A4209
:10B820000A464CD291F82830002B48D1FFF772FF1E
:10B830002D4AD2F8443193B14FF4A2711046FFF76C
:10B8400061FF2A4B93F8291009B1012111609A690F
:10B850002AB100229A61586AD968FFF799FF05B0AA
:10B8600030BDD5F804335B07D2D5D5F80831002BAD
:10B87000CED01E4C1C482146FFF76BFF636AA269BD
:10B880009A422346C4D1E26952B12369E168E36078
:10B890000023606AA261E3616362FFF779FFB7E7A3
:10B8A00094F829200AB901226A600F4A4FF4017105
:10B8B000C2F8081300229A61586AD968EDE74FF47C
:10B8C0008E710948FFF71EFF51690029B0D000238F
:10B8D000029191688DF80030019153616846D2E978
:10B8E00000139847A4E700BF0020004064B0002088
:10B8F0002DE9F84F054692460C4619B97749AA201A
:10B9000001F06AFF764B2E792C2202FB0632984614
:10B9100092F82A20002A40F0DD8072492868FEF75C
:10B920006FFE0746002840F0D780D4F80090B9F1A8
:10B93000FF3F18D0B9F11F0F01D9FFF721FF4FF0DA
:10B94000A043012202FA09F2C3F80825D4F800B096
:10B95000BBF11F0F994601D9FFF712FF0BF5E07BF2
:10B96000032349F82B30D4F80490B9F1FF3F0BD0F2
:10B97000B9F11F0F01D9FFF703FF09F5E0794FF087
:10B98000A043002243F829202B68A269C3F824258C
:10B99000217D637D2A680B43C2F86C35D4E9002110
:10B9A0002B68C3F81415C3F80C25237D012B35D162
:10B9B000D4F80890B9F1FF3F0BD0B9F11F0F01D9AE
:10B9C000FFF7DEFE09F5E0794FF0A043002243F8CF
:10B9D0002920D4F80C90B9F1FF3F18D0B9F11F0F0E
:10B9E00001D9FFF7CDFE4FF0A043012202FA09F280
:10B9F000C3F80825D4F80CB0BBF11F0F994601D944
:10BA0000FFF7BEFE0BF5E07B032349F82B30D4E9AA
:10BA100002212B68C3F80815C3F810252C237343A3
:10BA200008EB0302C2F804A0226948F80320BAF127
:10BA3000000F3CD04FF48E712868247FFFF762FE20
:10BA40004FF4A2712868FFF75DFE2B68264AC3F801
:10BA500004232B684FEA133AA31E012B4FFA8AF9ED
:10BA600006D9631F022B03D920496B2001F0B4FED5
:10BA7000B9F1000FACBF09F160431D4B4FEA44140C
:10BA8000B8BF0AF00F0AE4B2AABF03F5614303F896
:10BA90000A4083F800432B681B0B5AB2012103F0C4
:10BAA0001F0301FA03F35209124941F822302B68AF
:10BAB0000422C3F800252C2303FB06830022C3E9DC
:10BAC000062283F829205A61012283F82A20384669
:10BAD000BDE8F88F0827FAE71127F8E78C73030011
